:020000040800F2
:10000000005000201D0F0008110A0008130A000804
:10001000150A0008170A0008190A00080000000065
:100020000000000000000000000000001B0A0008A3
:100030001D0A0008000000001F0A0008210A00082D
:10004000650F0008650F0008650F0008650F0008C0
:10005000650F0008650F0008650F0008650F0008B0
:10006000650F0008650F0008650F0008650F0008A0
:10007000650F0008650F0008650F0008650F000890
:10008000650F0008650F0008650F0008650F000880
:10009000650F0008650F0008650F0008650F000870
:1000A000650F0008650F0008650F0008650F000860
:1000B000650F0008650F0008650F0008650F000850
:1000C000650F0008650F0008650F0008650F000840
:1000D000650F0008290A0008650F0008650F000871
:1000E000650F0008650F0008650F0008000000009C
:1000F0000000000000000000000000000000000000
:0C01000000000000000000005FF808F1A3
:10010C0010B5054C237833B9044B13B10448AFF345
:10011C0000800123237010BD640800200000000043
:10012C00B839000808B5034B1BB103490348AFF3BA
:10013C00008008BD0000000068080020B8390008E5
:10014C0080EA010C1CF0030F37D110F0030C20F0E7
:10015C00030021F0030150F8042B08BF51F8043BB5
:10016C000ED08CF0030C6FF07F434FEACC0C23FACB
:10017C000CFC51F8043B42EA0C0243EA0C0300BFAE
:10018C00A2F1013C9A4201BF2CEA020C1CF0803F08
:10019C0050F8042B51F8043BF2D04FEA02604FEABE
:1001AC001222012828BFB0EB036F08BF1B0AF4D042
:1001BC0003F0FF03000EC01A704710F0030F0AD0B3
:1001CC0010F8012B11F8013B012A28BF9A42F4D0F8
:1001DC00A2EB030070474DF8045D50F8042B01F0BE
:1001EC00030521F0030151F8043B022D26D04DD814
:1001FC0022F07F45B5EB132FA2F1013C2CEA020C47
:10020C000DD11CF0803C08BF51F8043B0AD185EAA3
:10021C000205B5EB036F0CD150F8042BE8E74FEA5D
:10022C0013235BE03CF07F4C54D10B784FEA126502
:10023C0054E04FEA126503F0FF034FE04FEA02452A
:10024C00A2F1013C4FEA15452CEA020CB5EB134F19
:10025C0018D11CF0803C08BF51F8043B07D185EA4B
:10026C000205B5EB034F09D150F8042BE6E75FEA22
:10027C000C4C2FD10B884FEA12452FE04FEA034369
:10028C004FEA12454FEA134328E000BF02F0FF0586
:10029C00B5EB136FA2F1013C2CEA020C0DD11CF052
:1002AC00803C08BF51F8043B0AD185EA0205B5EB46
:1002BC00032F0AD150F8042BE8E74FEA13630DE043
:1002CC0012F0FF0F06D051F8043B4FEA122523F031
:1002DC007F4303E04FF0000020BC704705F0FF02A5
:1002EC0003F0FF00012828BF904204BF2D0A1B0A0F
:1002FC00F4D0A2EB000020BC704700BF10B50A4C34
:10030C0023680A4A1268DA63094A12681A644FF4BD
:10031C007A7000F06DFE2368A0225A634FF47A7055
:10032C0000F066FE10BD00BFA008002000000020F9
:10033C000400002008B508E00533064A1360064A9D
:10034C001268D363142000F053FE024B1B68D12BB0
:10035C00F2DD08BD00000020A008002008B508E070
:10036C00053B064A1360064A1268D363142000F05A
:10037C003FFE024B1B68462BF2DC08BD0000002040
:10038C00A008002008B508E0053B064A1360064AA1
:10039C00126813640A2000F02BFE024B1B68B42B6E
:1003AC00F2DC08BD04000020A008002010B50128D4
:1003BC0001D070B110BD0E4C01224FF400712046DB
:1003CC0001F01FF800224FF48071204601F019F85B
:1003DC00F0E7074C01224FF48071204601F011F830
:1003EC0000224FF40071204601F00BF8E2E700BF49
:1003FC00000C014010B5012801D060B110BD0C4CAF
:10040C0001228021204600F0FCFF002240212046E2
:10041C0000F0F7FFF2E7064C00228021204600F0A6
:10042C00F0FF01224021204600F0EBFFE6E700BF81
:10043C00000C014010B5012801D060B110BD0C4C6E
:10044C0001222021204600F0DCFF00221021204652
:10045C0000F0D7FFF2E7064C00222021204600F0E6
:10046C00D0FF01221021204600F0CBFFE6E700BFB1
:10047C00000C014008B510B101280CD008BD0122B8
:10048C0008210B4800F0BDFF00224FF40041094841
:10049C0000F0B7FFF2E701224FF40041054800F0ED
:1004AC00B0FF00220821024800F0ABFFE6E700BFD6
:1004BC00000C01400008014008B5094B1B6859634A
:1004CC009863D86319640120FFF7D4FF0120FFF76C
:1004DC0091FF0120FFF76AFF0120FFF7ABFF08BD7A
:1004EC00E808002038B505460C461749FFF728FEEA
:1004FC0028B116492846FFF723FE98B138BD144B96
:10050C001B685C639C63DC631C640120FFF7B2FF17
:10051C000020FFF76FFF0020FFF748FF0120FFF7D7
:10052C0089FFEBE70A4B1B685C639C63DC631C6410
:10053C00FFF7A0FF0120FFF75DFF0120FFF736FF5B
:10054C000020FFF777FFD9E7D0390008D839000829
:10055C00E8080020C3680B44C36082688A1A03EB66
:10056C00410381609818704700230B6048608B60D2
:10057C00CB6070472DE9F04389B0002404940594B6
:10058C0006940794374B9A6942F010029A619A6963
:10059C0002F010020092009A9A6942F020029A61CD
:1005AC009A6902F020020192019A9A6942F00402BF
:1005BC009A619A6902F004020292029A9A6942F0D4
:1005CC0008029A619B6903F008030393039BDFF80D
:1005DC00989022464FF40051484600F012FF234FEA
:1005EC0022464FF40041384600F00BFFDFF88080C4
:1005FC0022464FF47E71404600F003FF4FF4005347
:10060C0004930126059606940225079504A94846ED
:10061C0000F0DEFD0C2304930594069604A93846DD
:10062C0000F0D6FD4FF4106304930595079504A9CB
:10063C00384600F0CDFD4FF4004304930596069424
:10064C00079504A9384600F0C3FD4FF47E7304935C
:10065C0005960694079504A9404600F0B9FD09B02B
:10066C00BDE8F0830010024000100140000801407A
:10067C00000C014072B6FEE700B591B028220021B3
:10068C0006A802F013F90023019302930393049339
:10069C000593012206924FF4803307930A920222AB
:1006AC000D920E934FF4E0130F9306A800F0C6FEC4
:1006BC0080B90F23019302210291002303934FF47D
:1006CC0080620492059301A801F0EAF820B911B0F8
:1006DC005DF804FBFFF7CEFFFFF7CCFF30B599B008
:1006EC00744C204600F008F900F05EFCFFF7C4FFE4
:1006FC00FFF740FF00F056FA00F0CAFA00F03EFB9C
:10070C00012208A9204602F094F86B4C00212046E7
:10071C0001F020FC0421204601F01CFC082120469D
:10072C0001F018FC0C21204601F014FC634C002154
:10073C00204601F00FFC0821204601F00BFC0C2197
:10074C00204601F007FCFFF7D9FD04A95C4B1868A3
:10075C00FFF70AFF69465B4B1868FFF705FF31E0AE
:10076C00594B01221A60C8210846FFF7A5FE48E044
:10077C0000F062FB53E000210846FFF79DFEFFF7F7
:10078C00D9FDC8210846FFF797FE4FF47A7000F0A8
:10079C002FFCFFF7F7FD4FF47A7000F029FCFFF700
:1007AC00DDFD4A4B01221A60474B00221A6006E01D
:1007BC0081B24748FFF796FE01E0012B4BD0642035
:1007CC0000F016FC434B19884148FFF78BFE424B57
:1007DC001B78002BCCD0404B00221A703F4CB4F944
:1007EC000010374B196004A8FFF7B4FE3C4B18609F
:1007FC00B4F902303B4A13603B4A12689B1A002B37
:10080C00AEDB364BB3F90430384A136013B12F4BBF
:10081C0000221A60314B00221A605A609A602B4BEE
:10082C001B68002BC9D1284B1B68012BA3D0244B70
:10083C0019681429C3DD04A8FFF78CFE254B18603A
:10084C001F4B1B68002BB3DC002BB8DA81B2284895
:10085C00FFF748FEB3E7274D0421284600F0CAFDF8
:10086C0004460821284600F0C5FD04B970B1012CDE
:10087C0012D00CB9012817D0012CA0D100289ED180
:10088C0000214FF49670FFF717FE98E74FF496711E
:10089C000846FFF711FE92E70128EAD14FF4967152
:1008AC000846FFF709FE8AE74FF496710020FFF720
:1008BC0003FE84E750090020E8080020A00800206F
:1008CC0094080020800800208C0800200C000020D8
:1008DC00D8390008880800203C0900203009002085
:1008EC009008002084080020080000201000002040
:1008FC00D03900080008014008B5054B1860054BBD
:10090C001868002302221946806802F021F808BDFD
:10091C00980800202000002010B5013801280AD8C2
:10092C0014464FF0FF3392B20748006801F0D2FC36
:10093C0040B9204610BD01F08FFF092303604FF032
:10094C00FF30F7E70520F5E798080020022801D8CA
:10095C000020704708B501F07FFF092303604FF0BA
:10096C00FF3008BD08B501F077FF092303604FF095
:10097C00FF3008BD08B548B94FF0FF3301220848D5
:10098C00006801F006FD40B9012008BD01F064FFCC
:10099C00092303604FF0FF30F7E70520F5E700BFB0
:1009AC009808002008B5022804D84FF400534B6077
:1009BC00002008BD01F050FF09230360F8E7000098
:1009CC0082B00E4B9A6942F001029A619A6902F068
:1009DC0001020092009ADA6942F08052DA61DB6916
:1009EC0003F080530193019B054A536823F0E063A5
:1009FC0043F00073536002B0704700BF0010024018
:100A0C0000000140FEE7FEE7FEE7FEE7FEE7704769
:100A1C007047704708B500F0D9FA08BD08B5024810
:100A2C0001F0A8FD08BD00BF5009002010B5034619
:100A3C000C4A0D490D48006840B10C48006803444D
:100A4C00521A934206D8094A136010BD0748084C45
:100A5C000460F2E701F000FF0C2303604FF0FF305D
:100A6C00F3E700BF00500020000400009C080020A9
:100A7C00E80900207047000082B00368B3F1804F92
:100A8C0004D00E4A93420DD002B0704703F50433E4
:100A9C00DA6942F00102DA61DB6903F001030093C9
:100AAC00009BF1E7064BDA6942F00202DA61DB697E
:100ABC0003F002030193019BE6E700BF0004004032
:100ACC000010024010B588B00023049305930693E0
:100ADC0007930368B3F1804F04D02D4A934231D071
:100AEC0008B010BD03F504339A6942F004029A6110
:100AFC009A6902F004020092009A9A6942F0080284
:100B0C009A619B6903F008030193019B03230493EF
:100B1C0002240594079404A91E4800F059FB4FF4D5
:100B2C00406304930594079404A91B4800F050FB00
:100B3C001A4A536823F4407343F0E06343F40073A0
:100B4C005360CDE7164B9A6942F004029A619A6998
:100B5C0002F004020292029A9A6942F008029A6127
:100B6C009B6903F008030393039BC02304930224A3
:100B7C000594079404A9074800F02AFB0323049367
:100B8C000594079404A9044800F022FBA8E700BFD1
:100B9C000004004000080140000C0140000001402E
:100BAC000010024000B58FB000230A930B930C93F6
:100BBC000D93089309930193029303930493059364
:100BCC000693079331484FF08042026040F2CF22E7
:100BDC004260836040F2CF72C26003618023836104
:100BEC0001F026F8002839D14FF480530A930AA952
:100BFC00264801F021F9002833D1244801F044F8AB
:100C0C00002831D100230893099308A91F4801F04B
:100C1C000FFA60BB602301930022029203920592AB
:100C2C0001A91A4801F08EF820BB04220DEB020139
:100C3C00164801F087F800BB082201A9134801F0FF
:100C4C0081F8E8B90C2201A9104801F07BF8D0B961
:100C5C000E48FFF737FF0FB05DF804FBFFF70AFDF6
:100C6C00C2E7FFF707FDC8E7FFF704FDCAE7FFF788
:100C7C0001FDCFE7FFF7FEFCD7E7FFF7FBFCDBE757
:100C8C00FFF7F8FCDEE7FFF7F5FCE1E7A008002032
:100C9C0000B58FB000230A930B930C930D9308931C
:100CAC00099301930293039304930593069307937B
:100CBC003048314A026009224260836040F2E732D8
:100CCC00C26003618023836100F0B2FF002839D138
:100CDC004FF480530A930AA9264801F0ADF8002876
:100CEC0033D1244800F0D0FF002831D100230893E1
:100CFC00099308A91F4801F09BF960BB602301937D
:100D0C00002202920392059201A91A4801F01AF8E6
:100D1C0020BB04220DEB0201164801F013F800BBB6
:100D2C00082201A9134801F00DF8E8B90C2201A919
:100D3C00104801F007F8D0B90E48FFF7C3FE0FB00A
:100D4C005DF804FBFFF796FCC2E7FFF793FCC8E7DE
:100D5C00FFF790FCCAE7FFF78DFCCFE7FFF78AFCA3
:100D6C00D7E7FFF787FCDBE7FFF784FCDEE7FFF74D
:100D7C0081FCE1E7E80800200004004008B50A48BF
:100D8C000A4B03604FF4E133436000238360C3607C
:100D9C0003610C2242618361C36101F06BFA00B9FB
:100DAC0008BDFFF767FCFBE7500900200038014045
:100DBC0030B587B000230293039304930593026824
:100DCC001B4B9A4201D007B030BD03F558439A69CA
:100DDC0042F480429A619A6902F480420092009A2D
:100DEC009A6942F004029A619B6903F0040301932F
:100DFC00019B4FF400730293022303930323059387
:100E0C000C4D02A9284600F0E3F94FF480630293DD
:100E1C0000240394049402A9284600F0D9F9224630
:100E2C000121252000F00AF9252000F03FF9CAE73E
:100E3C000038014000080140204B00221A60204B72
:100E4C001B788BB1082B12D910B51E4A12785B2A6D
:100E5C0030D01C4A5278382A2ED0013B194AD35C28
:100E6C00B52B08D100221CE0154B1A707047144B9F
:100E7C0000221A707047642000F0BAF8104B002260
:100E8C001A7016E05100CB1C0E4CE35C1B021BB21B
:100E9C000D4820F812300231615C0B4320F81230FF
:100EAC000132052AEEDD094B01221A70044B002297
:100EBC001A7010BD0022F4E70022F2E74C09002062
:100ECC004909002040090020300900203C0900207D
:100EDC0008B50C4B984200D008BD0B4B1B78082B67
:100EEC0006D802685168094AD1540133064A137076
:100EFC00054B1B78012205491944024801F099FC65
:100F0C00EAE700BF500900204909002040090020F1
:100F1C00FFF7B0FD0B480C490C4A002302E0D458F3
:100F2C00C4500433C4188C42F9D3094A094C002329
:100F3C0001E013600432A242FBD301F093FCFFF7F3
:100F4C00CDFB704700000020640800201C3A00080C
:100F5C0064080020E4090020FEE7000010B50446F8
:100F6C000E4B18784FF47A73B3FBF0F30C4A1068FD
:100F7C00B0FBF3F000F0A8F868B90F2C01D90120F0
:100F8C000AE0002221464FF0FF3000F057F8054BE5
:100F9C001C60002000E0012010BD00BF18000020E4
:100FAC00140000201C00002008B5074A136843F009
:100FBC0010031360032000F02FF80F20FFF7CEFF73
:100FCC00FFF7FEFC002008BD00200240034A116818
:100FDC00034B1B780B441360704700BF980900202B
:100FEC0018000020014B1868704700BF98090020BA
:100FFC0038B50446FFF7F6FF0546B4F1FF3F02D0C3
:10100C00044B1B781C44FFF7EDFF401BA042FAD3A6
:10101C0038BD00BF18000020074AD36823F4E063F2
:10102C001B041B0C000200F4E060034343F0BF639D
:10103C0043F40033D360704700ED00E000B5194B6A
:10104C00DB68C3F30223C3F1070CBCF1040F28BF08
:10105C004FF0040C03F1040EBEF1060F18D9033B3C
:10106C004FF0FF3E0EFA0CFC21EA0C0199400EFAEF
:10107C0003F322EA0303194300280BDB0901C9B26D
:10108C0000F1604000F5614080F800135DF804FB4E
:10109C000023E5E700F00F000901C9B2024B195417
:1010AC00F4E700BF00ED00E014ED00E0002807DBE2
:1010BC0000F01F02400901239340024A42F82030FD
:1010CC00704700BF00E100E00138B0F1807F0BD227
:1010DC004FF0E0235861054AF02182F823100020DC
:1010EC00986107221A6170470120704700ED00E0FB
:1010FC0090F82130DBB2022B06D00423836300234B
:10110C0080F82030012070470268136823F00E032A
:10111C0013600268136823F001031360036CC16B46
:10112C00012202FA03F34B6080F82120002380F89F
:10113C00203018467047000008B590F82130DBB21B
:10114C00022B03D004238363012008BD02681368BB
:10115C0023F00E0313600268136823F0010313607D
:10116C000368194A934214D0143293421FD014329C
:10117C0093421ED0143293421ED0143293421ED08E
:10118C001432934202D04FF0807203E04FF480127D
:10119C0000E001220D4B5A60012380F8213000231E
:1011AC0080F82030436B6BB198470020CDE71022BC
:1011BC00F0E74FF48072EDE74FF48052EAE74FF41A
:1011CC008032E7E70020C0E7080002400000024040
:1011DC0070B582B00024A446A6E0804DAA4210D07F
:1011EC0007D97F4DAA420CD005F58035AA4208D00C
:1011FC0013E0A5F58015AA4203D005F57025AA4287
:10120C0007D18A68002A58D0012A51D0436108249A
:10121C0003E0A5F58015AA42F3D0BEF1FF0F4ED81E
:10122C000646BEF1FF0F4CD84FEA8C0233680F25EF
:10123C00954023EA050304FA02F2134333604B682A
:10124C0013F0805F6ED0674B9A6942F001029A618D
:10125C009B6903F001030193019B4FEA9C02951CCF
:10126C00614B53F825600CF003039D000F23AB403A
:10127C0026EA03065D4B984229D003F58063984219
:10128C0000F08E8003F58063984200F08B8003F5AC
:10129C008063984219D004231AE0CC68BDE7CC686F
:1012AC000434BAE7CC680834B7E7CC680C34B4E73C
:1012BC0003610824B1E70024AFE70424ADE7061D61
:1012CC00AFE7ACF108029200B0E7032300E0002383
:1012DC00AB4033430232444D45F822304B6813F493
:1012EC00801F61D0424A936843EA0E0393604B68B7
:1012FC0013F4001F5ED03E4AD36843EA0E03D3605A
:10130C004B6813F4003F5BD0394A536843EA0E0331
:10131C0053604B6813F4803F58D0354A136843EA46
:10132C000E0313600CF1010C0A6832FA0CF353D063
:10133C00012303FA0CF302EA030E33EA0202F1D1A1
:10134C004A68122A3FF649AF122A3FF666AF01A54A
:10135C0055F822F00F120008A7120008B11200086D
:10136C00C3120008271200082712000827120008D1
:10137C00271200082712000827120008271200085D
:10138C00271200082712000827120008271200084D
:10139C002712000827120008AB120008B712000829
:1013AC00012395E7022393E7114A936823EA0E037E
:1013BC0093609CE70E4AD36823EA0E03D3609FE741
:1013CC000B4A536823EA0E035360A2E7084A1368DA
:1013DC0023EA0E031360A5E702B070BD00002210D3
:1013EC0000003110001002400000014000080140D4
:1013FC00000401408368194201D00120704700208D
:10140C0070470AB10161704709040161704700001F
:10141C0082B0084B1B68084AA2FB03235B0A00FB43
:10142C0003F3019300BF019B5A1E0192002BF9D1CB
:10143C0002B0704714000020D34D6210002800F059
:10144C00F18170B582B00446036813F0010F2CD003
:10145C00994B5B6803F00C03042B1DD0964B5B6817
:10146C0003F00C03082B12D06368B3F5803F41D016
:10147C00002B55D103F1804303F504331A6822F491
:10148C0080321A601A6822F480221A6037E08A4B84
:10149C005B6813F4803FE7D0874B1B6813F4003F65
:1014AC0003D06368002B00F0BF81236813F0020F98
:1014BC0075D0814B5B6813F00C0F5FD07E4B5B6873
:1014CC0003F00C03082B54D02369002B00F08A8006
:1014DC007A4B01221A60FFF785FD0546764B1B6897
:1014EC0013F0020F75D1FFF77DFD401B0228F5D9D3
:1014FC0003209EE1704A136843F4803313606368E1
:10150C0043B3FFF76FFD05466B4B1B6813F4003FAD
:10151C00CBD1FFF767FD401B6428F5D9032088E188
:10152C00B3F5A02F09D0644B1A6822F480321A60EC
:10153C001A6822F480221A60E1E703F18043A3F5D4
:10154C003C331A6842F480221A601A6842F48032E2
:10155C001A60D4E7FFF746FD0546574B1B6813F49A
:10156C00003FA2D0FFF73EFD401B6428F5D90320B5
:10157C005FE1514B5B6813F4803FA5D14E4B1B6868
:10158C0013F0020F03D02369012B40F04F814A4A1C
:10159C00136823F0F803616943EAC10313602368FD
:1015AC0013F0080F33D0A369002B5CD0434B0122FE
:1015BC00C3F88024FFF716FD05463F4B5B6A13F01A
:1015CC00020F21D1FFF70EFD401B0228F5D9032095
:1015DC002FE1394A136823F0F803616943EAC10328
:1015EC001360DCE7354B00221A60FFF7FBFC054665
:1015FC00314B1B6813F0020FD1D0FFF7F3FC401BEB
:10160C000228F5D9032014E10120FFF701FF23681C
:10161C0013F0040F00F09680274BDB6913F0805F0A
:10162C0034D1254BDA6942F08052DA61DB6903F080
:10163C0080530193019B0125214B1B6813F4807F80
:10164C0026D0E368012B3DD0002B53D103F180430E
:10165C0003F504331A6A22F001021A621A6A22F0A4
:10166C0004021A6233E0154B0022C3F88024FFF702
:10167C00B9FC0546104B5B6A13F0020FC7D0FFF79D
:10168C00B1FC401B0228F5D90320D2E00025D3E79A
:10169C000B4A136843F480731360FFF7A3FC0646F0
:1016AC00074B1B6813F4807FCBD1FFF79BFC801B8F
:1016BC006428F5D90320BCE000100240000042422F
:1016CC00007000405F4A136A43F001031362E36841
:1016DC0033B3FFF787FC06465A4B1B6A13F0020F15
:1016EC002FD1FFF77FFC801B41F288339842F3D94E
:1016FC0003209EE0052B09D0524B1A6A22F00102FE
:10170C001A621A6A22F004021A62E0E74D4B1A6A56
:10171C0042F004021A621A6A42F001021A62D6E717
:10172C00FFF760FC0646474B1B6A13F0020F08D00C
:10173C00FFF758FC801B41F288339842F3D9032001
:10174C0077E0E5B9E369002B72D03E4A526802F0AB
:10175C000C02082A56D0022B17D03B4B00221A66DB
:10176C00FFF740FC0446374B1B6813F0007F47D053
:10177C00FFF738FC001B0228F5D9032059E0314A49
:10178C00D36923F08053D361DCE72F4B00221A6618
:10179C00FFF728FC05462B4B1B6813F0007F06D087
:1017AC00FFF720FC401B0228F5D9032041E0236AF7
:1017BC00B3F5803F1AD023494B6823F47413226A83
:1017CC00606A024313434B601F4B01221A66FFF7FA
:1017DC0009FC04461B4B1B6813F0007F0ED1FFF76E
:1017EC0001FC001B0228F5D9032022E0154A53689E
:1017FC0023F40033A1680B435360DCE7002018E0AE
:10180C00002016E0012B16D00E4B5B6803F48031E0
:10181C00226A914211D103F47013626A93420ED181
:10182C00002006E001207047012002E0012000E0CA
:10183C00002002B070BD0120FBE70120F9E7012078
:10184C00F7E700BF00100240000042420F4B5B68FC
:10185C0003F00C02082A01D00D487047C3F38342F1
:10186C000C49885C13F4803F0BD0084B5B68C3F3C6
:10187C004043094AD35C064A02FB00F0B0FBF3F08C
:10188C007047064B03FB00F0704700BF001002408E
:10189C0000127A00F8390008083A000800093D00E7
:1018AC00002800F0A08070B50D460446524B1B6812
:1018BC0003F007038B420BD24F4A136823F0070344
:1018CC000B431360136803F007038B4240F08D80C9
:1018DC00236813F0020F17D013F0040F04D0474AFB
:1018EC00536843F4E0635360236813F0080F04D08B
:1018FC00424A536843F460535360404A536823F0A0
:10190C00F003A1680B435360236813F0010F31D02F
:10191C006368012B20D0022B25D0384A126812F0B4
:10192C00020F64D035494A6822F0030213434B601E
:10193C00FFF758FB0646314B5B6803F00C036268FB
:10194C00B3EB820F16D0FFF74DFB801B41F28833AF
:10195C009842F0D9032045E0284A126812F4003F5F
:10196C00E0D101203EE0254A126812F0007FD9D167
:10197C00012037E0204B1B6803F00703AB420AD968
:10198C001D4A136823F007032B431360136803F0FD
:10199C000703AB422DD1236813F0040F06D0174A6E
:1019AC00536823F4E063E1680B435360236813F03E
:1019BC00080F07D0114A536823F46053216943EA96
:1019CC00C1035360FFF742FF0C4B5B68C3F3031377
:1019DC000B4AD35CD8400B4B18600B4B1868FFF7C5
:1019EC00BDFA002070BD012070470120FAE70120EC
:1019FC00F8E70120F6E700BF00200240001002408B
:101A0C00E0390008140000201C000020014B18686D
:101A1C00704700BF1400002008B5FFF7F7FF044B18
:101A2C005B68C3F30223034AD35CD84008BD00BFF4
:101A3C0000100240F039000808B5FFF7E7FF044B2F
:101A4C005B68C3F3C223034AD35CD84008BD00BF14
:101A5C0000100240F039000870B4036A026A22F0E8
:101A6C00010202624668826922F073020C6844EA41
:101A7C00020523F002028B6813430D4CA04209D0DF
:101A8C000B4CA0420DD0466085614A6842630362EC
:101A9C0070BC704723F00803CA68134323F0040397
:101AAC00EEE726F440764A6932438E691643EAE73C
:101ABC00002C014030B4036A026A22F48072026284
:101ACC004568C26922F073020C68224323F4007348
:101ADC008C6843EA04230F4CA04209D00D4CA04261
:101AEC000ED04560C2614A68C263036230BC704765
:101AFC0023F40063CC6843EA042323F48063EDE70A
:101B0C0025F440554C6945EA04158C6945EA0415E1
:101B1C00E7E700BF002C014030B4036A026A22F4EC
:101B2C00805202624468C26922F4E6420D6842EABD
:101B3C00052223F400538D6843EA0533074DA84270
:101B4C0006D04460C2614A680264036230BC7047CC
:101B5C0024F480444D6944EA8514F2E7002C0140DA
:101B6C0010B4036A046A24F001040462846924F04A
:101B7C00F00C4CEA021223F00A030B43826103625D
:101B8C0010BC704710B4036A046A24F01004046299
:101B9C00846924F4704C4CEA023223F0A00343EA2B
:101BAC0001138261036210BC7047836823F07003D9
:101BBC000B4343F0070383607047704703681B4A6D
:101BCC0090420AD0B0F1804F07D0A2F594329042E7
:101BDC0003D002F58062904203D123F070034A686F
:101BEC001343124A90420AD0B0F1804F07D0A2F5AD
:101BFC009432904203D002F58062904203D123F4D8
:101C0C004073CA68134323F080034A69134303608B
:101C1C008B68C3620B688362044B984202D0012329
:101C2C00436170470B690363F9E700BF002C014067
:101C3C0040B310B5044690F83D30F3B1022384F85C
:101C4C003D30214651F8040BFFF7B8FF012384F80F
:101C5C00463084F83E3084F83F3084F8403084F8C5
:101C6C00413084F8423084F8433084F8443084F8AE
:101C7C00453084F83D30002010BD80F83C30FEF734
:101C8C00FBFEDBE70120704740B310B5044690F82B
:101C9C003D30F3B1022384F83D30214651F8040B5A
:101CAC00FFF78CFF012384F8463084F83E3084F82B
:101CBC003F3084F8403084F8413084F8423084F866
:101CCC00433084F8443084F8453084F83D300020AB
:101CDC0010BD80F83C30FFF770FFDBE70120704748
:101CEC0030B4036A026A22F010020262446882690C
:101CFC0022F4E6420D6842EA052223F020038D68A7
:101D0C0043EA05130E4DA84209D00D4DA8420ED042
:101D1C00446082614A688263036230BC704723F07E
:101D2C008003CD6843EA051323F04003EDE724F468
:101D3C0040644D6944EA85048D6944EA8504E7E70B
:101D4C00002C014038B590F83C30012B66D004468D
:101D5C000D46012380F83C300C2A5AD8DFE802F0FB
:101D6C00075959591B595959305959594400006848
:101D7C00FFF772FE2268936943F0080393612268AF
:101D8C00936923F0040393612268936929690B43D7
:101D9C00936100203EE00068FFF7A2FF2268936980
:101DAC0043F4006393612268936923F48063936125
:101DBC0022689369296943EA01239361002029E091
:101DCC000068FFF777FE2268D36943F00803D361FC
:101DDC002268D36923F00403D3612268D36929698B
:101DEC000B43D361002015E00068FFF795FE2268D5
:101DFC00D36943F40063D3612268D36923F480630D
:101E0C00D3612268D369296943EA0123D361002095
:101E1C0000E00120002384F83C3038BD0220FCE7B0
:101E2C0010B4846824F47F4C42EA03220A4342EA49
:101E3C000C02826010BC704790F83C30012B78D0BB
:101E4C0010B50446012380F83C30022380F83D3065
:101E5C000268936823F47F4323F0770393600B6845
:101E6C00602B4CD029D8402B54D00CD9502B22D1DC
:101E7C00CA6849680068FFF773FE50212068FFF7B5
:101E8C0094FE002005E0202B0DD009D9302B0AD070
:101E9C000120012384F83D30002384F83C3010BD30
:101EAC000BB1102B05D119462068FFF77EFE0020E0
:101EBC00EFE70120EDE70120EBE7B3F5805F34D0CD
:101ECC00B3F5005F0CD1CB684A6889680068FFF7EE
:101EDC00A7FF2268936843F4804393600020D8E7FF
:101EEC00702B24D1CB684A6889680068FFF798FF8B
:101EFC002268936843F0770393600020C9E7CA68AF
:101F0C0049680068FFF73EFE60212068FFF74DFE30
:101F1C000020BEE7CA6849680068FFF721FE40212F
:101F2C002068FFF742FE0020B3E70020B1E7012054
:101F3C00AFE70220704701F01F01012303FA01FCF7
:101F4C00036A23EA0C030362036A02FA01F10B43EE
:101F5C000362704710B50446084651BB94F83E30F6
:101F6C00DBB2013B18BF0123002B5BD1002839D118
:101F7C00022384F83E30012201462068FFF7DBFF84
:101F8C0023682A4A93423DD02368284A93423ED084
:101F9C00B3F1804F3BD0A2F59432934237D002F587
:101FAC008062934233D01A6842F001021A6000201A
:101FBC0039E0042908D008290DD094F84130DBB25F
:101FCC00013B18BF0123CFE794F83F30DBB2013B54
:101FDC0018BF0123C8E794F84030DBB2013B18BFAF
:101FEC000123C1E7042805D0082807D0022384F870
:101FFC004130C0E7022384F83F30BCE7022384F869
:10200C004030B8E75A6C42F400425A64BCE79A6814
:10201C0002F00702062A07D01A6842F001021A6081
:10202C00002000E0012010BD0020FCE7002C014046
:10203C0090F83C30012B2CD010B4012380F83C30AC
:10204C00022380F83D3003685A689C6822F0700CBB
:10205C000A6842EA0C025A6003680F4A93420AD09B
:10206C00B3F1804F07D0A2F59432934203D002F51E
:10207C008062934204D124F080044A6814439C602B
:10208C00012380F83D30002380F83C30184610BC0A
:10209C0070470220704700BF002C0140026802F11B
:1020AC000C0353E8003F23F490730C3242E80031E8
:1020BC000029F3D1026802F1140353E8003F23F026
:1020CC000103143242E800310029F3D1036B012BD8
:1020DC0005D0202380F84230002303637047026848
:1020EC0002F10C0353E8003F23F010030C3242E8DA
:1020FC0000310029F3D1ECE790F84130DBB2212B11
:10210C0001D0022070478368B3F5805F17D0036A53
:10211C005A1C02621A7803685A60C38C9BB2013B4A
:10212C009BB2C3844BB90268D36823F08003D3609D
:10213C000268D36843F04003D36000207047036902
:10214C00002BE4D1036A1B880268C3F308035360B5
:10215C00036A02330362E0E710B5044602681369B0
:10216C0023F44053C1680B43136183680269134322
:10217C0042691A430168CB6823F4B05323F00C0373
:10218C001343CB600268536923F4407381690B439A
:10219C0053610268134B9A4220D0FFF73DFC024674
:1021AC0002EB820202EB820263689B00B2FBF3F249
:1021BC000D48A0FB02314909642303FB11231B01C9
:1021CC003233A0FB03235B0903F0F00202EB011294
:1021DC0003F00F03216813448B6010BDFFF72CFC38
:1021EC000246DDE7003801401F85EB512DE9F8432D
:1021FC0005460F4616469946DDF820802C68246863
:10220C0037EA04030CBF4FF0010C4FF0000CB4453F
:10221C002DD1B8F1FF3FF1D0B8F1000F05D0FEF78A
:10222C00E1FEA0EB09004045E8D92A6802F10C0355
:10223C0053E8003F23F4D0730C3242E800310029FC
:10224C00F3D12A6802F1140353E8003F23F0010391
:10225C00143242E800310029F3D1202385F84130B3
:10226C0085F84230002385F84030032000E0002040
:10227C00BDE8F88360B310B5044690F8413013B351
:10228C00242384F841302268D36823F40053D360AC
:10229C002046FFF761FF2268136923F49043136112
:1022AC002268536923F02A0353612268D36843F4EC
:1022BC000053D36000206064202384F8413084F8FC
:1022CC004230606310BD80F84030FEF771FDD7E7F7
:1022DC00012070472DE9F04182B01E4690F8413044
:1022EC00DBB2202B4BD104460D46904600294AD038
:1022FC000AB9012044E000234364212380F84130D3
:10230C00FEF770FE0746A4F82480A4F82680A36884
:10231C00B3F5805F02D04FF000080FE02369FBB1EA
:10232C004FF000080AE038F8023B2268C3F30803B8
:10233C005360E28C92B2013A92B2E284E38C9BB28B
:10234C008BB100963B46002280212046FFF74EFFC2
:10235C00D8B9002DE7D015F8012B23685A60E8E7AF
:10236C00A8460025EAE700963B460022402120467D
:10237C00FFF73CFF58B9202384F8413000E00220DD
:10238C0002B0BDE8F0810120FAE70320F8E7032052
:10239C00F6E72DE9F04182B01E4690F84230DBB2F0
:1023AC00202B53D104460D469046002952D00AB931
:1023BC0001204CE000234364222280F84220036376
:1023CC00FEF710FE0746A4F82C80A4F82E80A36814
:1023DC00B3F5805F02D04FF0000817E0236913B10A
:1023EC004FF0000812E0A84600250FE023685B6858
:1023FC00C3F3080328F8023B03E023685B682B70E7
:10240C000135E28D92B2013A92B2E285E38D9BB234
:10241C00BBB100963B46002220212046FFF7E6FE8A
:10242C00D0B9002DE2D0A368B3F5805FE5D013B925
:10243C002369002BE1D023685B6803F07F032B70CA
:10244C00DEE7202384F84230002000E0022002B0B6
:10245C00BDE8F0810120FAE70320F8E7704708B5E2
:10246C000168CA6822F04002CA60202280F841202C
:10247C00FFF7F4FF002008BD704708B5406A002341
:10248C00C385C384FFF7F8FF08BD704790F842304E
:10249C00DBB2222B69D18368B3F5805F4FD0826A9F
:1024AC00B3F5805F04D0002B56D10369002B53D1B8
:1024BC0003685B681370836A01338362C38D9BB2BC
:1024CC00013B9BB2C385002B51D100B583B0026890
:1024DC00D36823F02003D3600268D36823F480739D
:1024EC00D3600268536923F001035361202380F801
:1024FC00423000234363036B012B33D1002303636E
:10250C00026802F10C0353E8003F23F010030C3275
:10251C0042E800310029F3D103681A6812F0100F59
:10252C0006D0002201921A6801925B680193019B0C
:10253C00818DFFF7AAFF002003B05DF804FB026950
:10254C00002AACD1826A03685B68C3F3080313806A
:10255C00836A02338362B1E703685B6803F07F032D
:10256C001370A8E7FEF7B4FCE5E7022070470020E3
:10257C007047000030B583B0044602681368D06819
:10258C00516913F00F0505D113F0200F02D010F094
:10259C00200F19D12DB111F0010119D110F4907F38
:1025AC0016D1216B01297DD013F0800F03D010F0D0
:1025BC00800F40F0188113F0400F03D010F0400F43
:1025CC0040F0158103B030BD2046FFF75FFFF9E7FF
:1025DC0013F0010F06D010F4807F03D0626C42F030
:1025EC000102626413F0040F04D019B1626C42F062
:1025FC000202626413F0020F04D019B1626C42F053
:10260C000402626413F0080F07D010F0200F00D101
:10261C0019B1626C42F008026264626C002AD1D07B
:10262C0013F0200F02D010F0200F29D123685B6922
:10263C0003F04003626C12F0080F00D163B3204624
:10264C00FFF72CFD23685B6913F0400F20D0226844
:10265C0002F1140353E8003F23F04003143242E824
:10266C0000310029F3D1E36B73B1634A5A63E06B19
:10267C00FEF762FD0028A5D0E06B436B9847A1E7FD
:10268C002046FFF703FFD1E72046FFF7F5FE99E759
:10269C002046FFF7F1FE95E72046FFF7EDFE0023FD
:1026AC0063648FE713F0100F3FF47EAF10F0100F40
:1026BC003FF47AAF0023019313680193536801939D
:1026CC00019B536913F0400F51D0E26B13685B68A8
:1026DC009BB2002B3FF476AFA18D99427FF672AF7F
:1026EC00E3859369202B37D0226802F10C0353E861
:1026FC00003F23F480730C3242E800310029F3D1FF
:10270C00226802F1140353E8003F23F00103143252
:10271C0042E800310029F3D1226802F1140353E896
:10272C00003F23F04003143242E800310029F3D17A
:10273C00202384F8423000232363226802F10C0327
:10274C0053E8003F23F010030C3242E8003100291B
:10275C00F3D1E06BFEF7CCFC02236363A18DE38D18
:10276C009BB2C91A89B22046FFF78FFE2AE7A18DCA
:10277C00E38D9BB2C91A89B2E38D9BB2002B3FF457
:10278C0021AF00293FF41EAF226802F10C0353E87D
:10279C00003F23F490730C3242E800300028F3D150
:1027AC00226802F1140353E8003F23F001031432B2
:1027BC0042E800300028F3D1202384F84230002373
:1027CC002363226802F10C0353E8003F23F010034B
:1027DC000C3242E800300028F3D102236363204618
:1027EC00FFF753FEEEE62046FFF786FCEAE62046AE
:1027FC00FFF735FEE6E600BF87240008816282857C
:10280C00C28500234364222380F84230036923B13C
:10281C000268D36843F48073D3600268536943F051
:10282C00010353610268D36843F02003D360002096
:10283C00704708B590F84230DBB2202B08D149B173
:10284C000AB9012008BD00230363FFF7D7FFF9E79E
:10285C000220F7E70120F5E7014B1868704700BF2D
:10286C002000002070B50D4E0D4D761BB61006D015
:10287C00002455F8043B01349847A642F9D1094E7F
:10288C00094D01F093F8761BB61006D0002455F8CC
:10289C00043B01349847A642F9D170BD103A0008A8
:1028AC00103A0008183A0008103A0008830730B5AF
:1028BC0048D0541E002A3FD00346CAB201E0013C66
:1028CC003AD303F8012B9D07F9D1032C2DD9CDB2A6
:1028DC0045EA05250F2C45EA054536D9A4F1100229
:1028EC0022F00F0C03F1200EE6444FEA121C03F108
:1028FC00100242E9045542E9025510327245F8D1F2
:10290C000CF1010214F00C0F03EB021204F00F0C8B
:10291C0013D0ACF1040323F003030433134442F843
:10292C00045B9342FBD10CF003042CB1CAB21C44DF
:10293C0003F8012B9C42FBD130BD64461346002C9E
:10294C00F4D1F9E703461446BFE71A46A446E0E77C
:10295C002DE9F043694C0E46D4F800801746044626
:10296C001D4683B0B8F1000F03D0D8F83830002BD7
:10297C0077D0022F05D0012F00F2AC80002DC0F2D1
:10298C00A980636EDA0752D52146404600F05AF909
:10299C00216B41B104F14003994202D0404600F052
:1029AC007DFA002323630023B4F90CC0A3611CF04F
:1029BC00800F636064D12CF44A6C2CF0030C022F52
:1029CC00A4F80CC06AD001AB214640466A4600F020
:1029DC0091FBA3891843A081002D2FD0002E2ED05F
:1029EC00D8F83830002B38D0009BC4E90465AB42D2
:1029FC00B4F90C3026601CBF43F40063A381012F93
:102A0C0004BF43F00103A3819AB213F008032CD046
:102A1C00D1075DD500216D42A561656EA16015F0F1
:102A2C00010527D00025284603B0BDE8F083A38913
:102A3C009B05A9D4A06D00F059FBA5E7009D284685
:102A4C0000F088FB0646002847D0A38943F080039A
:102A5C00A381D8F83830002BC6D1404600F026F9B7
:102A6C00C2E7404600F022F983E7A360656E15F0DB
:102A7C000105D7D1930524D5284603B0BDE8F083D2
:102A8C004046216900F00AFAB4F90CC0022F2CF46C
:102A9C004A6C2CF0030CA4F80CC094D10025002136
:102AAC00012204F1430323602361636E4CF0020C9A
:102ABC00D807A4F80CC0A1606261DDD41CF4007FBF
:102ACC00DAD1A06D00F014FB284603B0BDE8F0830A
:102ADC00A560CBE74FF0FF35CEE7DDF80090A945B8
:102AEC0004D0484600F036FB064620B94FF0FF35BF
:102AFC00B4F90CC0D3E74D46A7E700BF2000002077
:102B0C00024B13B1024800F005B8704700000000FA
:102B1C00DD2D0008002301461A46184600F048BE79
:102B2C00B1F90C20F8B50C461107074643D463687D
:102B3C0042F40062002BA2815BDDA56A002D56D009
:102B4C0000233E683B6093B212F4805255D10123AE
:102B5C003846E169A847421C65D0A389A56A5B0782
:102B6C0005D56368C01A236B0BB1E36BC01A024620
:102B7C00E16900233846A847411C40D13B68002B33
:102B8C003DD01D2B01D0162B54D10022A38923F448
:102B9C000063A3812369C4E90032216B3E6031B329
:102BAC0004F14003994202D0384600F077F9002333
:102BBC0018462363F8BD2669CEB193B29A0718BFA5
:102BCC000023256808BF63692660AD1BA3600CE079
:102BDC002B463246D4F824C03846E169E047B0F1C0
:102BEC00000CA5EB0C05664416DD002DF0DC002076
:102BFC00F8BDE36B002BA0DCF9E7206DAFE70022FA
:102C0C00B4F90C30626023F400632269A381DB0405
:102C1C002260C2D52065C0E7A3894FF0FF3043F096
:102C2C004003A381F8BD3B68002B96D01D2B06D02A
:102C3C00162B04D0A38943F04003A381F8BD0020D8
:102C4C003E60F8BD38B505460C4608B1836BA3B1A0
:102C5C00B4F90C00B8B1636EDB0701D4810515D54E
:102C6C0028462146FFF75CFF636E0546DA0702D45F
:102C7C00A3899B050ED5284638BD00F017F8B4F98A
:102C8C000C000028E7D10546284638BDA06D00F0A1
:102C9C002DFAE5E7A06D00F02BFA284638BD00BFF1
:102CAC00014900F0FBB900BF6D3800082DE9F04771
:102CBC008246394800F01AFADAF83840002C66D10E
:102CCC00042303223549DAF80450CAF83C10DFF823
:102CDC00D090DFF8D080344F344E0AF53B71CAE9FE
:102CEC00B921CAF8E0422146EB600822C5E900444C
:102CFC00C5E904446C66AC60AC6105F15C00FFF79F
:102D0C00D5FDC5E90759C5E90987EE6205F15800FB
:102D1C0000F0E8F9DAF80850254B2146EB60082260
:102D2C00C5E90044C5E904446C66AC60AC6105F1CE
:102D3C005C00FFF7BBFDC5E90759C5E90987EE62E1
:102D4C0005F1580000F0CEF9DAF80C50194B214679
:102D5C00EB600822C5E90044C5E904446C66AC602C
:102D6C00AC6105F15C00FFF7A1FD05F15800C5E968
:102D7C000759C5E90A76C5F8248000F0B3F9012398
:102D8C000548CAF83830BDE8F04700F0B1B9024840
:102D9C00BDE8F04700F0ACB9A8090020AD2C000844
:102DAC0005370008293700086937000889370008FB
:102DBC000900010012000200014800F097B900BFA1
:102DCC00A4090020014800F093B900BFA409002019
:102DDC0038B5084B084D5B1B9C1007D0043B1D44B9
:102DEC00013C55F804399847002CF9D1BDE838401E
:102DFC0000F0E2BD1C3A0008183A0008F8B50C4681
:102E0C00234F064600F05AFCBB685D68C4F57E6330
:102E1C0025F003050F332B4423F47F6323F00F03BA
:102E2C00A3F58054B4F5805F07DB0021304600F039
:102E3C0051FCBB682B44984204D0304600F044FC53
:102E4C000020F8BD3046614200F044FC01300DD04A
:102E5C00104ABB682D1B45F001055D6013683046B8
:102E6C001B1B136000F030FC0120F8BD0021304624
:102E7C0000F030FCBA68831A0F2BDEDD43F001033F
:102E8C005360054B03491B68C01A0860D5E700BFA7
:102E9C0054040020AC0900205C08002000295ED0FE
:102EAC00F8B50C46064600F009FC54F8042C784F93
:102EBC00A4F1080522F001016818D7F808C043688E
:102ECC00844523F0030300F08780D207436034D499
:102EDC0054F8082C07F10804AD1A1144AA68A24250
:102EEC0068D000EB030CDCF804E0D5F80CC01EF045
:102EFC00010FC2F80CC0CCF8082000F0918041F012
:102F0C0001036B600160B1F5007F31D24A09CB0837
:102F1C00012191407A6801331143796007EBC302B8
:102F2C0057F83310083AC5E9021247F83350CD6010
:102F3C003046BDE8F84000F0C7BBC2185268D20753
:102F4C000ED4194407F108048368A34270D0C268F8
:102F5C00DA60936041F001036B606950D3E770470E
:102F6C0041F00103B1F5007F44F8043C0160CDD37E
:102F7C00B1F5206F4FEA512347D28B0903F1390089
:102F8C0003F13802C300F818FB580838984258D09F
:102F9C005A6822F003028A4202D99B689842F7D100
:102FAC00D868C5E9023085603046DD60BDE8F84080
:102FBC0000F08ABBC2185268D20763D40B44D0E924
:102FCC000212CA60916043F001026A603046EB5015
:102FDC00BDE8F84000F078BB0B44D10707D454F897
:102FEC00082CAD1A1344D5E90212CA60916043F063
:102FFC0001026A60274ABD6012689A4298D8264B33
:10300C0030461968FFF7FAFE92E7142B0AD9542BB5
:10301C001FD80B0B03F16F0003F16E02C300B2E774
:10302C00194491E703F15C0003F15B02C300AAE7CA
:10303C0041F00103C7E90455C5E902446B606950CE
:10304C0076E70121921001FA02F279680A437A605C
:10305C00A7E7B3F5AA7F06D8CB0B03F1780003F1F1
:10306C007702C3008FE740F25452934206D88B0C80
:10307C0003F17D0003F17C02C30084E74FF47E73FF
:10308C007E2280E741F001036B60016050E700BFD6
:10309C005404002060080020DC0900202DE9F843CE
:1030AC004FF000090746884600F53876D6E90154FA
:1030BC00013D10D4A389013D012B08D9B4F90E3080
:1030CC00013304D021463846C04749EA00096B1C3D
:1030DC0004F16804EED13668002EE7D14846BDE80D
:1030EC00F88300BF704700BF704700BF704700BF38
:1030FC00704700BF70B50C46B1F90E10154600298B
:10310C001E4696B014DB6A4600F010FC00280FDB5C
:10311C00019A4FF4806302F47042A2F50052B2FAA5
:10312C0082F24FF40060520932602B6016B070BD11
:10313C000023B4F90C10336011F0800004D040224D
:10314C0018462A6016B070BD4FF480632B6016B021
:10315C0070BD00BF024B0146186800F003B800BFF9
:10316C00200000202DE9F04F01F10B05162D06462D
:10317C0083B025D8102900F2B88000F09FFA1025F2
:10318C0018224FF0020CB54F3A445368A2F10801D3
:10319C008B4200F0B7805A68D96822F003021A44B7
:1031AC009C683046E1608C60516803F1080441F082
:1031BC000101516000F088FA204603B0BDE8F08FA1
:1031CC0035F0070500F19180A94200F28E8000F0E5
:1031DC0075FAB5F5FC7FC0F094816B0A00F08C8019
:1031EC00042B00F26A81AB0903F1390C03F13804AA
:1031FC004FEACC00994F384443680838984206D1BE
:10320C000CE0002980F22681DB68984206D05A68CF
:10321C0022F00302511B0F29F3DDA4463C69DFF8B1
:10322C0040E274457AD0626822F00302531B0F2BE4
:10323C0000F37681002BC7E904EE80F26781B2F5CA
:10324C00007F80F019810121D30852090B44914071
:10325C007A6857F833000A4307EBC3010839A060BA
:10326C00E1607A6047F83340C46001214FEAAC0357
:10327C009940914259D8114206D12CF0030C4900C7
:10328C0011420CF1040CFAD007EBCC094846644609
:10329C00D0F80C80404508D11CE1002B80F2218134
:1032AC00D8F80C80404500F01581D8F8042022F0A5
:1032BC000302531B0F2BF0DD08EB050145F0010554
:1032CC00C8F804503046D8E90264F460A66043F0B4
:1032DC000104C7E904114C60C1E902EE48F8023060
:1032EC0000F0F2F908F1080402E00C23002433602A
:1032FC00204603B0BDE8F08F4FF400704FF0400C47
:10330C003F2477E7D3689A4208BF0CF1020C7FF494
:10331C0042AF3C69DFF848E1744584D101217A68F9
:10332C004FEAAC0399409142A5D9BC68636823F07D
:10333C0003094D4503D8A9EB05030F2B7ADCDFF805
:10334C0024B1494BDBF800201B6801322B4404EB01
:10335C00090A00F02F8103F580530F3323F47F68A3
:10336C0028F00F084146304600F0B4F9411C0246E3
:10337C0000F0EF80824500F2EA803C4B1968414432
:10338C000846196000F04981DBF800100193013107
:10339C001BBFA2EB0A0A5044CBF80020186012F0B5
:1033AC00070B00F01181CBF108010A44CBF58051D9
:1033BC0090440831A1EB0801C1F30B0A5146304689
:1033CC00009200F087F9421CDDE9002300F04B81EC
:1033DC00801A00EB0A08196848F001005144BC42FD
:1033EC00BA601960506000F02481B9F10F0F40F2FF
:1033FC0022814FF0050E6068A9F10C0C2CF0070C23
:10340C0000F0010040EA0C006060BCF10F0F04EB0F
:10341C000C00C0E901EE00F22E8114465068144BEA
:10342C001A688A4238BF1960124B1A688A4238BF30
:10343C00196090E0621943F0010345F001056560E5
:10344C003046BA600834536000F03EF9204603B0B1
:10345C00BDE8F08FD9681A44A2E600BF54040020DE
:10346C005C0400205C080020DC090020AC09002072
:10347C00D4090020D8090020B2F5206F4FEA52235E
:10348C005FD3142B00F2B18003F15C01C9005B33F4
:10349C00781879580838884200F08F804B6823F0F0
:1034AC000303934202D989688842F7D1C8687A68C5
:1034BC00C4E902108460CC60D7E6142B59D9542B84
:1034CC0000F29B802B0B03F16F0C03F16E044FEA9F
:1034DC00CC008FE60134A30700F108007FF4D8AECE
:1034EC0053E0444642445368D8F80C1043F00103AF
:1034FC00536054F8083F3046D9608B6000F0E4F814
:10350C00F6E64FEAD50C05F108023CE62244536876
:10351C00304643F00103536000F0D6F80834E7E678
:10352C00611945F00105656043F00105C7E9041117
:10353C003046C1E902EE4D60A35000F0C5F80834E6
:10354C00D6E6930903F13901C9003833A0E7BC4230
:10355C005ED0BC68606820F003084545A8EB050305
:10356C0002D80F2B3FF766AF304600F0ADF80024C1
:10357C00BEE603F15C0C03F15B044FEACC0039E6C8
:10358C0059F808394B4540F095801CF0030F0CF1AD
:10359C00FF3CF5D17B6823EA01037B60490099422B
:1035AC003FF6C3AE11B9C0E6490004341942FBD052
:1035BC00A44669E603F11008D4E601229B109A4058
:1035CC007B681A437A6073E702EB08014942C1F346
:1035DC000B0A51463046009200F07CF8431CDDE9A2
:1035EC0000237FF4F5AEDA46F5E6542B26D8130B00
:1035FC0003F16F01C9006E334AE7B3F5AA7F26D8F1
:10360C00EB0B03F1780C03F177044FEACC00F1E5F6
:10361C00294B186840441860B6E6CAF30B0CBCF191
:10362C00000F7FF4B1AEBC68C84448F00100606084
:10363C00F5E61446F3E60123536095E7B3F5AA7F4C
:10364C0024D8D30B03F17801C900773320E740F27B
:10365C005452934224D8AB0C03F17D0C03F17C043F
:10366C004FEACC00C6E5ABF1080BD8444FF0000A8A
:10367C00A8EB0208AFE604F1080130460093FFF70F
:10368C000DFCBC68009B60681968C8E640F2545198
:10369C008B420BD8930C03F17D01C9007C33F7E608
:1036AC004FF47E704FF07F0C7E24A3E54FF47E71B7
:1036BC007E23EDE67B6871E7AC0900200148FFF73B
:1036CC0015BD00BFA00900200148FFF711BD00BFC8
:1036DC00A0090020002238B5064D044608462A6091
:1036EC00FDF7A4F9431C00D038BD2B68002BFBD090
:1036FC00236038BDE009002010B50C46B1F90E105E
:10370C0000F03EF9002803DB236D0344236510BD54
:10371C00A38923F48053A38110BD00BF2DE9F04190
:10372C000C46B1F90C101F46CB05054616460BD4BA
:10373C0021F48051A1813B4632462846B4F90E1043
:10374C00BDE8F04100F01EB8B4F90E1002230022BF
:10375C0000F000F9B4F90C10EAE700BF10B50C4604
:10376C00B1F90E1000F0F6F8A389421C0EBF23F439
:10377C00805343F480532065A38110BDB1F90E1022
:10378C0000F05CB838B50C46114600228446074D53
:10379C0020462A601A466446FDF7BEF8431C00D04A
:1037AC0038BD2B68002BFBD0236038BDE00900200E
:1037BC002DE9F047DFF87CA00646DAF800009846C1
:1037CC000F469146FFF792FC1B4B1B68D3F8484100
:1037DC0024B365681F2D26DC5EB96B1C0235DAF844
:1037EC000000636044F82570FFF782FC0020BDE800
:1037FC00F087012304EB8501C1F88890D4F8882167
:10380C00AB401A43022EC4F88821C1F80881E4D1D8
:10381C00D4F88C211343C4F88C31DEE703F5A6747D
:10382C00C3F84841D5E7DAF80000FFF761FC4FF028
:10383C00FF30DCE7500400200C3A0008002238B5B9
:10384C00064D044608462A60FDF780F8431C00D05C
:10385C0038BD2B68002BFBD0236038BDE00900205D
:10386C0070B500294BD006460C4610B1836B002B6B
:10387C0048D0636ED80734D5B4F90C30002B3ED049
:10388C0021463046FFF74CF9E36A054633B1304622
:10389C00E16998470028B8BF4FF0FF35A3891A0695
:1038AC003BD4216B41B104F14003994202D0304624
:1038BC00FFF7F4FA00232363616C21B13046FFF764
:1038CC00EDFA00236364FFF777FA0022636EA2819E
:1038DC00DB0727D5A06DFFF707FCFFF773FA284627
:1038EC0070BDA3899905CBD4A06DFFF7FFFBB4F98C
:1038FC000C30002BC4D1656E15F0010508D00025E5
:10390C00284670BDFFF7D2F9636ED807B4D4E8E748
:10391C00A06DFFF7EDFB284670BD30462169FFF71F
:10392C00BDFABEE7A06DFFF7E3FBD3E770B5002649
:10393C00074D0446084611462E60FDF733F8431C2C
:10394C0000D070BD2B68002BFBD0236070BD00BF76
:10395C00E009002038B50C46114600228446074D7C
:10396C0020462A601A466446FCF7FCFF431C00D034
:10397C0038BD2B68002BFBD0236038BDE00900203C
:10398C0038B50C46114600228446074D20462A6065
:10399C001A466446FCF7EEFF431C00D038BD2B687A
:1039AC00002BFBD0236038BDE0090020F8B500BF28
:1039BC00F8BC08BC9E467047F8B500BFF8BC08BC04
:0439CC009E4670475C
:1039D00052696768740000004C656674000000005E
:1039E00000000000000000000102030406070809AF
:1039F0000000000001020304020304050607080991
:103A00000A0B0C0D0E0F1010010200002800002000
:083A10000D2B00083101000834
:043A18000D01000894
:103A1C0046000000F50000000C0000000100000052
:103A2C00010000000024F400010000001000000060
:103A3C0028000020000000000000000014030020FB
:103A4C007C030020E40300200000000000000000C4
:103A5C00000000000000000000000000000000005A
:103A6C00000000000000000000000000000000004A
:103A7C00000000000000000000000000000000003A
:103A8C00000000000000000000000000000000002A
:103A9C00000000000000000000000000000000001A
:103AAC00000000000000000000000000000000000A
:103ABC0000000000000000000000000000000000FA
:103ACC0000000000000000000000000000000000EA
:103ADC0000000000000000000000000000000000DA
:103AEC0001000000000000000E33CDAB34126DE677
:103AFC00ECDE05000B0000000000000000000000E0
:103B0C0000000000000000000000000000000000A9
:103B1C000000000000000000000000000000000099
:103B2C000000000000000000000000000000000089
:103B3C000000000000000000000000000000000079
:103E6C009C09002000000000000000005404002009
:103E7C00540400205C0400205C0400206404002036
:103E8C00640400206C0400206C04002074040020E6
:103E9C00740400207C0400207C0400208404002096
:103EAC00840400208C0400208C0400209404002046
:103EBC00940400209C0400209C040020A4040020F6
:103ECC00A4040020AC040020AC040020B4040020A6
:103EDC00B4040020BC040020BC040020C404002056
:103EEC00C4040020CC040020CC040020D404002006
:103EFC00D4040020DC040020DC040020E4040020B6
:103F0C00E4040020EC040020EC040020F404002065
:103F1C00F4040020FC040020FC0400200405002014
:103F2C00040500200C0500200C05002014050020C1
:103F3C00140500201C0500201C0500202405002071
:103F4C00240500202C0500202C0500203405002021
:103F5C00340500203C0500203C05002044050020D1
:103F6C00440500204C0500204C0500205405002081
:103F7C00540500205C0500205C0500206405002031
:103F8C00640500206C0500206C05002074050020E1
:103F9C00740500207C0500207C0500208405002091
:103FAC00840500208C0500208C0500209405002041
:103FBC00940500209C0500209C050020A4050020F1
:103FCC00A4050020AC050020AC050020B4050020A1
:103FDC00B4050020BC050020BC050020C405002051
:103FEC00C4050020CC050020CC050020D405002001
:103FFC00D4050020DC050020DC050020E4050020B1
:10400C00E4050020EC050020EC050020F405002060
:10401C00F4050020FC050020FC050020040600200F
:10402C00040600200C0600200C06002014060020BC
:10403C00140600201C0600201C060020240600206C
:10404C00240600202C0600202C060020340600201C
:10405C00340600203C0600203C06002044060020CC
:10406C00440600204C0600204C060020540600207C
:10407C00540600205C0600205C060020640600202C
:10408C00640600206C0600206C06002074060020DC
:10409C00740600207C0600207C060020840600208C
:1040AC00840600208C0600208C060020940600203C
:1040BC00940600209C0600209C060020A4060020EC
:1040CC00A4060020AC060020AC060020B40600209C
:1040DC00B4060020BC060020BC060020C40600204C
:1040EC00C4060020CC060020CC060020D4060020FC
:1040FC00D4060020DC060020DC060020E4060020AC
:10410C00E4060020EC060020EC060020F40600205B
:10411C00F4060020FC060020FC060020040700200A
:10412C00040700200C0700200C07002014070020B7
:10413C00140700201C0700201C0700202407002067
:10414C00240700202C0700202C0700203407002017
:10415C00340700203C0700203C07002044070020C7
:10416C00440700204C0700204C0700205407002077
:10417C00540700205C0700205C0700206407002027
:10418C00640700206C0700206C07002074070020D7
:10419C00740700207C0700207C0700208407002087
:1041AC00840700208C0700208C0700209407002037
:1041BC00940700209C0700209C070020A4070020E7
:1041CC00A4070020AC070020AC070020B407002097
:1041DC00B4070020BC070020BC070020C407002047
:1041EC00C4070020CC070020CC070020D4070020F7
:1041FC00D4070020DC070020DC070020E4070020A7
:10420C00E4070020EC070020EC070020F407002056
:10421C00F4070020FC070020FC0700200408002005
:10422C00040800200C0800200C08002014080020B2
:10423C00140800201C0800201C0800202408002062
:10424C00240800202C0800202C0800203408002012
:10425C00340800203C0800203C08002044080020C2
:10426C00440800204C0800204C080020FFFFFFFFF2
:04427C00000002003C
:0400000508000F1DC3
:00000001FF
