:020000040800F2
:10000000005000204D1900087113000873130008F8
:10001000751300087713000879130008000000002A
:100020000000000000000000000000007B1300083A
:100030007D130008000000007F13000881130008F2
:1000400095190008951900089519000895190008D8
:1000500095190008951900089519000895190008C8
:1000600095190008951900089519000895190008B8
:1000700095190008951900089519000895190008A8
:100080009519000895190008951900089519000898
:100090009519000895190008951900089519000888
:1000A0009519000895190008951900089519000878
:1000B0009519000895190008951900089519000868
:1000C0009519000895190008951900089519000858
:1000D000951900088913000899130008951900085C
:1000E00095190008951900089519000800000000EE
:1000F0000000000000000000000000000000000000
:0C01000000000000000000005FF808F1A3
:1001100010B5054C237833B9044B13B10448AFF341
:1001200000800123237010BDC009002000000000E2
:10013000F094000808B5034B1BB103490348AFF323
:10014000008008BD00000000C4090020F0940008F1
:10015000844641EA000313F0030349D1403A23D314
:100160000B6803604B6843608B688360CB68C36037
:100170000B6903614B6943618B698361CB69C3611F
:100180000B6A03624B6A43628B6A8362CB6AC36207
:100190000B6B03634B6B43638B6B8363CB6BC363EF
:1001A00040304031403ADBD230320BD30B68036031
:1001B0004B6843608B688360CB68C360103010313C
:1001C000103AF3D20C3205D351F8043B40F8043B0B
:1001D000043AF9D2043208D0D2071CBF11F8013B0F
:1001E00000F8013B01D30B8803806046704700BFD5
:1001F000082A13D38B07B1D010F00303AED0C3F19C
:100200000403D21ADB071CBF11F8013B00F8013BC5
:10021000A4D331F8023B20F8023B9FE7043AD9D33C
:10022000013A11F8013B00F8013BF9D20B78037059
:100230004B7843708B7883706046704781F0004143
:1002400002E000BF83F0004330B54FEA41044FEABB
:10025000430594EA050F08BF90EA020F1FBF54EA56
:10026000000C55EA020C7FEA645C7FEA655C00F0F2
:10027000E2804FEA5454D4EB5555B8BF6D420CDDC3
:100280002C4480EA020281EA030382EA000083EA46
:10029000010180EA020281EA0303362D88BF30BDE6
:1002A00011F0004F4FEA01314FF4801C4CEA11313C
:1002B00002D0404261EB410113F0004F4FEA03339B
:1002C0004CEA133302D0524263EB430394EA050F26
:1002D00000F0A780A4F10104D5F1200E0DDB02FA95
:1002E0000EFC22FA05F2801841F1000103FA0EF229
:1002F000801843FA05F359410EE0A5F120050EF1EF
:10030000200E012A03FA0EFC28BF4CF0020C43FA1F
:1003100005F3C01851EBE37101F0004507D54FF02C
:10032000000EDCF1000C7EEB00006EEB0101B1F57C
:10033000801F1BD3B1F5001F0CD349085FEA3000C2
:100340004FEA3C0C04F101044FEA445212F5800FCD
:1003500080F09A80BCF1004F08BF5FEA500C50F16A
:10036000000041EB045141EA050130BD5FEA4C0C4D
:10037000404141EB0101013C28BFB1F5801FE9D2AA
:1003800091F0000F04BF01460020B1FA81F308BFCD
:100390002033A3F10B03B3F120020CDA0C3208DD99
:1003A00002F1140CC2F10C0201FA0CF021FA02F174
:1003B0000CE002F11402D8BFC2F1200C01FA02F1E4
:1003C00020FA0CFCDCBF41EA0C019040E41AA2BF09
:1003D00001EB0451294330BD6FEA04041F3C1CDAD1
:1003E0000C340EDC04F11404C4F1200220FA04F0F1
:1003F00001FA02F340EA030021FA04F345EA03019B
:1004000030BDC4F10C04C4F1200220FA02F001FA5C
:1004100004F340EA0300294630BD21FA04F02946DE
:1004200030BD94F0000F83F4801306BF81F4801177
:100430000134013D4EE77FEA645C18BF7FEA655CEA
:1004400029D094EA050F08BF90EA020F05D054EABC
:10045000000C04BF1946104630BD91EA030F1EBFC1
:100460000021002030BD5FEA545C05D140004941C5
:1004700028BF41F0004130BD14F580043CBF01F5B8
:10048000801130BD01F0004545F0FE4141F470019E
:100490004FF0000030BD7FEA645C1ABF1946104679
:1004A0007FEA655C1CBF0B46024650EA013406BF7A
:1004B00052EA033591EA030F41F4002130BD00BF39
:1004C00090F0000F04BF0021704730B54FF48064F6
:1004D00004F132044FF000054FF0000150E700BF77
:1004E00090F0000F04BF0021704730B54FF48064D6
:1004F00004F1320410F0004548BF40424FF00001C3
:100500003EE700BF42004FEAE2014FEA31014FEA05
:1005100002701FBF12F07F4393F07F4F81F0605154
:10052000704732F07F4208BF704793F07F4F04BF9F
:1005300041F40021704730B54FF4607401F000457C
:1005400021F000411CE700BF50EA010208BF7047DC
:1005500030B54FF000050AE050EA010208BF7047CD
:1005600030B511F0004502D5404261EB41014FF436
:10057000806404F132045FEA915C3FF4D8AE4FF03E
:1005800003025FEADC0C18BF03325FEADC0C18BF21
:10059000033202EBDC02C2F1200300FA03FC20FA72
:1005A00002F001FA03FE40EA0E0021FA02F11444BF
:1005B000BDE600BF70B54FF0FF0C4CF4E06C1CEAD8
:1005C00011541DBF1CEA135594EA0C0F95EA0C0F49
:1005D00000F0DEF82C4481EA030621EA4C5123EABC
:1005E0004C5350EA013518BF52EA033541F48011EB
:1005F00043F4801338D0A0FB02CE4FF00005E1FB9E
:1006000002E506F00042E0FB03E54FF00006E1FBE7
:1006100003569CF0000F18BF4EF0010EA4F1FF042A
:10062000B6F5007F64F5407404D25FEA4E0E6D416A
:1006300046EB060642EAC62141EA55514FEAC5207B
:1006400040EA5E504FEACE2EB4F1FD0C88BFBCF5F7
:10065000E06F1ED8BEF1004F08BF5FEA500E50F1A8
:10066000000041EB045170BD06F0004646EA01016E
:1006700040EA020081EA0301B4EB5C04C2BFD4EBA0
:100680000C0541EA045170BD41F480114FF0000E99
:10069000013C00F3AB8014F1360FDEBF002001F007
:1006A000004170BDC4F10004203C35DA0C341BDC81
:1006B00004F11404C4F1200500FA05F320FA04F053
:1006C00001FA05F240EA020001F0004221F0004187
:1006D00010EBD37021FA04F642EB06015EEA430EFA
:1006E00008BF20EAD37070BDC4F10C04C4F120052A
:1006F00000FA04F320FA05F001FA04F240EA0200DD
:1007000001F0004110EBD37041F100015EEA430EAD
:1007100008BF20EAD37070BDC4F1200500FA05F2CD
:100720004EEA020E20FA04F301FA05F243EA02034C
:1007300021FA04F001F0004121FA04F220EA02005B
:1007400000EBD3705EEA430E08BF20EAD37070BDA1
:1007500094F0000F0FD101F00046400041EB010181
:1007600011F4801F08BF013CF7D041EA060195F063
:10077000000F18BF704703F00046520043EB03031D
:1007800013F4801F08BF013DF7D043EA060370470A
:1007900094EA0C0F0CEA135518BF95EA0C0F0CD015
:1007A00050EA410618BF52EA4306D1D181EA03015B
:1007B00001F000414FF0000070BD50EA410606BF55
:1007C0001046194652EA430619D094EA0C0F02D19A
:1007D00050EA013613D195EA0C0F05D152EA0336DF
:1007E0001CBF104619460AD181EA030101F00041FD
:1007F00041F0FE4141F470014FF0000070BD41F046
:10080000FE4141F4780170BD70B54FF0FF0C4CF41F
:10081000E06C1CEA11541DBF1CEA135594EA0C0F3E
:1008200095EA0C0F00F0A7F8A4EB050481EA030E8B
:1008300052EA03354FEA013100F088804FEA033372
:100840004FF0805545EA131343EA12634FEA022240
:1008500045EA111545EA10654FEA00260EF0004101
:100860009D4208BF964244F1FD0404F5407402D253
:100870005B084FEA3202B61A65EB03055B084FEAE4
:1008800032024FF480104FF4002CB6EB020E75EBE1
:10089000030E22BFB61A754640EA0C005B084FEA09
:1008A0003202B6EB020E75EB030E22BFB61A754686
:1008B00040EA5C005B084FEA3202B6EB020E75EBD1
:1008C000030E22BFB61A754640EA9C005B084FEA49
:1008D0003202B6EB020E75EB030E22BFB61A754656
:1008E00040EADC0055EA060E18D04FEA051545EA45
:1008F00016754FEA06164FEAC30343EA52734FEAEE
:10090000C2025FEA1C1CC0D111F4801F0BD141EA66
:1009100000014FF000004FF0004CB6E711F4801FCB
:1009200004BF01430020B4F1FD0C88BFBCF5E06FAB
:100930003FF6AFAEB5EB030C04BFB6EB020C5FEABB
:10094000500C50F1000041EB045170BD0EF0004E10
:100950004EEA113114EB5C04C2BFD4EB0C0541EA42
:10096000045170BD41F480114FF0000E013C90E63F
:1009700045EA060E8DE60CEA135594EA0C0F08BF03
:1009800095EA0C0F3FF43BAF94EA0C0F0AD150EA02
:1009900001347FF434AF95EA0C0F7FF425AF104695
:1009A00019462CE795EA0C0F06D152EA03353FF4BD
:1009B000FDAE1046194622E750EA410618BF52EA3A
:1009C00043067FF4C5AE50EA41047FF40DAF52EA0E
:1009D00043057FF4EBAE12E74FF0FF3C06E000BFAB
:1009E0004FF0010C02E000BF4FF0010C4DF804CDB8
:1009F0004FEA410C7FEA6C5C4FEA430C18BF7FEA78
:100A00006C5C1BD001B050EA410C0CBF52EA430CA5
:100A100091EA030F02BF90EA020F0020704710F125
:100A2000000F91EA030F58BF994208BF90422CBFB4
:100A3000D8176FEAE37040F0010070474FEA410CAD
:100A40007FEA6C5C02D150EA013C07D14FEA430CCB
:100A50007FEA6C5CD6D152EA033CD3D05DF8040B3C
:100A6000704700BF8446104662468C46194663466E
:100A700000E000BF01B5FFF7B7FF002848BF10F145
:100A8000000F01BD4DF808EDFFF7F4FF0CBF01208A
:100A900000205DF808FB00BF4DF808EDFFF7EAFF06
:100AA00034BF012000205DF808FB00BF4DF808EDC1
:100AB000FFF7E0FF94BF012000205DF808FB00BFB6
:100AC0004DF808EDFFF7CEFF94BF012000205DF840
:100AD00008FB00BF4DF808EDFFF7C4FF34BF01204D
:100AE00000205DF808FB00BF4FEA410C7FEA6C5C18
:100AF00002D150EA013C0AD14FEA430C7FEA6C5C18
:100B000002D152EA033C02D14FF0000070474FF08F
:100B1000010070474FEA410212F5001215D211D5BB
:100B20006FF47873B3EB625212D94FEAC12343F0EA
:100B3000004343EA505311F0004F23FA02F018BF6C
:100B4000404270474FF00000704750EA013005D135
:100B500011F0004008BF6FF0004070474FF00000F8
:100B6000704700BF53B94AB9002908BF00281CBF0D
:100B70004FF0FF314FF0FF3000F076B9ADF1080CC7
:100B80006DE904CE00F006F8DDF804E0DDE90223AB
:100B900004B070472DE9F047089E0D46044688468C
:100BA000002B4DD18A42944668D9B2FA82F252B1F2
:100BB00001FA02F3C2F1200120FA01F10CFA02FC61
:100BC00041EA030894404FEA1C41B8FBF1F71FFAD1
:100BD0008CFE01FB178807FB0EF0230C43EA084349
:100BE00098420AD91CEB030307F1FF3580F01E8100
:100BF000984240F21B81023F63441B1AB3FBF1F0A1
:100C000001FB103300FB0EFEA4B244EA0344A645E8
:100C10000AD91CEB040400F1FF3380F00981A645DA
:100C200040F20681644402380021A4EB0E0440EA3D
:100C300007401EB10023D440C6E90043BDE8F08759
:100C40008B4208D9002E00F0EE800021C6E9000595
:100C50000846BDE8F087B3FA83F100294AD1AB42D8
:100C600002D3824200F2FC80841A65EB0303012068
:100C70009846002EE2D0C6E90048DFE702B9FFDE61
:100C8000B2FA82F2002A40F09180A1EB0C0001211F
:100C90004FEA1C471FFA8CFEB0FBF7F307FB13006B
:100CA000250C45EA00450EFB03F0A84208D91CEBD1
:100CB000050503F1FF3802D2A84200F2CE80434678
:100CC0002D1AB5FBF7F007FB10550EFB00FEA4B282
:100CD00044EA0544A64508D91CEB040400F1FF359D
:100CE00002D2A64500F2B6802846A4EB0E0440EAE4
:100CF00003409EE7C1F120078B4022FA07FC4CEA33
:100D0000030C25FA07FA4FEA1C49BAFBF9F820FA56
:100D100007F309FB18AA8D401FFA8CFE1D4300FA49
:100D200001F308FB0EF02C0C44EA0A44A04202FA3C
:100D300001F20BD91CEB040408F1FF3A80F0888023
:100D4000A04240F28580A8F102086444241AB4FB52
:100D5000F9F009FB104400FB0EFEADB245EA044475
:100D6000A64508D91CEB040400F1FF356CD2A6455A
:100D70006AD90238644440EA0840A0FB0295A4EB1B
:100D80000E04AC42C846AE4656D353D0002E69D0AE
:100D9000B3EB080264EB0E0422FA01F304FA07F73E
:100DA0001F43CC40C6E90074002147E70CFA02FC5F
:100DB000C2F1200125FA01F34FEA1C4720FA01F1A4
:100DC00095400D43B3FBF7F107FB11331FFA8CFE7F
:100DD000280C40EA034001FB0EF3834204FA02F4BC
:100DE00008D91CEB000001F1FF382FD283422DD926
:100DF00002396044C01AB0FBF7F307FB1300ADB231
:100E000045EA004503FB0EF0A84208D91CEB050596
:100E100003F1FF3816D2A84214D9023B6544281AC0
:100E200043EA014138E73146304607E72F46E4E61A
:100E30001846F9E64B45A9D2B9EB020865EB0C0E52
:100E40000138A3E74346EAE7284694E74146D1E75D
:100E5000D0467BE76444023847E7023B65442FE70E
:100E6000084606E73146E9E6704700BF10B50A4C70
:100E700023680A4A1268DA63094A12681A644FF44E
:100E80007A7000F0D3FD2368A0225A634FF47A7081
:100E900000F0CCFD10BD00BFF009002000000020D4
:100EA0000400002010B5012801D070B110BD0E4C17
:100EB00001224FF40071204600F0BAFF00224FF4E7
:100EC0008071204600F0B4FFF0E7074C01224FF498
:100ED0008071204600F0ACFF00224FF400712046E4
:100EE00000F0A6FFE2E700BF000C014010B50128AA
:100EF00001D060B110BD0C4C01228021204600F0D1
:100F000097FF00224021204600F092FFF2E7064CB6
:100F100000228021204600F08BFF01224021204644
:100F200000F086FFE6E700BF000C014010B5012885
:100F300001D060B110BD0C4C01222021204600F0F0
:100F400077FF00221021204600F072FFF2E7064CE6
:100F500000222021204600F06BFF012210212046B4
:100F600000F066FFE6E700BF000C014008B510B1D5
:100F700001280CD008BD012208210B4800F058FFC1
:100F800000224FF40041094800F052FFF2E701222D
:100F90004FF40041054800F04BFF002208210248B1
:100FA00000F046FFE6E700BF000C014000080140EA
:100FB00008B5094B1B6859639863D863196401200D
:100FC000FFF7D4FF0120FFF791FF0120FFF76AFF31
:100FD0000120FFF7ABFF08BD380A0020034610468A
:100FE000DA6801FB0022DA609860704710B40024D0
:100FF000146050609460D4601C6059609C60DC6038
:1010000010BC70472DE9F04389B000240494059486
:1010100006940794334B9A6942F010029A619A69D8
:1010200002F010020092009A9A6942F020029A613E
:101030009A6902F020020192019A9A6942F0040230
:101040009A619A6902F004020292029A9A6942F045
:1010500008029A619B6903F008030393039BDFF87E
:10106000889022464FF40051484600F0E1FE1F4FA1
:1010700022464FF40041384600F0DAFEDFF8708077
:1010800022464FF47E71404600F0D2FE4FF40053EA
:1010900004930126059606940225079504A948465F
:1010A00000F0B4FD4FF4106304930595079504A96F
:1010B000384600F0ABFD4FF40043049305960694C8
:1010C000079504A9384600F0A1FD4FF47E73049300
:1010D00005960694079504A9404600F097FD09B0CF
:1010E000BDE8F083001002400010014000080140FC
:1010F000000C014072B6FEE700B591B02822002135
:1011000006A802F0E9F800230193029303930493E5
:101110000593012206924FF4803307930A9202222C
:101120000D920E934FF4E0130F9306A800F09CFE6F
:1011300080B90F23019302210291002303934FF4FE
:1011400080620492059301A801F0C0F820B911B0A3
:101150005DF804FBFFF7CEFFFFF7CCFF30B599B089
:10116000314C204600F072F800F03CFCFFF7C4FF61
:10117000FFF748FF00F0E4F900F058FA00F0CCFA6D
:1011800000F0E4FA012208A9204602F068F8274C92
:101190000021204601F0F4FB0421204601F0F0FB81
:1011A0000821204601F0ECFB0C21204601F0E8FB71
:1011B0001F4C0021204601F0E3FB0821204601F0EE
:1011C000DFFB0C21204601F0DBFBFFF74FFE6B46F7
:1011D00004AA1849096818480068FFF707FF1BE0D0
:1011E0000025164B1D70164CB4F9002042F2107108
:1011F00004A8FFF7F3FE0146124B1860124802F0F4
:10120000BDF825606560A5604FF4FA710846FFF7E8
:10121000CFFE642000F00AFC084B1B78002BDFD1C6
:1012200000F028FBF0E700BFA00A0020380A0020E9
:10123000F0090020E4090020E00900208C0A0020C9
:10124000800A0020DC0900200895000808B5054B3D
:101250001860054B1868002302221946806802F0C6
:10126000A1F808BDE809002014000020022801D8D8
:101270000120704708B502F005F80923036000203B
:1012800008BD000010B5013801280AD814464FF0F7
:10129000FF3392B20748006801F032FD40B92046A2
:1012A00010BD01F0EFFF092303604FF0FF30F7E7B7
:1012B0000520F5E7E8090020022801D80020704742
:1012C00008B501F0DFFF092303604FF0FF3008BDD0
:1012D00008B501F0D7FF092303604FF0FF3008BDC8
:1012E00008B548B94FF0FF3301220848006801F003
:1012F00066FD40B9012008BD01F0C4FF0923036069
:101300004FF0FF30F7E70520F5E700BFE8090020C0
:1013100008B5022804D84FF400534B60002008BDE4
:1013200001F0B0FF09230360F8E7000082B00E4B24
:101330009A6942F001029A619A6902F001020092F0
:10134000009ADA6942F08052DA61DB6903F0805377
:101350000193019B054A536823F0E06343F0007357
:10136000536002B0704700BF00100240000001400F
:10137000FEE7FEE7FEE7FEE7FEE7704770477047CF
:1013800008B500F041FB08BD08B5024801F008FEB1
:1013900008BD00BFA00A002008B5024801F000FE09
:1013A00008BD00BFE80A00200120704708B501F021
:1013B00069FF162303604FF0FF3008BD08B54FF0FA
:1013C000FF31FFF7F3FFFEE710B503460C4A0D4966
:1013D0000D48006840B10C4800680344521A93421B
:1013E00006D8094A136010BD0748084C0460F2E7AC
:1013F00001F048FF0C2303604FF0FF30F3E700BF1C
:101400000050002000040000EC090020800B0020A8
:101410007047000082B00368B3F1804F04D00E4AD9
:1014200093420DD002B0704703F50433DA6942F0FD
:101430000102DA61DB6903F001030093009BF1E72D
:10144000064BDA6942F00202DA61DB6903F002035B
:101450000193019BE6E700BF00040040001002403A
:1014600010B588B00023049305930693079303688F
:10147000B3F1804F04D02D4A934231D008B010BD53
:1014800003F504339A6942F004029A619A6902F002
:1014900004020092009A9A6942F008029A619B69DC
:1014A00003F008030193019B032304930224059492
:1014B000079404A91E4800F0A9FB4FF4406304936D
:1014C0000594079404A91B4800F0A0FB1A4A53682E
:1014D00023F4407343F0E06343F400735360CDE7BB
:1014E000164B9A6942F004029A619A6902F004026A
:1014F0000292029A9A6942F008029A619B6903F08B
:1015000008030393039BC0230493022405940794C8
:1015100004A9074800F07AFB032304930594079479
:1015200004A9044800F072FBA8E700BF00040040D3
:1015300000080140000C0140000001400010024082
:1015400000B58FB000230A930B930C930D9308936F
:1015500009930193029303930493059306930793CE
:1015600031484FF08042026040F2CF2242608360F7
:1015700040F2CF72C26003618023836101F06EF894
:10158000002839D14FF480530A930AA9264801F064
:1015900069F9002833D1244801F08CF8002831D1B2
:1015A00000230893099308A91F4801F057FA60BB6C
:1015B00060230193002202920392059201A91A4826
:1015C00001F0D6F820BB04220DEB0201164801F011
:1015D000CFF800BB082201A9134801F0C9F8E8B907
:1015E0000C2201A9104801F0C3F8D0B90E48FFF74A
:1015F00037FF0FB05DF804FBFFF77CFDC2E7FFF794
:1016000079FDC8E7FFF776FDCAE7FFF773FDCFE77F
:10161000FFF770FDD7E7FFF76DFDDBE7FFF76AFD2A
:10162000DEE7FFF767FDE1E7F009002000B58FB0C6
:1016300000230A930B930C930D9308930993019342
:101640000293039304930593069307933048314A1A
:10165000026009224260836040F2E732C2600361A7
:101660008023836100F0FAFF002839D14FF48053C2
:101670000A930AA9264801F0F5F8002833D1244836
:1016800001F018F8002831D100230893099308A924
:101690001F4801F0E3F960BB60230193002202922E
:1016A0000392059201A91A4801F062F820BB0422B6
:1016B0000DEB0201164801F05BF800BB082201A9FE
:1016C000134801F055F8E8B90C2201A9104801F0BF
:1016D0004FF8D0B90E48FFF7C3FE0FB05DF804FB1A
:1016E000FFF708FDC2E7FFF705FDC8E7FFF702FDBA
:1016F000CAE7FFF7FFFCCFE7FFF7FCFCD7E7FFF7F0
:10170000F9FCDBE7FFF7F6FCDEE7FFF7F3FCE1E7C8
:10171000380A00200004004008B50A480A4B03605C
:101720004FF4E133436000238360C36003610C2204
:1017300042618361C36101F0B3FA00B908BDFFF7EC
:10174000D9FCFBE7A00A00200038014008B50A4890
:101750000A4B03604FF4E133436000238360C360AE
:1017600003610C2242618361C36101F099FA00B9FF
:1017700008BDFFF7BFFCFBE7E80A0020004400407B
:1017800030B589B00023049305930693079303684B
:10179000344A934204D0344A934233D009B030BD26
:1017A000324B9A6942F480429A619A6902F480420B
:1017B0000092009A9A6942F004029A619B6903F0D0
:1017C00004030193019B4FF40073049302230593D8
:1017D00003230793264D04A9284600F017FA4FF477
:1017E0008063049300240594069404A9284600F01D
:1017F0000DFA22460121252000F03EF9252000F0B7
:1018000073F9CBE7194BDA6942F40032DA61DA692D
:1018100002F400320292029A9A6942F004029A613A
:101820009B6903F004030393039B042304930223A3
:101830000593032307930E4D04A9284600F0E6F90B
:101840000823049300240594069404A9284600F074
:10185000DDF922462146262000F00EF9262000F070
:1018600043F99BE70038014000440040001002406B
:1018700000080140204B00221A60204B1B788BB1DE
:10188000082B12D910B51E4A12785B2A30D01C4A98
:101890005278382A2ED0013B194AD35CB52B08D197
:1018A00000221CE0154B1A707047144B00221A706E
:1018B0007047642000F0BAF8104B00221A7016E04E
:1018C0005100CB1C0E4CE35C1B021BB20D4820F8F0
:1018D00012300231615C0B4320F812300132052ACC
:1018E000EEDD094B01221A70044B00221A7010BD64
:1018F0000022F4E70022F2E79C0A0020990A002067
:10190000900A0020800A00208C0A002008B50C4BA9
:10191000984200D008BD0B4B1B78082B06D80268F4
:101920005168094AD1540133064A1370054B1B789C
:10193000012205491944024801F091FCEAE700BF81
:10194000A00A0020990A0020900A0020FFF760FDFD
:101950000B480C490C4A002302E0D458C45004330D
:10196000C4188C42F9D3094A094C002301E01360E2
:101970000432A242FBD301F08BFCFFF7EFFB704770
:1019800000000020C00900204C990008C009002078
:101990007C0B0020FEE7000010B504460E4B1878C3
:1019A0004FF47A73B3FBF0F30C4A1068B0FBF3F01A
:1019B00000F0A8F868B90F2C01D901200AE0002234
:1019C00021464FF0FF3000F057F8054B1C60002017
:1019D00000E0012010BD00BF0C0000200800002026
:1019E0001000002008B5074A136843F01003136085
:1019F000032000F02FF80F20FFF7CEFFFFF796FC33
:101A0000002008BD00200240034A1168034B1B78E8
:101A10000B441360704700BF300B00200C00002007
:101A2000014B1868704700BF300B002038B50446E2
:101A3000FFF7F6FF0546B4F1FF3F02D0044B1B78D9
:101A40001C44FFF7EDFF401BA042FAD338BD00BF96
:101A50000C000020074AD36823F4E0631B041B0C2E
:101A6000000200F4E060034343F0BF6343F400333B
:101A7000D360704700ED00E000B5194BDB68C3F39D
:101A80000223C3F1070CBCF1040F28BF4FF0040C74
:101A900003F1040EBEF1060F18D9033B4FF0FF3ED1
:101AA0000EFA0CFC21EA0C0199400EFA03F322EA2B
:101AB0000303194300280BDB0901C9B200F16040A0
:101AC00000F5614080F800135DF804FB0023E5E7B2
:101AD00000F00F000901C9B2024B1954F4E700BF2E
:101AE00000ED00E014ED00E0002807DB00F01F022D
:101AF000400901239340024A42F82030704700BF5A
:101B000000E100E00138B0F1807F0BD24FF0E0231C
:101B10005861054AF02182F82310002098610722BD
:101B20001A6170470120704700ED00E090F8213005
:101B3000DBB2022B06D004238363002380F820301D
:101B4000012070470268136823F00E0313600268D7
:101B5000136823F001031360036CC16B012202FAC6
:101B600003F34B6080F82120002380F820301846D2
:101B70007047000008B590F82130DBB2022B03D08B
:101B800004238363012008BD0268136823F00E0359
:101B900013600268136823F0010313600368194A95
:101BA000934214D0143293421FD0143293421ED069
:101BB000143293421ED0143293421ED014329342F8
:101BC00002D04FF0807203E04FF4801200E0012257
:101BD0000D4B5A60012380F82130002380F820301B
:101BE000436B6BB198470020CDE71022F0E74FF42C
:101BF0008072EDE74FF48052EAE74FF48032E7E776
:101C00000020C0E7080002400000024070B582B02A
:101C10000024A446A6E0804DAA4210D007D97F4DEB
:101C2000AA420CD005F58035AA4208D013E0A5F5EC
:101C30008015AA4203D005F57025AA4207D18A680B
:101C4000002A58D0012A51D04361082403E0A5F5A9
:101C50008015AA42F3D0BEF1FF0F4ED80646BEF162
:101C6000FF0F4CD84FEA8C0233680F25954023EACA
:101C7000050304FA02F2134333604B6813F0805FEC
:101C80006ED0674B9A6942F001029A619B6903F03A
:101C900001030193019B4FEA9C02951C614B53F891
:101CA00025600CF003039D000F23AB4026EA0306DA
:101CB0005D4B984229D003F58063984200F08E80F6
:101CC00003F58063984200F08B8003F580639842AF
:101CD00019D004231AE0CC68BDE7CC680434BAE715
:101CE000CC680834B7E7CC680C34B4E70361082447
:101CF000B1E70024AFE70424ADE7061DAFE7ACF180
:101D000008029200B0E7032300E00023AB40334316
:101D10000232444D45F822304B6813F4801F61D0E5
:101D2000424A936843EA0E0393604B6813F4001F22
:101D30005ED03E4AD36843EA0E03D3604B6813F487
:101D4000003F5BD0394A536843EA0E0353604B6847
:101D500013F4803F58D0354A136843EA0E031360EA
:101D60000CF1010C0A6832FA0CF353D0012303FA88
:101D70000CF302EA030E33EA0202F1D14A68122A96
:101D80003FF649AF122A3FF666AF01A555F822F09B
:101D90003F1C0008D71C0008E11C0008F31C0008C9
:101DA000571C0008571C0008571C0008571C000847
:101DB000571C0008571C0008571C0008571C000837
:101DC000571C0008571C0008571C0008571C000827
:101DD000571C0008DB1C0008E71C0008012395E7DE
:101DE000022393E7114A936823EA0E0393609CE76A
:101DF0000E4AD36823EA0E03D3609FE70B4A536869
:101E000023EA0E035360A2E7084A136823EA0E038D
:101E10001360A5E702B070BD000022100000311071
:101E20000010024000000140000801400004014091
:101E30000AB10161704709040161704782B0084B23
:101E40001B68084AA2FB03235B0A00FB03F3019310
:101E500000BF019B5A1E0192002BF9D102B07047BE
:101E600008000020D34D6210002800F0F18170B509
:101E700082B00446036813F0010F2CD0994B5B68C5
:101E800003F00C03042B1DD0964B5B6803F00C038E
:101E9000082B12D06368B3F5803F41D0002B55D199
:101EA00003F1804303F504331A6822F480321A6088
:101EB0001A6822F480221A6037E08A4B5B6813F4B8
:101EC000803FE7D0874B1B6813F4003F03D0636863
:101ED000002B00F0BF81236813F0020F75D0814BF7
:101EE0005B6813F00C0F5FD07E4B5B6803F00C0354
:101EF000082B54D02369002B00F08A807A4B0122F2
:101F00001A60FFF78DFD0546764B1B6813F0020F34
:101F100075D1FFF785FD401B0228F5D903209EE10E
:101F2000704A136843F480331360636843B3FFF768
:101F300077FD05466B4B1B6813F4003FCBD1FFF7D1
:101F40006FFD401B6428F5D9032088E1B3F5A02F6D
:101F500009D0644B1A6822F480321A601A6822F49D
:101F600080221A60E1E703F18043A3F53C331A684D
:101F700042F480221A601A6842F480321A60D4E770
:101F8000FFF74EFD0546574B1B6813F4003FA2D0E8
:101F9000FFF746FD401B6428F5D903205FE1514B54
:101FA0005B6813F4803FA5D14E4B1B6813F0020F02
:101FB00003D02369012B40F04F814A4A136823F074
:101FC000F803616943EAC1031360236813F0080F43
:101FD00033D0A369002B5CD0434B0122C3F880248B
:101FE000FFF71EFD05463F4B5B6A13F0020F21D140
:101FF000FFF716FD401B0228F5D903202FE1394ACF
:10200000136823F0F803616943EAC1031360DCE756
:10201000354B00221A60FFF703FD0546314B1B6864
:1020200013F0020FD1D0FFF7FBFC401B0228F5D9BB
:10203000032014E10120FFF701FF236813F0040FD0
:1020400000F09680274BDB6913F0805F34D1254B7D
:10205000DA6942F08052DA61DB6903F08053019360
:10206000019B0125214B1B6813F4807F26D0E36878
:10207000012B3DD0002B53D103F1804303F50433F2
:102080001A6A22F001021A621A6A22F004021A6223
:1020900033E0154B0022C3F88024FFF7C1FC05464E
:1020A000104B5B6A13F0020FC7D0FFF7B9FC401B5F
:1020B0000228F5D90320D2E00025D3E70B4A1368A4
:1020C00043F480731360FFF7ABFC0646074B1B68B5
:1020D00013F4807FCBD1FFF7A3FC801B6428F5D9D4
:1020E0000320BCE0001002400000424200700040AB
:1020F0005F4A136A43F001031362E36833B3FFF7E7
:102100008FFC06465A4B1B6A13F0020F2FD1FFF7C4
:1021100087FC801B41F288339842F3D903209EE06C
:10212000052B09D0524B1A6A22F001021A621A6A70
:1021300022F004021A62E0E74D4B1A6A42F00402F0
:102140001A621A6A42F001021A62D6E7FFF768FCC7
:102150000646474B1B6A13F0020F08D0FFF760FCDE
:10216000801B41F288339842F3D9032077E0E5B928
:10217000E369002B72D03E4A526802F00C02082A32
:1021800056D0022B17D03B4B00221A66FFF748FCB3
:102190000446374B1B6813F0007F47D0FFF740FC25
:1021A000001B0228F5D9032059E0314AD36923F0F6
:1021B0008053D361DCE72F4B00221A66FFF730FC17
:1021C00005462B4B1B6813F0007F06D0FFF728FC59
:1021D000401B0228F5D9032041E0236AB3F5803F74
:1021E0001AD023494B6823F47413226A606A0243AD
:1021F00013434B601F4B01221A66FFF711FC044684
:102200001B4B1B6813F0007F0ED1FFF709FC001B6E
:102210000228F5D9032022E0154A536823F400333D
:10222000A1680B435360DCE7002018E0002016E0B3
:10223000012B16D00E4B5B6803F48031226A914269
:1022400011D103F47013626A93420ED1002006E0AC
:1022500001207047012002E0012000E0002002B0D0
:1022600070BD0120FBE70120F9E70120F7E700BF7F
:1022700000100240000042420F4B5B6803F00C026A
:10228000082A01D00D487047C3F383420C49885C8B
:1022900013F4803F0BD0084B5B68C3F34043094AFB
:1022A000D35C064A02FB00F0B0FBF3F07047064B2C
:1022B00003FB00F0704700BF0010024000127A00DC
:1022C000289500083895000800093D00002800F016
:1022D000A08070B50D460446524B1B6803F00703FF
:1022E0008B420BD24F4A136823F007030B43136052
:1022F000136803F007038B4240F08D80236813F0CE
:10230000020F17D013F0040F04D0474A536843F468
:10231000E0635360236813F0080F04D0424A536807
:1023200043F460535360404A536823F0F003A168BC
:102330000B435360236813F0010F31D06368012B06
:1023400020D0022B25D0384A126812F0020F64D038
:1023500035494A6822F0030213434B60FFF760FBE4
:102360000646314B5B6803F00C036268B3EB820FE7
:1023700016D0FFF755FB801B41F288339842F0D905
:10238000032045E0284A126812F4003FE0D1012002
:102390003EE0254A126812F0007FD9D1012037E0D3
:1023A000204B1B6803F00703AB420AD91D4A136890
:1023B00023F007032B431360136803F00703AB42BA
:1023C0002DD1236813F0040F06D0174A536823F465
:1023D000E063E1680B435360236813F0080F07D0F4
:1023E000114A536823F46053216943EAC1035360DF
:1023F000FFF742FF0C4B5B68C3F303130B4AD35C3C
:10240000D8400B4B18600B4B1868FFF7C5FA00203B
:1024100070BD012070470120FAE70120F8E7012094
:10242000F6E700BF002002400010024010950008AF
:102430000800002010000020014B1868704700BF02
:102440000800002008B5FFF7F7FF044B5B68C3F3F3
:102450000223034AD35CD84008BD00BF00100240ED
:102460002095000808B5FFF7E7FF044B5B68C3F34E
:10247000C223034AD35CD84008BD00BF001002400D
:102480002095000870B4036A026A22F00102026219
:102490004668826922F073020C6844EA020523F060
:1024A00002028B6813430D4CA04209D00B4CA04292
:1024B0000DD0466085614A684263036270BC704714
:1024C00023F00803CA68134323F00403EEE726F45D
:1024D00040764A6932438E691643EAE7002C014090
:1024E00030B4036A026A22F4807202624568C269EB
:1024F00022F073020C68224323F400738C6843EAD1
:1025000004230F4CA04209D00D4CA0420ED04560D0
:10251000C2614A68C263036230BC704723F400633F
:10252000CC6843EA042323F48063EDE725F44055A7
:102530004C6945EA04158C6945EA0415E7E700BFD4
:10254000002C014030B4036A026A22F48052026215
:102550004468C26922F4E6420D6842EA052223F487
:1025600000538D6843EA0533074DA84206D0446006
:10257000C2614A680264036230BC704724F480443C
:102580004D6944EA8514F2E7002C014010B4036A57
:10259000046A24F001040462846924F0F00C4CEA1B
:1025A000021223F00A030B438261036210BC7047DE
:1025B00010B4036A046A24F010040462846924F4E9
:1025C000704C4CEA023223F0A00343EA011382610B
:1025D000036210BC7047836823F070030B4343F021
:1025E000070383607047704703681B4A90420AD014
:1025F000B0F1804F07D0A2F59432904203D002F59B
:102600008062904203D123F070034A681343124A58
:1026100090420AD0B0F1804F07D0A2F59432904298
:1026200003D002F58062904203D123F44073CA685C
:10263000134323F080034A69134303608B68C3622A
:102640000B688362044B984202D0012343617047B8
:102650000B690363F9E700BF002C014040B310B5DC
:10266000044690F83D30F3B1022384F83D30214612
:1026700051F8040BFFF7B8FF012384F8463084F8C3
:102680003E3084F83F3084F8403084F8413084F89C
:10269000423084F8433084F8443084F8453084F87C
:1026A0003D30002010BD80F83C30FEF7B3FEDBE784
:1026B0000120704740B310B5044690F83D30F3B1A7
:1026C000022384F83D30214651F8040BFFF78CFFBC
:1026D000012384F8463084F83E3084F83F3084F893
:1026E000403084F8413084F8423084F8433084F834
:1026F000443084F8453084F83D30002010BD80F827
:102700003C30FFF770FFDBE70120704730B4036A0D
:10271000026A22F0100202624468826922F4E642F0
:102720000D6842EA052223F020038D6843EA051371
:102730000E4DA84209D00D4DA8420ED044608261D2
:102740004A688263036230BC704723F08003CD681F
:1027500043EA051323F04003EDE724F440644D6998
:1027600044EA85048D6944EA8504E7E7002C0140CA
:1027700038B590F83C30012B66D004460D46012355
:1027800080F83C300C2A5AD8DFE802F00759595932
:102790001B5959593059595944000068FFF772FEC6
:1027A0002268936943F0080393612268936923F0D8
:1027B000040393612268936929690B4393610020A4
:1027C0003EE00068FFF7A2FF2268936943F40063CC
:1027D00093612268936923F480639361226893690B
:1027E000296943EA01239361002029E00068FFF78B
:1027F00077FE2268D36943F00803D3612268D36966
:1028000023F00403D3612268D36929690B43D361A0
:10281000002015E00068FFF795FE2268D36943F4B5
:102820000063D3612268D36923F48063D361226893
:10283000D369296943EA0123D361002000E0012024
:10284000002384F83C3038BD0220FCE710B48468D3
:1028500024F47F4C42EA03220A4342EA0C028260DB
:1028600010BC704790F83C30012B78D010B504466E
:10287000012380F83C30022380F83D3002689368E1
:1028800023F47F4323F0770393600B68602B4CD0D5
:1028900029D8402B54D00CD9502B22D1CA68496872
:1028A0000068FFF773FE50212068FFF794FE0020B8
:1028B00005E0202B0DD009D9302B0AD001200123AF
:1028C00084F83D30002384F83C3010BD0BB1102B50
:1028D00005D119462068FFF77EFE0020EFE70120B2
:1028E000EDE70120EBE7B3F5805F34D0B3F5005F8F
:1028F0000CD1CB684A6889680068FFF7A7FF226897
:10290000936843F4804393600020D8E7702B24D170
:10291000CB684A6889680068FFF798FF2268936867
:1029200043F0770393600020C9E7CA6849680068EC
:10293000FFF73EFE60212068FFF74DFE0020BEE756
:10294000CA6849680068FFF721FE40212068FFF748
:1029500042FE0020B3E70020B1E70120AFE70220EC
:10296000704701F01F01012303FA01FC036A23EA07
:102970000C030362036A02FA01F10B43036270471E
:1029800010B50446084651BB94F83E30DBB2013B1B
:1029900018BF0123002B5BD1002839D1022384F812
:1029A0003E30012201462068FFF7DBFF23682A4AF8
:1029B00093423DD02368284A93423ED0B3F1804FE2
:1029C0003BD0A2F59432934237D002F58062934215
:1029D00033D01A6842F001021A60002039E004295D
:1029E00008D008290DD094F84130DBB2013B18BF64
:1029F0000123CFE794F83F30DBB2013B18BF01233E
:102A0000C8E794F84030DBB2013B18BF0123C1E7AF
:102A1000042805D0082807D0022384F84130C0E7F5
:102A2000022384F83F30BCE7022384F84030B8E743
:102A30005A6C42F400425A64BCE79A6802F00702FA
:102A4000062A07D01A6842F001021A60002000E04E
:102A5000012010BD0020FCE7002C014090F83C3024
:102A6000012B2CD010B4012380F83C30022380F8D5
:102A70003D3003685A689C6822F0700C0A6842EA8C
:102A80000C025A6003680F4A93420AD0B3F1804F98
:102A900007D0A2F59432934203D002F580629342AC
:102AA00004D124F080044A6814439C60012380F818
:102AB0003D30002380F83C30184610BC704702209F
:102AC000704700BF002C0140026802F10C0353E87C
:102AD000003F23F490730C3242E800310029F3D117
:102AE000026802F1140353E8003F23F0010314329B
:102AF00042E800310029F3D1036B012B05D02023DC
:102B000080F84230002303637047026802F10C032F
:102B100053E8003F23F010030C3242E80031002953
:102B2000F3D1ECE790F84130DBB2212B01D0022049
:102B300070478368B3F5805F17D0036A5A1C02623E
:102B40001A7803685A60C38C9BB2013B9BB2C38462
:102B50004BB90268D36823F08003D3600268D3685E
:102B600043F04003D360002070470369002BE4D199
:102B7000036A1B880268C3F308035360036A0233C5
:102B80000362E0E710B504460268136923F440537A
:102B9000C1680B43136183680269134342691A4396
:102BA0000168CB6823F4B05323F00C031343CB60CC
:102BB0000268536923F4407381690B4353610268CF
:102BC000134B9A4220D0FFF73DFC024602EB8202F3
:102BD00002EB820263689B00B2FBF3F20D48A0FB9C
:102BE00002314909642303FB11231B013233A0FB8B
:102BF00003235B0903F0F00202EB011203F00F0361
:102C0000216813448B6010BDFFF72CFC0246DDE702
:102C1000003801401F85EB512DE9F84305460F466A
:102C200016469946DDF820802C68246837EA0403AC
:102C30000CBF4FF0010C4FF0000CB4452DD1B8F192
:102C4000FF3FF1D0B8F1000F05D0FEF7E9FEA0EB91
:102C500009004045E8D92A6802F10C0353E8003F17
:102C600023F4D0730C3242E800310029F3D12A68F2
:102C700002F1140353E8003F23F00103143242E849
:102C800000310029F3D1202385F8413085F8423006
:102C9000002385F84030032000E00020BDE8F883E1
:102CA00060B310B5044690F8413013B3242384F880
:102CB00041302268D36823F40053D3602046FFF7E5
:102CC00061FF2268136923F49043136122685369FA
:102CD00023F02A0353612268D36843F40053D3607E
:102CE00000206064202384F8413084F8423060631F
:102CF00010BD80F84030FEF743FDD7E70120704754
:102D00002DE9F04182B01E4690F84130DBB2202B15
:102D10004BD104460D46904600294AD00AB90120FD
:102D200044E000234364212380F84130FEF778FE1D
:102D30000746A4F82480A4F82680A368B3F5805F32
:102D400002D04FF000080FE02369FBB14FF00008FC
:102D50000AE038F8023B2268C3F308035360E28CB0
:102D600092B2013A92B2E284E38C9BB28BB10096AC
:102D70003B46002280212046FFF74EFFD8B9002DA8
:102D8000E7D015F8012B23685A60E8E7A84600252C
:102D9000EAE700963B46002240212046FFF73CFF31
:102DA00058B9202384F8413000E0022002B0BDE889
:102DB000F0810120FAE70320F8E70320F6E72DE988
:102DC000F04182B01E4690F84230DBB2202B53D146
:102DD00004460D469046002952D00AB901204CE025
:102DE00000234364222280F842200363FEF718FE8A
:102DF0000746A4F82C80A4F82E80A368B3F5805F62
:102E000002D04FF0000817E0236913B14FF000081B
:102E100012E0A84600250FE023685B68C3F30803AF
:102E200028F8023B03E023685B682B700135E28DD4
:102E300092B2013A92B2E285E38D9BB2BBB10096A9
:102E40003B46002220212046FFF7E6FED0B9002DA8
:102E5000E2D0A368B3F5805FE5D013B92369002BF6
:102E6000E1D023685B6803F07F032B70DEE720234B
:102E700084F84230002000E0022002B0BDE8F0817A
:102E80000120FAE70320F8E7704708B50168CA682F
:102E900022F04002CA60202280F84120FFF7F4FFB0
:102EA000002008BD704708B5406A0023C385C3846D
:102EB000FFF7F8FF08BD704790F84230DBB2222BD5
:102EC00069D18368B3F5805F4FD0826AB3F5805FC4
:102ED00004D0002B56D10369002B53D103685B68E3
:102EE0001370836A01338362C38D9BB2013B9BB233
:102EF000C385002B51D100B583B00268D36823F09D
:102F00002003D3600268D36823F48073D36002681F
:102F1000536923F001035361202380F842300023DA
:102F20004363036B012B33D100230363026802F177
:102F30000C0353E8003F23F010030C3242E8003149
:102F40000029F3D103681A6812F0100F06D000228E
:102F500001921A6801925B680193019B818DFFF7D2
:102F6000AAFF002003B05DF804FB0269002AACD17F
:102F7000826A03685B68C3F308031380836A0233C1
:102F80008362B1E703685B6803F07F031370A8E70F
:102F9000FEF7BCFCE5E70220704700207047000008
:102FA00030B583B0044602681368D068516913F0E5
:102FB0000F0505D113F0200F02D010F0200F19D10A
:102FC0002DB111F0010119D110F4907F16D1216BB0
:102FD00001297DD013F0800F03D010F0800F40F056
:102FE000188113F0400F03D010F0400F40F015810E
:102FF00003B030BD2046FFF75FFFF9E713F0010F84
:1030000006D010F4807F03D0626C42F0010262644B
:1030100013F0040F04D019B1626C42F00202626432
:1030200013F0020F04D019B1626C42F00402626422
:1030300013F0080F07D010F0200F00D119B1626C07
:1030400042F008026264626C002AD1D013F0200FB3
:1030500002D010F0200F29D123685B6903F04003F0
:10306000626C12F0080F00D163B32046FFF72CFD0D
:1030700023685B6913F0400F20D0226802F114032B
:1030800053E8003F23F04003143242E800310029A6
:10309000F3D1E36B73B1634A5A63E06BFEF76AFDE9
:1030A0000028A5D0E06B436B9847A1E72046FFF7C7
:1030B00003FFD1E72046FFF7F5FE99E72046FFF72B
:1030C000F1FE95E72046FFF7EDFE002363648FE7EE
:1030D00013F0100F3FF47EAF10F0100F3FF47AAFF3
:1030E000002301931368019353680193019B536973
:1030F00013F0400F51D0E26B13685B689BB2002B5A
:103100003FF476AFA18D99427FF672AFE385936964
:10311000202B37D0226802F10C0353E8003F23F440
:1031200080730C3242E800310029F3D1226802F1A9
:10313000140353E8003F23F00103143242E8003146
:103140000029F3D1226802F1140353E8003F23F071
:103150004003143242E800310029F3D1202384F8DF
:10316000423000232363226802F10C0353E8003F3E
:1031700023F010030C3242E800310029F3D1E06B58
:10318000FEF7D4FC02236363A18DE38D9BB2C91AC1
:1031900089B22046FFF78FFE2AE7A18DE38D9BB20F
:1031A000C91A89B2E38D9BB2002B3FF421AF0029ED
:1031B0003FF41EAF226802F10C0353E8003F23F4F2
:1031C00090730C3242E800300028F3D1226802F1FB
:1031D000140353E8003F23F00103143242E80030A7
:1031E0000028F3D1202384F842300023236322688F
:1031F00002F10C0353E8003F23F010030C3242E8C5
:1032000000300028F3D1022363632046FFF753FE0A
:10321000EEE62046FFF786FCEAE62046FFF735FE9D
:10322000E6E600BFA72E000881628285C2850023E2
:103230004364222380F84230036923B10268D368D3
:1032400043F48073D3600268536943F00103536110
:103250000268D36843F02003D3600020704708B5AC
:1032600090F84230DBB2202B08D149B10AB90120D5
:1032700008BD00230363FFF7D7FFF9E70220F7E754
:103280000120F5E7014B1868704700BF14000020CB
:1032900070B50D4E0D4D761BB61006D0002455F8B6
:1032A000043B01349847A642F9D1094E094D06F076
:1032B0001FF9761BB61006D0002455F8043B0134E4
:1032C0009847A642F9D170BD40990008409900087E
:1032D0004899000840990008830730B548D0541E2B
:1032E000002A3FD00346CAB201E0013C3AD303F8BA
:1032F000012B9D07F9D1032C2DD9CDB245EA052527
:103300000F2C45EA054536D9A4F1100222F00F0C26
:1033100003F1200EE6444FEA121C03F1100242E9C9
:10332000045542E9025510327245F8D10CF1010200
:1033300014F00C0F03EB021204F00F0C13D0ACF1DD
:10334000040323F003030433134442F8045B934261
:10335000FBD10CF003042CB1CAB21C4403F8012BBE
:103360009C42FBD130BD64461346002CF4D1F9E7F2
:1033700003461446BFE71A46A446E0E70FB400B57B
:10338000074A83B004AB106853F8042B816801939B
:1033900000F00EF903B05DF804EB04B0704700BF15
:1033A000140000202DE9F043694C0E46D4F800804B
:1033B000174604461D4683B0B8F1000F03D0D8F875
:1033C0003830002B77D0022F05D0012F00F2AC80CF
:1033D000002DC0F2A980636EDA0752D5214640461F
:1033E00002F0DEFF216B41B104F14003994202D0AB
:1033F000404603F001F9002323630023B4F90CC015
:10340000A3611CF0800F636064D12CF44A6C2CF033
:10341000030C022FA4F80CC06AD001AB2146404631
:103420006A4603F089FAA3891843A081002D2FD0A2
:10343000002E2ED0D8F83830002B38D0009BC4E9AD
:103440000465AB42B4F90C3026601CBF43F4006342
:10345000A381012F04BF43F00103A3819AB213F0AB
:1034600008032CD0D1075DD500216D42A561656EA2
:10347000A16015F0010527D00025284603B0BDE85E
:10348000F083A3899B05A9D4A06D03F0E1F9A5E71A
:10349000009D284603F080FA0646002847D0A389FD
:1034A00043F08003A381D8F83830002BC6D14046C2
:1034B00002F0AAFFC2E7404602F0A6FF83E7A3603E
:1034C000656E15F00105D7D1930524D5284603B0C4
:1034D000BDE8F0834046216903F08EF8B4F90CC0D2
:1034E000022F2CF44A6C2CF0030CA4F80CC094D1DD
:1034F00000250021012204F1430323602361636E50
:103500004CF0020CD807A4F80CC0A1606261DDD4B5
:103510001CF4007FDAD1A06D03F09CF9284603B0BB
:10352000BDE8F083A560CBE74FF0FF35CEE7DDF8CF
:103530000090A94504D0484603F02EFA064620B96B
:103540004FF0FF35B4F90CC0D3E74D46A7E700BFF5
:103550001400002020F0030110F00300C0F100006F
:1035600051F8043B00F1040C4FEACC0C6FF0000260
:103570001CBF22FA0CF213434FF0010C4CEA0C2C46
:103580004CEA0C4CA3EB0C0222EA030212EACC1226
:1035900004BF51F8043B0430F4D0C2F1000102EA48
:1035A0000102B2FA82F2C2F11F0200EBD2007047B0
:1035B0002DE9F04FD5B01C4691460791054609907C
:1035C00003F03EF902680E9410461792FFF7C2FF0F
:1035D00016901DB1AB6B002B00F01D82079A536E45
:1035E000DD0740F12D81B2F90C2091B28F0409D48E
:1035F000079B42F400529A8191B21A465B6E23F403
:10360000005353660E0740F1C080079B1B69002BD7
:1036100000F0BB8001F01A030A2B00F0C4800024E4
:103620002BAB224698464D46CDE929442893129467
:1036300000230024CDE914342B78CDE91922CDE9FB
:103640001B2218920B92002B00F08F81AA4604E0F7
:103650001AF8013F002B00F0BB80252BF8D1BAEB04
:10366000050640F0B9809AF80030002B00F07D810B
:1036700000234FF0FF324FF02B0920241F469AF809
:10368000016008920AF1010A8DF883300A930AF169
:10369000010AA6F120035A2B00F2E180DFE813F0C3
:1036A0000503DF00DF000003DF00DF00DF00DE02D4
:1036B000DF00DF006A006E02DF0055027802DF00E3
:1036C00073025B005B005B005B005B005B005B0008
:1036D0005B005B00DF00DF00DF00DF00DF00DF00FA
:1036E000DF006C01DF00EA01C4016C016C016C01B8
:1036F000DF00DF00DF00DF00D002DF00DF00230299
:10370000DF00DF00DF00F801DF009202DF00DF00F2
:103710008707DF00DF00DF00DF00DF00DF00DF0002
:10372000DF006C01DF00EA01C6016C016C016C0175
:10373000B602C601BF01DF00C302DF005A02250244
:10374000A402BF01DF00F80172008407DF00DF0080
:103750006507DF0072000022A6F130031AF8016B42
:1037600002EB820203EB4202A6F13003092BF5D9EA
:103770000A928EE70E9B53F8042B002A0A920E93AE
:10378000C0F2E0819AF8006081E7079D0998294618
:1037900001F0FCFC002841F04D83A98901F01A03D7
:1037A0000A2B7FF43CAF079AB2F90E30002BFFF6DC
:1037B00036AF536ED80702D4890541F148812346BC
:1037C0004A460799099855B0BDE8F04F01F09CBCF6
:1037D000BAEB050600F0C9802A9BC8E900563344BD
:1037E0002A93299B0133072B299305DC08F108084C
:1037F0000B9B33440B9336E70799099828AA04F0EA
:1038000077F880B90DF1AC08F2E70799099828AA72
:1038100004F06EF8002800F099800D9B1BB119464A
:10382000099802F0E9FE079A536ED90740F1E88043
:1038300093895B0601F10A830B9855B0BDE8F08FC0
:10384000079BB3F90C20900591B23FF5CFAE1D4612
:10385000986D02F0FDFFB5F90C2091B2C6E6002E7E
:1038600000F08380012300228DF8EC6006933BADCD
:103870008DF883200C930D9208920F921392109260
:1038800017F0020302D006990231069117F0840B5B
:1038900007D10A990698A1EB0009B9F1000F00F3CE
:1038A00090832A9C82B10122C8F80420299A01340D
:1038B00001320DF18301072A2A942992C8F80010D9
:1038C00000F3D88308F108087BB10223C8F804305C
:1038D000299B0234013321AA072B2A942993C8F883
:1038E000002000F3D58308F10808BBF1800F00F039
:1038F0008882089B0C9AA3EB020BBBF1000F00F32C
:10390000CB82FB0500F11F820C9BC8F800501C44C1
:10391000C8F80430299B2A940133072B299300F31C
:10392000448308F10808780705D50A9B069A9D1A72
:10393000002D00F3B983DDE90A2306998A42ACBF62
:103940009B185B180B93002C7FF45FAF0023299327
:103950000D9B1BB10D99099802F04EFE55460DF1D5
:10396000AC082B78002B7FF471AE2A9B002B41F022
:1039700010820023299356E70E9B073323F007029A
:10398000F2E80234CDE91434DDE9143424F00044C3
:10399000994618460E9221464FF0FF32AB4BFDF789
:1039A000A3F8002840F01885484621464FF0FF3222
:1039B000A64BFDF77BF8002840F00E85DDE91401E9
:1039C00000220023FDF768F8002840F065879DF885
:1039D0008320002103209E4D9E4B27F080070D91F0
:1039E0000690472EC8BF1D4608910C900F91139169
:1039F0001091002A3FF444AF069B013306933FE742
:103A0000079B9B899A053FF514AF079CA06D02F0B8
:103A100021FFA3890DE7099802F0F6FCDEE59AF88C
:103A2000006047F0200732E647F01007BA060E9B09
:103A300040F16E84073323F007031A465B6852F89F
:103A4000084B99460E92002BC0F26F84089B0133FD
:103A500000F0FB8254EA090327F0800B40F0F68265
:103A6000089B002B40F0F7825F46002354AD08937B
:103A70000C933DE1012000220E9B069053F8041B9D
:103A80003BAD8DF883208DF8EC100E930C90F2E690
:103A90004FF000090E9C089B54F8045B8DF883904E
:103AA000002D00F0A1855A1C00F0A5861A46494653
:103AB000284603F025FA0D90002801F050810D9B57
:103AC0009DF883205B1B0C9323EAE373CDF82090D1
:103AD0000E940693CDF83490CDF83C90CDF84C90F0
:103AE000CDF8409085E747F0100717F0200900F067
:103AF000F2830E9B073323F00703D3F8049053F8A7
:103B0000084B0E93002327F4806B00228DF883204E
:103B1000089A511C00F0D48054EA09012BF0800768
:103B200040F0CD80002A40F00486002B9DD11BF090
:103B300001030C9300F0308430230DF24F158DF803
:103B40004F31D5E00A9B5B420A939AF8006047F038
:103B500004079CE5BD0600F1FD84FC0600F1EE853E
:103B6000780600F1B286B90540F1E8850E9B0B9905
:103B700053F8042B554611700E93F2E69AF8006044
:103B80008DF8839083E59AF8006047F080077EE522
:103B9000524612F8016B2A2E01F08D82A6F13003F5
:103BA000092B924698BF002201F2E5801AF8016BBA
:103BB00002EB820203EB4202A6F13003092BF5D996
:103BC000089266E547F0100B1BF0200900F0918386
:103BD0000E9B073323F007031A4652F8084BD3F81D
:103BE00004900E92012390E7302278260E9B8DF8E8
:103BF000842053F8044B184A0E934FF00009022317
:103C000047F0020B8DF8856018927EE79AF8006005
:103C1000682E03BF9AF8016047F400770AF1010AA1
:103C200047F0400733E59AF800606C2E03BF9AF81E
:103C3000016047F020070AF1010A47F0100726E566
:103C40009AF8006047F0080721E500BFFFFFEF7F0B
:103C5000409500084495000850950008099E30469C
:103C600002F0EEFD436818461B93FFF773FC034612
:103C700030461C931E4602F0E3FD83681993002E24
:103C80003FF480AD199B002B3FF47CAD199B1B7852
:103C9000002B3FF477AD9AF8006047F48067F6E4B4
:103CA0009AF8006047F00107F1E49DF88330002B9B
:103CB0007FF468AD9AF800608DF88340E7E4BB4676
:103CC000012B00F0C381022B54AD1FD1189A04F0D0
:103CD0000F03D35C240944EA09744FEA191905F863
:103CE000013D54EA0903F2D15F4654AB5B1B0C93D0
:103CF000089A0C9900238A42B8BF0A460D9306928F
:103D00000F939DF883201393109372E604F007033A
:103D1000E40844EA49744FEAD909303354EA090106
:103D20002A4605F8013DF1D11BF0010FDCD0302B04
:103D3000DAD03023023A05F8013C54AB9B1A5F46B7
:103D400015460C93D4E7652E40F3E980DDE91401B4
:103D500000220023FCF796FE002800F0E1810123F9
:103D6000C8F80430299BC04A01330134072B2A9438
:103D70002993C8F8002000F3BF8408F10808229BAB
:103D8000129A934280F2DC82169B179A1C44C8E96F
:103D90000023299B2A940133072B299300F31784CE
:103DA00008F10808129B5D1E002D7FF7BCAD102D99
:103DB00041F35D81DFF8B492224649461026B946A8
:103DC000299B0F46DDF824B0079C05E008F10808A0
:103DD000103D102D40F39D8401331032072BC8E9AC
:103DE0000076CDE92932F1DD2146584628AA03F0B4
:103DF0007FFD00287FF411ADDDE929320DF1AC081B
:103E0000E6E70A9B069AA3EB020BBBF1000F7FF7D4
:103E100070ADBBF1100F41F35280DFF85092414674
:103E20002046A8464C461023299A079DDDF8249089
:103E300006E0ABF1100BBBF1100F01F1080119DD29
:103E400001321030072AC1E90043CDE92920F0DD15
:103E50002946484628AA03F04BFD00287FF4DDAC34
:103E6000DDE92920ABF1100BBBF1100F4FF010036F
:103E70002BA9E5DC4546A1468846044601325C4450
:103E8000072ACDE92924C8F80090C8F804B000F347
:103E9000918308F108082CE5BBF1100F40F3E3848F
:103EA000DFF8C89141462046A8464C461023299A7F
:103EB000079DDDF8249006E0ABF1100BBBF1100F6D
:103EC00001F1080119DD01321030072AC1E9004370
:103ED000CDE92920F0DD2946484628AA03F008FD4F
:103EE00000287FF49AACDDE92920ABF1100BBBF17F
:103EF000100F4FF010032BA9E5DC4546A14688467C
:103F0000044601325C44072ACDE92924C8F8009010
:103F1000C8F804B000F3D28108F10808F1E4129B5C
:103F2000012B40F382810123299E01341E44072E78
:103F3000C8F800502A94C8F80430299600F36C831E
:103F400008F10808169B0136179A1C44072EC8E989
:103F50000023CDE9296400F36C8308F108080022EE
:103F6000DDE914010023FCF78DFD002840F07A8183
:103F7000129B0136013B01351C44072EC8F8005046
:103F80002996C8F804302A9400F35F8108F10808E4
:103F90001A9B01361C44C8F80430072E24ABCDE927
:103FA0002964C8F800307FF7BCAC0799099828AAA3
:103FB00003F09EFC00287FF430AC2A9C0DF1AC0885
:103FC000B1E4B9F1100F40F3C686DDE9292140467E
:103FD000CDE91D36B84610244F46079EA946099DD7
:103FE00004E0103F102F00F1080016DD0132204BD5
:103FF0001031072AC0E90034CDE92921F1DD31462D
:10400000284628AA03F074FC00287FF406ACDDE9FA
:104010002921103F102F2BA8E8DC4D46DDE91D3685
:10402000B9464746804609EB010401321049072A88
:10403000CDE92924C8F80490C8F8001000F34083A3
:104040009DF8832008F108082CE4BB460A2C79F17E
:10405000000380F0FB82012330345F468DF84F412E
:104060000C930DF24F1543E68095000894950008D7
:10407000849500080799099828AA1D9303F038FC35
:1040800000287FF4CAAB2A9C1D9B0DF1AC081BE4F1
:104090000799099828AA03F02BFC00287FF4BDABF0
:1040A0002A9C0DF1AC0820E4102D40F3BE861026AA
:1040B000299B099FDDF81C9004E0103D102D08F1AC
:1040C000080817DD0133BA4A1034072BC8E9002667
:1040D000CDE92934F1DD4946384628AA03F008FC29
:1040E00000287FF49AABDDE92934103D102D0DF145
:1040F000AC08E7DC0133AE4A2C44072BCDE9293468
:10410000C8F80450C8F800207FF715AC0799099843
:1041100028AA03F0EDFB00287FF47FAB2A9C0AE479
:104120002299002940F31081DDF84090129B9945B7
:10413000A8BF9946B9F1000F0BDD299B4C44013310
:10414000072BC8E900592A94299300F3818508F1C7
:104150000808109EB9F1000FA8BFA6EB0906002EB3
:1041600000F3F582DDF840B07905AB4400F1AC8492
:10417000229B129A934202DBFA0740F19283169A2D
:1041800017991444C8E90012299A2A940132072A7F
:10419000299200F3A88508F10808129AAE18A6EB38
:1041A0000B06D51AAE42A8BF2E46002E0DDD299B68
:1041B00034440133072BC8F800B0C8F804602A94CF
:1041C000299300F3FC8508F10808002EA8BFAD1B59
:1041D000002D7FF7A8AB102D40F34987DFF8D4916D
:1041E000224649461026B946299B0F46DDF824B0E1
:1041F000079C05E008F10808103D102D40F3898266
:1042000001331032072BC8E90076CDE92932F1DD00
:104210002146584628AA03F06BFB00287FF4FDAA2C
:10422000DDE929320DF1AC08E6E7FE073FF57BAE8C
:104230000123299E01341E44072EC8F800502A94F9
:10424000C8F8043029967FF7A1AE0799099828AAE3
:1042500003F04EFB00287FF4E0AADDE929640DF1AC
:10426000AC0895E6129B5D1E002D7FF791AE102DD8
:1042700040F31987224608974FF0100BDFF834916E
:10428000099C079F05E008F10808103D102D40F338
:10429000C78201361032072EC8E9009BCDE929629A
:1042A000F1DD3946204628AA03F022FB00287FF4DE
:1042B000B4AADDE929620DF1AC08E6E7079909988F
:1042C00028AA03F015FB00287FF4A7AA2A9C0DF169
:1042D000AC08FFF716BB17F0100377D117F04002B8
:1042E00000F0AC820E9A994652F8044B0E92A4B29A
:1042F00008E41BF010030E9A54D11BF040014DD07E
:1043000052F8044B99460E920123A4B2FFF7FDBB6D
:1043100053F8044B0E93FB0653D47D064ED544F35D
:10432000C0394B4624B2FFF78EBB2D2364428DF873
:104330008330BB464FF0010369EB4909FFF7E8BB47
:10434000F8077FF5F0AA1FE50123C8F80430299B80
:10435000194A01330134072B2A942993C8F8002005
:1043600000F3688408F10808002940F02582129AB9
:1043700007F0010313433FF4D6AA169B1799E218DE
:10438000C8E90013299B2A920133072B299300F3D4
:10439000508308F1080820E254ADA9E41BF4007929
:1043A00040F0A08252F8044B01230E92FFF7ADBB00
:1043B000849500089495000880950008B80500F1E0
:1043C00079824FEAE4794B46FFF73DBB0E9B53F8E9
:1043D000044B0E93FFF796BBDDE9140102460B4632
:1043E000FCF782FB002840F0F785612E00F06C8519
:1043F000412E00F07F82089B013300F0948526F067
:104400002003472B069300F07B85DDE9141247F467
:1044100080730F931346002BC0F2F4850C93002396
:104420008B461D930D93069B462B00F02B84452B4A
:1044300000F0148508990C9B01910221009126A996
:10444000049123A9039122A95A460998029100F0E8
:10445000AFFF069B0546472B40F0448617F0010F3F
:10446000B9460F9F40F0F784269B5B1B1293069B77
:10447000472B00F0F182069B462B00F04284229BE2
:104480001093109B069A013B412A229300F08A85E3
:104490000021F2B2002B8DF89020B6BF2D222B22E6
:1044A000109B8DF89120B8BFC3F10103092B40F395
:1044B00081850DF19F0C6246BA4F1C46104687FB62
:1044C0000312D917C1EBA20101EB8102A3EB420257
:1044D0003032632C00F8012C0B4600F1FF32ECDC8B
:1044E0003033811EDBB28C4502F8013C40F2FF857F
:1044F0000DF1920101E012F8013B944501F8013BF6
:10450000F9D10DF1A1030DF192021B1A134424AA53
:104510009B1A1A93129B1A9A012B1A440C9240F37D
:104520009E850C9B169A13440C9300230C9A29F435
:10453000806722EAE27247F480770F930692139322
:1045400010931D9B002B40F0B0829DF883200893B0
:10455000FFF74FBA0E9B0B9853F8041BC217554632
:10456000C1E900020E93FFF7FCB98F4B189317F0C7
:10457000200949D00E9B073323F00703D3F804909A
:1045800053F8084B0E93F80709D554EA090306D0EF
:1045900030238DF8856047F002078DF884300223C0
:1045A00027F4806BFFF7B1BABB46FFF70DBB7F4B1B
:1045B0001893DCE70799099828AA03F099F90028CD
:1045C0007FF42BA92A9C0DF1AC08FFF792B907994B
:1045D000099828AA03F08CF900287FF41EA92A9CC8
:1045E0000DF1AC08FFF7DEBB062B294628BF0623DA
:1045F0002A4608950D9506936D4D0E940C930F91D8
:1046000013911091FFF7F5B917F0100369D00E9BC5
:1046100053F8044B0E93B6E70799099828AA03F0BC
:1046200067F900287FF4F9A8DDE929640DF1AC08E9
:1046300088E40799099828AA03F05AF900287FF41A
:10464000ECA8DDE929640DF1AC0888E400230BF443
:104650008062CDE90CA8069692461E46DDF864807D
:1046600054AF0CE00023204649460A22FCF77AFAB0
:104670000A2C79F100031BD3044689462F462046B5
:104680000A2200234946FCF76DFA30327D1E0136BE
:1046900007F8012CBAF1000FE4D098F800309E42E0
:1046A000E0D1FF2EDED00A2C79F1000380F0E0800B
:1046B000CDF864801296DDE90CA8069EFFF714BBC6
:1046C0000799099828AA1D9303F012F900287FF48E
:1046D000A4A89DF883202A9C1D9B0DF1AC08FFF730
:1046E000E1B817F0400200F0B4800E9A994652F8F3
:1046F000044B0E92A4B246E70799099828AA03F042
:10470000F7F800287FF489A82A9C0DF1AC08FFF780
:1047100036BB14463A464F46914601332C44072B8C
:10472000C8F80090C8F80450CDE929347FF7F9A8FB
:104730003BE4012BBB467FF4C6AA8CE40E9B0B998D
:1047400053F8042B554611600E93FFF70AB9102E4B
:1047500040F3AD84DFF85C90424648462146A846C7
:10476000B9464FF0100B0746299B099C079D04E0B2
:104770000832103E102E40F3488201331031072BCF
:10478000C2E9007BCDE92931F2DD2946204628AA7D
:1047900003F0AEF800287FF440A8DDE929312BAA08
:1047A000E7E700BF676666665095000864950008F5
:1047B0007895000894950008169B1798E218C8E9A8
:1047C0000003299B2A920133072B299300F331819F
:1047D00008F108080029C0F20283129901338C18ED
:1047E000072BCDE92934C8F80050C8F804107FF72A
:1047F00098A8FFF7DABB2846CDF820900E94FEF774
:10480000A9FE20EAE073CDE90C099DF88320CDF8DC
:104810003C90CDF84C90CDF840900693FFF7E9B866
:104820001446089F01362C44072ECDE92964C8F8A8
:104830000090C8F804507FF7A9AB06E517F400799B
:104840000E9B3DD053F8044B91460E93E4B2FFF714
:1048500059B917F400790E9B40D053F8044B914698
:104860000E93E4B28FE6299ADFF84C92FFF749BB2A
:104870001C9B1B99ED1A1A46284602F0C9FF98F8AE
:1048800001300BB108F10108204649460A220023F5
:104890000026FCF767F9EFE62D228DF88320FFF75D
:1048A00098B8129AAE18A6EB0B06D51AAE42A8BF5E
:1048B0002E468AE444F3C0194B4664B2FFF7C3B8EE
:1048C00053F8044B0E93FFF71DB90E9B0B9953F849
:1048D000042B554611800E93FFF743B853F8044B51
:1048E0000E9350E652F8044B894601230E92E4B22F
:1048F000FFF70BB930238DF8843058238DF88530BD
:10490000089B47F00204632B00F3E38200233BADD6
:104910000D9347F481730F93DDE914121346002BB6
:104920002746C0F240820C9300238B461D9326F04D
:1049300020030693612E00F01783412E7FF473ADA0
:1049400022AA58460C9902F0D3FE00224FF07F5362
:10495000FBF730FE02460B46CDE910230022002370
:10496000FCF790F808B101232293544B0C93089B59
:10497000CDE912A6CDE91E78DDE91067AB46DDF87A
:1049800030A003F1FF39109506E00022002309F161
:10499000FF39FCF777F8E8B90022494B3046394631
:1049A000FBF708FE0F460646FCF7B4F80446FBF793
:1049B00097FD0B46024639463046FBF743FC1AF892
:1049C0000430B9F1FF3FD8464D4606460F460BF876
:1049D000013BDAD13046394600223A4BA946DDF890
:1049E00048A0109DCDF84880CDE91001DDF87C800D
:1049F000139E1E9FFCF76EF8002840F04482DDE90C
:104A0000100100222F4BFCF73DF810B1E10700F137
:104A10003A824B46002B06DB302201335B440BF815
:104A2000012B5B45FBD1ABEB0503B94612930F9FFE
:104A30001DE50799099828AA02F05AFF00287EF47C
:104A4000ECAEDDE9293222990DF1AC08C2E6906D99
:104A500001F000FFFEF7B3BE229BDA1C109302DBCD
:104A6000089A934204DD023E26F02003069308E5EF
:104A7000109B129A9342C0F2828119F0010F00F04C
:104A8000A882169A13440C9319F4806F00F0908258
:104A9000109B6726002B00F346810C9B23EAE373EF
:104AA000069300230F9313934BE52D2200238DF8DB
:104AB00083200893FEF7A0BF949500086495000832
:104AC000000030400000E03F129B4246DDF84C8081
:104AD000EB185E460893CDF830A010972146199F39
:104AE000DDF87090DDF824A0DDF81CB00F9B139565
:104AF000B8F1000F2ED0002B6CD1013F08F1FF3828
:104B00001B9B4944C2E90039299B2A910133072B99
:104B1000299363DC0832089B38789B1B8342A8BF2B
:104B20000346002B1C460ADD29981944013007284A
:104B3000C2E900632A9129905BDC38780832002CA6
:104B4000B4BF0546051B002D15DC06440F9BB8F1CC
:104B5000000FD0D1002B3DD1DDE91235EB189E427C
:104B6000B346199790460C4628BF9B46DDF830A007
:104B7000109FFFF7FDBA102D40F36F821024299883
:104B800004E0103D102D02F1080216DD0130A84BA3
:104B900010310728C2E90034CDE92901F1DD594679
:104BA000504628AA02F0A4FE00287EF436AEDDE9C5
:104BB0002901103D102D2BAAE8DC01309C4B294423
:104BC0000728CDE92901556013604EDC387808329A
:104BD0000644BBE70F9B013B0F9391E759465046B4
:104BE00028AA02F085FE00287EF417AE2A992BAA87
:104BF00091E75946504628AA02F07AFE00287EF432
:104C00000CAE38782A992BAA99E7454690463A4641
:104C10000C464F46914601333444072BCDE92934E5
:104C2000C8F80090C8F8046000F35D8108F1080836
:104C3000FFF798BA0799099828AA02F059FE0028A8
:104C40007EF4EBAD22992A9C0DF1AC08FFF78CBBEA
:104C50000799099828AA02F04BFE00287EF4DDADE2
:104C60002A9C0DF1AC08FFF774BA5946504628AAA1
:104C700002F03EFE00287EF4D0AD38782A992BAAA7
:104C8000064463E708990C9B01910321009126A932
:104C9000049123A9039122A95A460998029100F090
:104CA00087FB03780546302B00F0C081229B089AD1
:104CB000B94613440F9FEC185846002200230C9964
:104CC000FBF7E0FE10B12346FFF7CFBB269BA342C4
:104CD000BFF4CBAB30215A1C26921970269B9C4204
:104CE000F9D8FFF7C2BB0799099828AA02F000FE7D
:104CF00000287EF492AD229B2A9C0DF1AC08FFF7B0
:104D00004CBA229A002A109240F3B981089909F00E
:104D100001030B4340F040816626109B0C9319F46D
:104D2000806F3FF4BAAE19990B78FF2B00F0D68153
:104D30000024109A204604E001300131FF2B00F0DE
:104D40006481934280F26181D21A4B78002BF3D1B7
:104D50000B780134F2E7DDE92921FFF764B9089BFC
:104D60009DF883200E9406930C9308900F90139057
:104D70001090FEF73EBE00230893FEF78ABC129BFC
:104D8000169A9A18109B0C92002B40F35D816726AF
:104D9000C5E70799099828AA02F0AAFD00283EF461
:104DA000E8ADFEF740BD26F0200306932D22DDE995
:104DB00014349B4604F100431D920C93BAE5079905
:104DC000099828AA02F094FD00287EF426AD229DC1
:104DD000129B2A9C0DF1AC085D1BFFF7F6B94E4201
:104DE000103180F2818141461024A846DFF84090BE
:104DF000DDF824B0079D04E00831103E102E40F38A
:104E0000998001331032072BC1E90094CDE9293292
:104E1000F2DD2946584628AA02F06AFD00287EF4F1
:104E2000FCACDDE929322BA9E7E7299BFFF762B942
:104E300094950008079B5B6EDD0707D4079B9B8951
:104E40009C0503D4079B986D01F004FD4FF0FF33E0
:104E50000B93FEF7F1BC089BEC182DE702210091A3
:104E600008995A464C1C26A9049123A9039122A90A
:104E70000C9B09980194029100F09AFA0546B946F4
:104E80002C440F9F18E7129B26930C9B1BF8012CB8
:104E9000D97B5B468A4209D1302003F8010C269B5E
:104EA0005A1E269213F8012C9142F6D0392A0BBFD4
:104EB0000C9A0132927AD2B203F8012CB3E5299A06
:104EC000DFF83492FEF7DABF30238DF88430782390
:104ED00014E50998591C01F067FD0546002800F00B
:104EE000F6800D9015E50799099828AA02F000FDB3
:104EF00000287EF492AC2A9C0DF1AC08FFF732B981
:104F0000089B002B08BF0123089347F480730F937D
:104F1000159B002BC0F2A980DDF850B01D900C93BA
:104F20000D90FFF787BA0623089326F02003069317
:104F3000FFF76BBA4546884601333244072BCDE96B
:104F40002932C8F80090C8F804607FF722AA0799B0
:104F5000099828AA02F0CCFC00287EF45EACDDE9BA
:104F600029320DF1AC0838E422AA58460C9902F017
:104F7000BFFB00224FF07F53FBF71CFB02460B46A2
:104F8000CDE9102300220023FBF77CFD08B10123AB
:104F900022935A4B0C93EAE4169B6626D3181944C5
:104FA0000C91BCE606F10F020121D2B2FFF772BAF2
:104FB000672672E500295FD130228DF892200DF12D
:104FC0009302303302F8013B24ABD31A1A93FFF754
:104FD000A1BA109B0C9357E5159B0320002BB8BF7B
:104FE0002D224FF00003A8BF9DF8832019460D9392
:104FF000434D444BB8BF8DF8832027F080070690BF
:10500000FEF7EFBC00230D93D0E619911092139098
:105010000F940F9A139B1C9913440C9A01FB0323C2
:105020000C9323EAE3730693FFF78BBA58460022EA
:1050300000230C99FBF726FD00287FF437AE089B70
:10504000C3F10103229332E6C3F101031A4422EAB9
:10505000E27367260C92069323E52998ADE519F0D3
:10506000010F3FF462AAFFF75CBA0D909EE6299B00
:10507000DFF88490FFF751BB0DF19202A1E7089A87
:1050800009F0010959EA020304D1012366260693B7
:105090000C9306E5169B662601331A4422EAE27356
:1050A0000C920693FDE4DFF85090FFF7BBBB299B01
:1050B000DFF84490AFE50E9B9AF80160924653F8F2
:1050C000042B0E9342EAE2730893FEF7E0BA079AC4
:1050D000938943F040039381FEF7A5BB00230F9310
:1050E000139396E7089CCAE6DFF80C9024E70223A6
:1050F0001A93FFF70FBA00BF949500085095000867
:10510000489500084C950008F0B54FF4806C1546A2
:10511000002406461F46ADF26C4D1AAB0093049373
:105120008B8916A823F00203ADF80C304B6E069461
:105130001993CB890C46ADF80E30CB69CDF808C079
:1051400007934B6ACDF814C0099301F07DFB2A4602
:105150003B4669463046FEF72BFA051E07DB6946DB
:10516000304601F01DF9002818BF4FF0FF35BDF89B
:105170000C305B0603D5A38943F04003A381169846
:1051800001F064FB28460DF26C4DF0BD38B5334B91
:1051900005461B680C460BB19A6B12B3B4F90C3080
:1051A00018079AB225D5216900292DD012F00100E7
:1051B00007D000256069A5604042A06139B1002098
:1051C00038BD950758BF6069A0600029F7D1120665
:1051D00058BF0846F4D543F040034FF0FF30A38199
:1051E00038BD184601F010F9B4F90C3018079AB21E
:1051F000D9D4D1062AD5520714D4216943F0080323
:10520000A3819AB20029D1D102F42070B0F5007FB9
:10521000CCD02146284601F01FFBB4F90C3021699F
:105220009AB2C3E7216B51B104F14002914204D01C
:10523000284601F0E1F9B4F90C3000222263002283
:10524000216923F02403C4E90012D7E7092243F0BF
:1052500040032A604FF0FF30A38138BD14000020C6
:10526000024B13B1024800F005B87047000000007F
:105270002D650008002301461A46184603F066BA59
:105280002DE9F04F03690C6985B0A342C0F2898013
:10529000013C01F11405A30000F11408019355F835
:1052A000243058F8242001338A469A4208EB8401BE
:1052B0008146B2FBF3F605EB840702913AD3002155
:1052C000AE4640460A46A34603955EF8045B046872
:1052D000ABB206FB03132D0C190C06FB05119BB298
:1052E000D21A1FFA84FC94448AB2C2EB144202EB35
:1052F0002C421FFA8CFC4CEA0243774540F8043BF1
:105300004FEA11414FEA2242DFD2019B5C4658F836
:105310000330039D73B9029B043B984504D307E017
:10532000984504F1FF3403D253F80429002AF7D03A
:10533000C9F810405146484602F0B2F800282CDB6C
:1053400040460023013655F8041BD0F800C08AB24D
:105350009A1A1FFA8CFE0B0C7244C3EB1C4303EB2E
:10536000224392B242EA0342AF4240F8042B4FEA92
:105370002343E8D258F8242008EB84036AB9043B9D
:10538000984504D307E0984504F1FF3403D253F85D
:105390000429002AF7D0C9F81040304605B0BDE80E
:1053A000F08F002005B0BDE8F08F00BF00000000C6
:1053B0002DE9F04F90469946016C99B00446CDE92D
:1053C0000489259D41B10123426C93408B604A6062
:1053D00001F010FE00232364B9F1000AB4BF0123D9
:1053E00000232B60764BBCBF2AF0004ACDF814A0F6
:1053F00033EA0A0300F0AA80DDE9042310461946C7
:1054000000220023CDE90A01FBF73CFB074670B1FF
:105410000123249A1360269B002B00F0E682694842
:105420001860431E0393039819B0BDE8F08F16ABC4
:10543000019317AB00932046DDE90A2302F0F6F84A
:105440005FEA1A56054640F09780DDE916763E443D
:1054500006F23240202840F3B783C0F140000AFA38
:1054600000FA06F2124028FA00F04AEA0000FBF7C0
:1054700027F80123013E0F93A1F1F8710022524B4E
:10548000FAF7E0FE48A3D3E90023FBF793F848A31B
:10549000D3E90023FAF7D8FE804630468946FBF769
:1054A0001FF845A3D3E90023FBF784F802460B4617
:1054B00040464946FAF7C8FE80468946FBF72AFB74
:1054C00000228346002340464946FBF7E5FA0028C0
:1054D00040F07E82BBF1160F00F26D82DDE90A0119
:1054E0003A4B03EBCB03D3E90023FBF7D5FA0028B3
:1054F00072D00023BE1B0E93731E0BF1FF3B06936D
:1055000000F1608200230993BBF1000F6BDA099B65
:10551000CDF81CB0A3EB0B030993CBF100030D9363
:10552000229B4FF0000B092B66D8052B40F34A83D2
:105530000026043B2293229B023B032B00F26C8645
:10554000DFE813F061045E045504380442F20F737F
:10555000249ACAF3130A13605AEA08031AD1269B45
:10556000002B00F068861A4B03930833269A0398A1
:10557000136019B0BDE8F08FDDE90A12C2F313031E
:10558000084643F07F510F97A6F2FF36169F41F46D
:10559000401173E7269B002B40F0EF830D4B0393E4
:1055A00041E700BFAFF3008061436F63A787D23F3D
:1055B000B3C8608B288AC63FFB799F501344D33F02
:1055C0000000F07F819500080000F83FF096000889
:1055D000A8950008A4950008BE1B731E069300F151
:1055E0008A840E900990069B5B44CDE9063B00231C
:1055F0000D93229B092B98D9002322934FF0FF3360
:105600000126089300230C9623930021089B6164D4
:105610001293204601F0C8FC0390002800F0048695
:10562000039B2364089B0E2B00F21481002E00F0D4
:1056300011810799002940F36084AF4B01F00F02FC
:1056400003EBC2030A46D3E900674FEA2118D105EC
:1056500040F11784DDE90A01A84B4FF0030AD3E9B2
:105660000823FBF7D1F8CDE9100108F00F08B8F1D5
:10567000000F13D0DFF8849218F0010F09D0D9E998
:10568000002330463946FAF795FF06460F460AF1E1
:10569000010A5FEA680809F10809EDD1DDE91001A6
:1056A00032463B46FBF7B0F8804689460E9B43B135
:1056B000002240464946924BFBF7EEF9002840F0A5
:1056C00035855046FAF70CFF42464B46FAF772FF13
:1056D0008C4B0022FAF7B8FDA1F15073CDE910010F
:1056E0001193089B002B00F09780079B1493089B55
:1056F00013930C9B002B00F0A984139A7E4B00207F
:1057000003EBC20353E902237F49FBF77DF8DDE990
:105710001023FAF797FDCDE9100149464046FBF703
:10572000F9F90746FAF7DCFE02460B4640464946C1
:10573000FAF788FDDDE91023039E303706F8017B78
:1057400080468946FBF7A8F9002840F02E85CDF861
:1057500054B00027DDE910AB1095139D13942AE097
:105760000137AF4280F22E85504659460022674BE2
:10577000FAF720FF0022654B82468B464046494699
:10578000FAF718FF89468046FBF7C4F90446FAF792
:10579000A7FE02460B4640464946FAF753FD303411
:1057A00052465B4606F8014B80468946FBF774F982
:1057B000002840F0F88442464B4600205049FAF752
:1057C00041FD52465B46FBF767F90028C8D0DDE98A
:1057D0001343109D039A079302E0964200F0CD8494
:1057E000B24616F8013D392BF7D00133DBB23370E6
:1057F000079B01330793C8E15046FAF771FE424612
:105800004B46FAF7D7FE3F4B0022FAF71DFDA1F1F8
:105810005073CDE9100111934046494600223C4B9C
:10582000FAF710FDDDE910894B46424606460F4661
:10583000FBF750F98146002840F0AF84DDE9100104
:10584000024601F1004330463946FBF725F90028AE
:1058500040F04883179B002BC0F28C80079A0E2AD9
:1058600000F38880244B03EBC203D3E900AB239BF6
:10587000002B1BDA089B002B18DC40F03183002240
:10588000234B50465946FAF795FE02460B46DDE992
:105890000A01FBF70BF9DDF820904E46002800F0D6
:1058A000CA82239BDDF80C80DF43CCE25246DDE95F
:1058B0000A785B4638464146FAF7A6FFFBF72AF915
:1058C00081460990FAF70CFE52465B46FAF772FEE3
:1058D000039E0B46024641463846FAF7B3FC09F1EF
:1058E000300306F8013B089B012B00F05F83069410
:1058F00001271C4604952AE0F0960008C896000887
:105900000000F03F00001C400000E03F0000244089
:105910000000144052465B4640464946FAF774FF81
:10592000FBF7F8F80546FAF7DBFD52465B46FAF757
:1059300041FE01370B46024649464046FAF782FCD3
:1059400005F13003A74206F8013B00F02C8300224A
:10595000AB4BFAF72FFE0022002380468946FBF767
:1059600091F80028D6D0049D069C079BB2460133CF
:1059700007930AE10C9A002A3DD0229A012A40F3AB
:105980009F82089B03F1FF380D9B4345C0F2708254
:10599000A3EB0808089B002BC0F24083069A1A4428
:1059A0000692099A17461A4409920121204601F0ED
:1059B000C9FB064623E00123BE1B0E93731E06930C
:1059C0007FF5A0ADC6F101030993002306939BE583
:1059D0005846FAF785FD42464B46FBF753F8002838
:1059E0007FF478AD0BF1FF3B74E5864B039303988E
:1059F00019B0BDE8F08FDDF83480099F0C9E002FB0
:105A00000CDD069900290B4608DDB942A8BF3B46CC
:105A1000099AFF1AD21ACB1A099206930D9BE3B189
:105A20000C9B002B00F06082B8F1000F10DD3146B6
:105A30004246204601F062FC06462A463146204690
:105A400001F0AEFB0346294620461D4601F0D2FA7E
:105A50000D9BB3EB080240F0DB820121204601F0F0
:105A600071FBBBF1000F814600F3B380229B012B39
:105A700040F388814FF0000A0120BBF1000F40F095
:105A8000B480069A104410F01F0000F09280C0F11C
:105A90002003042B40F3D383099BC0F11C00034473
:105AA0000244099307440692099B002B05DD294611
:105AB0001A46204601F07EFC0546069B002B05DDBC
:105AC00049461A46204601F075FC81460E9B002B84
:105AD00040F03881089B002B40F31E810C9B002B6B
