:020000040800F2
:1000000000500020C11C0008A1170008A317000819
:10001000A5170008A7170008A9170008000000008E
:10002000000000000000000000000000AB17000806
:10003000AD17000800000000AF170008B117000856
:10004000091D0008091D0008091D0008091D0008F8
:10005000091D0008091D0008091D0008091D0008E8
:10006000091D0008091D0008091D0008091D0008D8
:10007000091D0008091D0008091D0008091D0008C8
:10008000091D0008091D0008091D0008091D0008B8
:10009000091D0008091D0008091D0008091D0008A8
:1000A000091D0008091D0008091D0008091D000898
:1000B000B9170008C9170008091D0008091D000824
:1000C000091D0008091D0008091D0008091D000878
:1000D000091D0008091D0008D9170008091D00089E
:1000E000091D0008091D0008091D00080000000086
:1000F0000000000000000000000000000000000000
:0C01000000000000000000005FF808F1A3
:1001100010B5054C237833B9044B13B10448AFF341
:1001200000800123237010BDBC09002000000000E6
:1001300094D3000808B5034B1BB103490348AFF340
:10014000008008BD00000000C009002094D3000812
:1001500081F0004102E000BF83F0004330B54FEA78
:1001600041044FEA430594EA050F08BF90EA020FE5
:100170001FBF54EA000C55EA020C7FEA645C7FEA78
:10018000655C00F0E2804FEA5454D4EB5555B8BF9B
:100190006D420CDD2C4480EA020281EA030382EA0C
:1001A000000083EA010180EA020281EA0303362D9E
:1001B00088BF30BD11F0004F4FEA01314FF4801C71
:1001C0004CEA113102D0404261EB410113F0004F83
:1001D0004FEA03334CEA133302D0524263EB43033A
:1001E00094EA050F00F0A780A4F10104D5F1200ED8
:1001F0000DDB02FA0EFC22FA05F2801841F1000133
:1002000003FA0EF2801843FA05F359410EE0A5F106
:1002100020050EF1200E012A03FA0EFC28BF4CF037
:10022000020C43FA05F3C01851EBE37101F00045ED
:1002300007D54FF0000EDCF1000C7EEB00006EEBFA
:100240000101B1F5801F1BD3B1F5001F0CD3490884
:100250005FEA30004FEA3C0C04F101044FEA4452DB
:1002600012F5800F80F09A80BCF1004F08BF5FEA62
:10027000500C50F1000041EB045141EA050130BD42
:100280005FEA4C0C404141EB0101013C28BFB1F554
:10029000801FE9D291F0000F04BF01460020B1FA9F
:1002A00081F308BF2033A3F10B03B3F120020CDA72
:1002B0000C3208DD02F1140CC2F10C0201FA0CF050
:1002C00021FA02F10CE002F11402D8BFC2F1200CB5
:1002D00001FA02F120FA0CFCDCBF41EA0C0190406B
:1002E000E41AA2BF01EB0451294330BD6FEA0404B4
:1002F0001F3C1CDA0C340EDC04F11404C4F120029F
:1003000020FA04F001FA02F340EA030021FA04F3B0
:1003100045EA030130BDC4F10C04C4F1200220FA07
:1003200002F001FA04F340EA0300294630BD21FA45
:1003300004F0294630BD94F0000F83F4801306BF0B
:1003400081F480110134013D4EE77FEA645C18BFFF
:100350007FEA655C29D094EA050F08BF90EA020F96
:1003600005D054EA000C04BF1946104630BD91EA8E
:10037000030F1EBF0021002030BD5FEA545C05D191
:100380004000494128BF41F0004130BD14F58004D0
:100390003CBF01F5801130BD01F0004545F0FE4144
:1003A00041F470014FF0000030BD7FEA645C1ABF79
:1003B000194610467FEA655C1CBF0B46024650EAB0
:1003C000013406BF52EA033591EA030F41F40021DC
:1003D00030BD00BF90F0000F04BF0021704730B562
:1003E0004FF4806404F132044FF000054FF0000137
:1003F00050E700BF90F0000F04BF0021704730B5F8
:100400004FF4806404F1320410F0004548BF4042CC
:100410004FF000013EE700BF42004FEAE2014FEA21
:1004200031014FEA02701FBF12F07F4393F07F4FFC
:1004300081F06051704732F07F4208BF704793F0FF
:100440007F4F04BF41F40021704730B54FF4607412
:1004500001F0004521F000411CE700BF50EA010215
:1004600008BF704730B54FF000050AE050EA0102BE
:1004700008BF704730B511F0004502D5404261EB2E
:1004800041014FF4806404F132045FEA915C3FF46F
:10049000D8AE4FF003025FEADC0C18BF03325FEA0C
:1004A000DC0C18BF033202EBDC02C2F1200300FABD
:1004B00003FC20FA02F001FA03FE40EA0E0021FAE2
:1004C00002F11444BDE600BF4FEA410212F50012EA
:1004D00015D211D56FF47873B3EB625212D94FEA8B
:1004E000C12343F0004343EA505311F0004F23FA75
:1004F00002F018BF404270474FF00000704750EACA
:10050000013005D111F0004008BF6FF00040704786
:100510004FF00000704700BF80EA010C1CF0030F91
:1005200037D110F0030C20F0030021F0030150F844
:10053000042B08BF51F8043B0ED08CF0030C6FF075
:100540007F434FEACC0C23FA0CFC51F8043B42EAFF
:100550000C0243EA0C0300BFA2F1013C9A4201BF26
:100560002CEA020C1CF0803F50F8042B51F8043B9D
:10057000F2D04FEA02604FEA1222012828BFB0EB06
:10058000036F08BF1B0AF4D003F0FF03000EC01A6C
:10059000704710F0030F0AD010F8012B11F8013B3F
:1005A000012A28BF9A42F4D0A2EB030070474DF80D
:1005B000045D50F8042B01F0030521F0030151F80C
:1005C000043B022D26D04DD822F07F45B5EB132FEA
:1005D000A2F1013C2CEA020C0DD11CF0803C08BFBA
:1005E00051F8043B0AD185EA0205B5EB036F0CD143
:1005F00050F8042BE8E74FEA13235BE03CF07F4C14
:1006000054D10B784FEA126554E04FEA126503F0BB
:10061000FF034FE04FEA0245A2F1013C4FEA1545C6
:100620002CEA020CB5EB134F18D11CF0803C08BF2C
:1006300051F8043B07D185EA0205B5EB034F09D118
:1006400050F8042BE6E75FEA0C4C2FD10B884FEAF9
:1006500012452FE04FEA03434FEA12454FEA134396
:1006600028E000BF02F0FF05B5EB136FA2F1013CDB
:100670002CEA020C0DD11CF0803C08BF51F8043B61
:100680000AD185EA0205B5EB032F0AD150F8042BF5
:10069000E8E74FEA13630DE012F0FF0F06D051F8C0
:1006A000043B4FEA122523F07F4303E04FF00000A4
:1006B00020BC704705F0FF0203F0FF00012828BFAF
:1006C000904204BF2D0A1B0AF4D0A2EB000020BC0C
:1006D000704700BF844641EA000313F0030349D189
:1006E000403A23D30B6803604B6843608B68836098
:1006F000CB68C3600B6903614B6943618B6983619C
:10070000CB69C3610B6A03624B6A43628B6A836283
:10071000CB6AC3620B6B03634B6B43638B6B83636B
:10072000CB6BC36340304031403ADBD230320BD325
:100730000B6803604B6843608B688360CB68C36061
:1007400010301031103AF3D20C3205D351F8043B7B
:1007500040F8043B043AF9D2043208D0D2071CBF57
:1007600011F8013B00F8013B01D30B880380604680
:10077000704700BF082A13D38B07B1D010F00303D2
:10078000AED0C3F10403D21ADB071CBF11F8013B42
:1007900000F8013BA4D331F8023B20F8023B9FE76D
:1007A000043AD9D3013A11F8013B00F8013BF9D2E0
:1007B0000B7803704B7843708B788370604670477A
:1007C00070B54FF0FF0C4CF4E06C1CEA11541DBFE7
:1007D0001CEA135594EA0C0F95EA0C0F00F0DEF8B2
:1007E0002C4481EA030621EA4C5123EA4C5350EA97
:1007F000013518BF52EA033541F4801143F48013E8
:1008000038D0A0FB02CE4FF00005E1FB02E506F078
:100810000042E0FB03E54FF00006E1FB03569CF0CD
:10082000000F18BF4EF0010EA4F1FF04B6F5007FD3
:1008300064F5407404D25FEA4E0E6D4146EB060645
:1008400042EAC62141EA55514FEAC52040EA5E50CE
:100850004FEACE2EB4F1FD0C88BFBCF5E06F1ED878
:10086000BEF1004F08BF5FEA500E50F1000041EBAF
:10087000045170BD06F0004646EA010140EA02005C
:1008800081EA0301B4EB5C04C2BFD4EB0C0541EA7E
:10089000045170BD41F480114FF0000E013C00F393
:1008A000AB8014F1360FDEBF002001F0004170BDB7
:1008B000C4F10004203C35DA0C341BDC04F11404D0
:1008C000C4F1200500FA05F320FA04F001FA05F25C
:1008D00040EA020001F0004221F0004110EBD37029
:1008E00021FA04F642EB06015EEA430E08BF20EA55
:1008F000D37070BDC4F10C04C4F1200500FA04F3F8
:1009000020FA05F001FA04F240EA020001F0004189
:1009100010EBD37041F100015EEA430E08BF20EAFC
:10092000D37070BDC4F1200500FA05F24EEA020E44
:1009300020FA04F301FA05F243EA020321FA04F073
:1009400001F0004121FA04F220EA020000EBD3702A
:100950005EEA430E08BF20EAD37070BD94F0000F2A
:100960000FD101F00046400041EB010111F4801F5E
:1009700008BF013CF7D041EA060195F0000F18BF0F
:10098000704703F00046520043EB030313F4801F4B
:1009900008BF013DF7D043EA0603704794EA0C0F05
:1009A0000CEA135518BF95EA0C0F0CD050EA41061B
:1009B00018BF52EA4306D1D181EA030101F0004198
:1009C0004FF0000070BD50EA410606BF10461946C0
:1009D00052EA430619D094EA0C0F02D150EA0136CC
:1009E00013D195EA0C0F05D152EA03361CBF10460D
:1009F00019460AD181EA030101F0004141F0FE41AC
:100A000041F470014FF0000070BD41F0FE4141F42F
:100A1000780170BD70B54FF0FF0C4CF4E06C1CEA2F
:100A200011541DBF1CEA135594EA0C0F95EA0C0FE4
:100A300000F0A7F8A4EB050481EA030E52EA03359F
:100A40004FEA013100F088804FEA03334FF08055C0
:100A500045EA131343EA12634FEA022245EA1115ED
:100A600045EA10654FEA00260EF000419D4208BF9E
:100A7000964244F1FD0404F5407402D25B084FEA4B
:100A80003202B61A65EB03055B084FEA32024FF4F7
:100A900080104FF4002CB6EB020E75EB030E22BF54
:100AA000B61A754640EA0C005B084FEA3202B6EB14
:100AB000020E75EB030E22BFB61A754640EA5C00C3
:100AC0005B084FEA3202B6EB020E75EB030E22BF53
:100AD000B61A754640EA9C005B084FEA3202B6EB54
:100AE000020E75EB030E22BFB61A754640EADC0013
:100AF00055EA060E18D04FEA051545EA16754FEA75
:100B000006164FEAC30343EA52734FEAC2025FEA92
:100B10001C1CC0D111F4801F0BD141EA00014FF021
:100B200000004FF0004CB6E711F4801F04BF0143F2
:100B30000020B4F1FD0C88BFBCF5E06F3FF6AFAE0E
:100B4000B5EB030C04BFB6EB020C5FEA500C50F19E
:100B5000000041EB045170BD0EF0004E4EEA113121
:100B600014EB5C04C2BFD4EB0C0541EA045170BD28
:100B700041F480114FF0000E013C90E645EA060E6C
:100B80008DE60CEA135594EA0C0F08BF95EA0C0F9A
:100B90003FF43BAF94EA0C0F0AD150EA01347FF4E2
:100BA00034AF95EA0C0F7FF425AF104619462CE7B9
:100BB00095EA0C0F06D152EA03353FF4FDAE10461C
:100BC000194622E750EA410618BF52EA43067FF46D
:100BD000C5AE50EA41047FF40DAF52EA43057FF4FD
:100BE000EBAE12E74FF0FF3C06E000BF4FF0010C08
:100BF00002E000BF4FF0010C4DF804CD4FEA410C6C
:100C00007FEA6C5C4FEA430C18BF7FEA6C5C1BD038
:100C100001B050EA410C0CBF52EA430C91EA030FB9
:100C200002BF90EA020F0020704710F1000F91EA16
:100C3000030F58BF994208BF90422CBFD8176FEAE4
:100C4000E37040F0010070474FEA410C7FEA6C5CB2
:100C500002D150EA013C07D14FEA430C7FEA6C5CB9
:100C6000D6D152EA033CD3D05DF8040B704700BFE5
:100C70008446104662468C461946634600E000BF33
:100C800001B5FFF7B7FF002848BF10F1000F01BD05
:100C90004DF808EDFFF7F4FF0CBF012000205DF8D0
:100CA00008FB00BF4DF808EDFFF7EAFF34BF012055
:100CB00000205DF808FB00BF4DF808EDFFF7E0FFEE
:100CC00094BF012000205DF808FB00BF4DF808ED3F
:100CD000FFF7CEFF94BF012000205DF808FB00BFA6
:100CE0004DF808EDFFF7C4FF34BF012000205DF888
:100CF00008FB00BF4FEA410C7FEA6C5C02D150EA6E
:100D0000013C0AD14FEA430C7FEA6C5C02D152EA03
:100D1000033C02D14FF0000070474FF001007047D4
:100D20004A0011D212F5001211D20DD56FF478736A
:100D3000B3EB62520ED44FEAC12343F0004343EABF
:100D4000505323FA02F070474FF00000704750EA0A
:100D5000013002D14FF0FF3070474FF00000704774
:100D60004FEA4102B2F1E04324BFB3F5001CDCF1CD
:100D7000FE5C0DD901F0004C4FEAC0024CEA507005
:100D8000B2F1004F40EB830008BF20F00100704734
:100D900011F0804F21D113F13872BCBF01F0004037
:100DA000704741F480114FEA5252C2F11802C2F169
:100DB000200C10FA0CF320FA02F018BF40F00100EA
:100DC0004FEAC1234FEAD32303FA0CFC40EA0C009C
:100DD00023FA02F34FEA4303CCE77FEA625307D1D9
:100DE00050EA01331EBF4FF0FE4040F44000704710
:100DF00001F0004040F0FE4040F40000704700BFAA
:100E000053B94AB9002908BF00281CBF4FF0FF3171
:100E10004FF0FF3000F0AEB9ADF1080C6DE904CE33
:100E200000F03EF8DDF804E0DDE9022304B070478D
:100E300038B505460C460022002328462146FFF718
:100E400031FF28B928462146BDE8384000F00AB8ED
:100E5000284604F1004100F005F8404261EB4101F1
:100E600038BD00BFD0B500220B4B06460F46FFF73A
:100E7000A7FCFFF755FF0446FFF7ACFA0022074B2B
:100E8000FFF79EFC02460B4630463946FFF764F9F1
:100E9000FFF746FF2146D0BD0000F03D0000F041C5
:100EA0002DE9F047089E0D4604468846002B4DD19B
:100EB0008A42944668D9B2FA82F252B101FA02F338
:100EC000C2F1200120FA01F10CFA02FC41EA030808
:100ED00094404FEA1C41B8FBF1F71FFA8CFE01FB6E
:100EE000178807FB0EF0230C43EA084398420AD9FF
:100EF0001CEB030307F1FF3580F01E81984240F29E
:100F00001B81023F63441B1AB3FBF1F001FB10335A
:100F100000FB0EFEA4B244EA0344A6450AD91CEB2A
:100F2000040400F1FF3380F00981A64540F20681F8
:100F3000644402380021A4EB0E0440EA07401EB1CD
:100F40000023D440C6E90043BDE8F0878B4208D9AE
:100F5000002E00F0EE800021C6E900050846BDE83D
:100F6000F087B3FA83F100294AD1AB4202D382421F
:100F700000F2FC80841A65EB030301209846002EE2
:100F8000E2D0C6E90048DFE702B9FFDEB2FA82F23A
:100F9000002A40F09180A1EB0C0001214FEA1C4790
:100FA0001FFA8CFEB0FBF7F307FB1300250C45EA94
:100FB00000450EFB03F0A84208D91CEB050503F120
:100FC000FF3802D2A84200F2CE8043462D1AB5FB6C
:100FD000F7F007FB10550EFB00FEA4B244EA0544EF
:100FE000A64508D91CEB040400F1FF3502D2A64542
:100FF00000F2B6802846A4EB0E0440EA03409EE7C8
:10100000C1F120078B4022FA07FC4CEA030C25FAB9
:1010100007FA4FEA1C49BAFBF9F820FA07F309FB73
:1010200018AA8D401FFA8CFE1D4300FA01F308FB3D
:101030000EF02C0C44EA0A44A04202FA01F20BD949
:101040001CEB040408F1FF3A80F08880A04240F2D3
:101050008580A8F102086444241AB4FBF9F009FB66
:10106000104400FB0EFEADB245EA0444A64508D983
:101070001CEB040400F1FF356CD2A6456AD9023896
:10108000644440EA0840A0FB0295A4EB0E04AC4285
:10109000C846AE4656D353D0002E69D0B3EB0802F3
:1010A00064EB0E0422FA01F304FA07F71F43CC4065
:1010B000C6E90074002147E70CFA02FCC2F12001E6
:1010C00025FA01F34FEA1C4720FA01F195400D4340
:1010D000B3FBF7F107FB11331FFA8CFE280C40EA33
:1010E000034001FB0EF3834204FA02F408D91CEB1F
:1010F000000001F1FF382FD283422DD9023960441C
:10110000C01AB0FBF7F307FB1300ADB245EA004588
:1011100003FB0EF0A84208D91CEB050503F1FF38CC
:1011200016D2A84214D9023B6544281A43EA014169
:1011300038E73146304607E72F46E4E61846F9E639
:101140004B45A9D2B9EB020865EB0C0E0138A3E7B9
:101150004346EAE7284694E74146D1E7D0467BE795
:101160006444023847E7023B65442FE7084606E738
:101170003146E9E6704700BF10B5012801D070B1D3
:1011800010BD0E4C01224FF40071204600F0F6FF16
:1011900000224FF48071204600F0F0FFF0E7074C8A
:1011A00001224FF48071204600F0E8FF00224FF446
:1011B0000071204600F0E2FFE2E700BF000C0140B2
:1011C00010B5012801D060B110BD0C4C0122802166
:1011D000204600F0D3FF00224021204600F0CEFF41
:1011E000F2E7064C00228021204600F0C7FF0122D2
:1011F0004021204600F0C2FFE6E700BF000C01409E
:1012000010B5012801D060B110BD0C4C0122202185
:10121000204600F0B3FF00221021204600F0AEFF70
:10122000F2E7064C00222021204600F0A7FF012211
:101230001021204600F0A2FFE6E700BF000C0140AD
:1012400008B5012801D060B108BD012208210C4871
:1012500000F094FF00224FF400410A4800F08EFF96
:10126000F2E701224FF4004100F1804000F58430A4
:1012700000F084FF00220821014800F07FFFE3E72F
:10128000000C01400008014008B50A4B1B68C0F57E
:10129000FA7058639863D86318640120FFF76CFFF5
:1012A0000120FFF78DFF0120FFF7AAFF0120FFF7C4
:1012B000C7FF08BD2C0A002008B50A4B1B685863FD
:1012C000C0F5FA729A63DA6318640020FFF754FFDE
:1012D0000020FFF775FF0020FFF792FF0020FFF7C7
:1012E000AFFF08BD2C0A002038B505460C4618494A
:1012F000FFF712F928B117492846FFF70DF998B101
:1013000038BD154B1B685C639C63DC631C64012067
:10131000FFF732FF0020FFF753FF0020FFF770FFB9
:101320000120FFF78DFFEBE70B4B1B68C4F5FA7448
:101330005C639C63DC631C64FFF71EFF0120FFF706
:101340003FFF0120FFF75CFF0020FFF779FFD7E7A1
:10135000B0D30008B8D300082C0A00200000000019
:101360002DE9F843044605684368ED1AC76801FB98
:101370000577C7608668AE1B96FBF1F62846FFF737
:1013800039F80022184BFFF71BFA80468946384689
:10139000FFF730F810A3D3E90023FFF711FA024654
:1013A0000B4640464946FEF7D9FE80468946304600
:1013B000FFF720F80AA3D3E90023FFF701FA02465A
:1013C0000B4640464946FEF7C9FEFFF77DF8A5608B
:1013D000BDE8F883AFF300809A9999999999C93F2C
:1013E0009A9999999999B93F0000E03F10B4002467
:1013F000146050609460D4601C6059609C60DC6034
:1014000010BC70472DE9F04389B000240494059482
:1014100006940794334B9A6942F010029A619A69D4
:1014200002F010020092009A9A6942F020029A613A
:101430009A6902F020020192019A9A6942F004022C
:101440009A619A6902F004020292029A9A6942F041
:1014500008029A619B6903F008030393039BDFF87A
:10146000889022464FF40051484600F087FE1F4FF7
:1014700022464FF40041384600F080FEDFF87080CD
:1014800022464FF47E71404600F078FE4FF4005340
:1014900004930126059606940225079504A948465B
:1014A00000F05AFD4FF4106304930595079504A9C5
:1014B000384600F051FD4FF400430493059606941E
:1014C000079504A9384600F047FD4FF47E73049356
:1014D00005960694079504A9404600F03DFD09B025
:1014E000BDE8F083001002400010014000080140F8
:1014F000000C014038B50368164A934200D038BD4D
:1015000004465B68144801684A1C0260DBB2134859
:101510004354022A01D90A2B08D00F4B1B68012221
:101520000E491944204602F088F8E8E74A1E835C19
:101530000D2BF2D105460A4B0A4A0B4902F0E4F999
:1015400040220021284602F0B5F8034B00221A6021
:10155000E3E700BF00440040200A0020E00900202B
:10156000DC090020D8090020C0D3000872B6FEE7CD
:1015700000B591B02822002106A802F09BF80023B4
:1015800001930293039304930593012206924FF46F
:10159000803307930A9202220D920E934FF4E013C8
:1015A0000F9306A800F006FE80B90F2301930221D5
:1015B0000291002303934FF480620492059301A8E3
:1015C00001F02AF820B911B05DF804FBFFF7CEFF57
:1015D000FFF7CCFF30B599B0224800F04FF800F08B
:1015E000BBFBFFF7C5FFFFF70DFF00F0DBF900F0D5
:1015F0004DFA00F0BFFA00F0D7FA012208A91A4804
:1016000002F01BF86B4604AA1849096818480068DC
:10161000FFF7ECFE0BE0A9B21648FFF765FE14E0F9
:10162000A9B21548FFF760FE11E0002C15DB42F26D
:10163000107104A8FFF794FE054642F21071684647
:10164000FFF78EFE0446002DE5DC002DE8DB002CC4
:10165000EBDDA0B2FFF718FEE7E7A0B2FFF72CFE24
:10166000E5E700BFBC0A0020040B0020DC090020D5
:10167000D8090020B0D30008B8D3000808B5054B3E
:101680001860054B1868002302221946806802F092
:1016900063F808BD240A00200C000020022801D8AD
:1016A0000120704708B501F0DBFF0923036000202B
:1016B00008BD000010B5013801280AD814464FF0C3
:1016C000FF3392B20748006801F008FD40B9204698
:1016D00010BD01F0C5FF092303604FF0FF30F7E7AD
:1016E0000520F5E7240A0020022801D800207047D1
:1016F00008B501F0B5FF092303604FF0FF3008BDC6
:1017000008B501F0ADFF092303604FF0FF3008BDBD
:1017100008B548B94FF0FF3301220848006801F0CE
:101720003CFD40B9012008BD01F09AFF0923036088
:101730004FF0FF30F7E70520F5E700BF240A00204F
:1017400008B5022804D84FF400534B60002008BDB0
:1017500001F086FF09230360F8E7000082B00E4B1A
:101760009A6942F001029A619A6902F001020092BC
:10177000009ADA6942F08052DA61DB6903F0805343
:101780000193019B054A536823F0E06343F0007323
:10179000536002B0704700BF0010024000000140DB
:1017A000FEE7FEE7FEE7FEE7FEE77047704770479B
:1017B00008B500F0E3FA08BD08B5024801F0BFF82B
:1017C00008BD00BF2C0A002008B5024801F0B7F898
:1017D00008BD00BF740A002008B5024801F0CEFD24
:1017E00008BD00BF040B00200120704708B501F0C0
:1017F00037FF162303604FF0FF3008BD08B54FF0E8
:10180000FF31FFF7F3FFFEE710B503460C4A0D4921
:101810000D48006840B10C4800680344521A9342D6
:1018200006D8094A136010BD0748084C0460F2E767
:1018300001F016FF0C2303604FF0FF30F3E700BF09
:101840000050002000040000280A0020980B00200F
:101850007047000000B583B00368B3F1804F05D036
:10186000164A934216D003B05DF804FB03F5043327
:10187000DA6942F00102DA61DB6903F001030093E7
:10188000009B002211461C2000F09CFA1C2000F056
:10189000D1FAE8E70A4BDA6942F00202DA61DB6961
:1018A00003F002030193019B002211461D2000F06A
:1018B00089FA1D2000F0BEFAD5E700BF0004004001
:1018C0000010024010B588B00023049305930693DE
:1018D00007930368B3F1804F04D02D4A934231D06F
:1018E00008B010BD03F504339A6942F004029A610E
:1018F0009A6902F004020092009A9A6942F0080282
:101900009A619B6903F008030193019B03230493ED
:1019100002240594079404A91E4800F01DFB4FF40F
:10192000406304930594079404A91B4800F014FB3A
:101930001A4A536823F4407343F0E06343F400739E
:101940005360CDE7164B9A6942F004029A619A6996
:1019500002F004020292029A9A6942F008029A6125
:101960009B6903F008030393039BC02304930224A1
:101970000594079404A9074800F0EEFA03230493A2
:101980000594079404A9044800F0E6FAA8E700BF0C
:101990000004004000080140000C0140000001402C
:1019A0000010024000B58FB000230A930B930C93F4
:1019B0000D93089309930193029303930493059362
:1019C0000693079330484FF0804202604360836083
:1019D0004FF6FF72C2600361836101F0A7F800282F
:1019E00039D14FF480530A930AA9274801F0A2F98C
:1019F000002833D1244801F0C5F8002831D1002354
:101A00000893099308A9204801F014FA60BB6023E9
:101A10000193002202920392059201A91A4801F053
:101A20000FF920BB04220DEB0201174801F008F961
:101A300000BB082201A9144801F002F9E8B90C2200
:101A400001A9114801F0FCF8D0B90F48FFF73AFF9F
:101A50000FB05DF804FBFFF789FDC2E7FFF786FDD5
:101A6000C8E7FFF783FDCAE7FFF780FDCFE7FFF781
:101A70007DFDD7E7FFF77AFDDBE7FFF777FDDEE7D0
:101A8000FFF774FDE1E700BF2C0A002000B58FB01E
:101A900000230A930B930C930D93089309930193DE
:101AA0000293039304930593069307932F48304AB8
:101AB0000260436083604FF6FF72C260036183611E
:101AC00001F034F8002839D14FF480530A930AA961
:101AD000264801F02FF9002833D1244801F052F8AC
:101AE000002831D100230893099308A91F4801F069
:101AF000A1F960BB60230193002202920392059238
:101B000001A91A4801F09CF820BB04220DEB020148
:101B1000164801F095F800BB082201A9134801F00E
:101B20008FF8E8B90C2201A9104801F089F8D0B962
:101B30000E48FFF7C7FE0FB05DF804FBFFF716FD78
:101B4000C2E7FFF713FDC8E7FFF710FDCAE7FFF78D
:101B50000DFDCFE7FFF70AFDD7E7FFF707FDDBE74E
:101B6000FFF704FDDEE7FFF701FDE1E7740A00205F
:101B70000004004008B50A480A4B03604FF4E13303
:101B8000436000238360C36003610C224261836170
:101B9000C36101F073FA00B908BDFFF7E7FCFBE78A
:101BA000BC0A00200038014008B50A480A4B03600F
:101BB0004FF4E133436000238360C36003610C2270
:101BC00042618361C36101F059FA00B908BDFFF7B2
:101BD000CDFCFBE7040B00200044004030B589B089
:101BE000002304930593069307930368304A9342B6
:101BF00004D0304A93422BD009B030BD2E4B9A69A5
:101C000042F480429A619A6902F480420092009AFA
:101C10009A6942F004029A619B6903F004030193FC
:101C2000019B4FF40073049302230593032307934E
:101C3000224C04A9204600F08FF94FF480630493EE
:101C400000230593069304A9204600F085F9D3E705
:101C5000194BDA6942F40032DA61DA6902F40032CF
:101C60000292029A9A6942F004029A619B6903F017
:101C700004030393039B0423049302230593032388
:101C800007930E4D04A9284600F066F90823049333
:101C900000240594069404A9284600F05DF9224624
:101CA0002146262000F08EF8262000F0C3F8A3E796
:101CB000003801400044004000100240000801408C
:101CC000FFF7C6FD0B480C490C4A002302E0D4582C
:101CD000C4500433C4188C42F9D3094A094C002378
:101CE00001E013600432A242FBD301F0BFFCFFF716
:101CF00071FC704700000020BC09002028DA0008B1
:101D0000BC090020980B0020FEE7000010B5044637
:101D10000E4B18784FF47A73B3FBF0F30C4A10684B
:101D2000B0FBF3F000F094F868B90F2C01D9012052
:101D30000AE0002221464FF0FF3000F043F8054B47
:101D40001C60002000E0012010BD00BF0400002046
:101D5000000000200800002008B5074A136843F07F
:101D600010031360032000F01BF80F20FFF7CEFFD5
:101D7000FFF7F4FC002008BD00200240034A116870
:101D8000034B1B780B441360704700BF4C0B0020C3
:101D900004000020014B1868704700BF4C0B002066
:101DA000074AD36823F4E0631B041B0C000200F411
:101DB000E060034343F0BF6343F40033D3607047F4
:101DC00000ED00E000B5194BDB68C3F30223C3F15B
:101DD000070CBCF1040F28BF4FF0040C03F1040EF4
:101DE000BEF1060F18D9033B4FF0FF3E0EFA0CFC74
:101DF00021EA0C0199400EFA03F322EA0303194386
:101E000000280BDB0901C9B200F1604000F5614018
:101E100080F800135DF804FB0023E5E700F00F00F5
:101E20000901C9B2024B1954F4E700BF00ED00E00C
:101E300014ED00E0002807DB00F01F024009012339
:101E40009340024A42F82030704700BF00E100E0B2
:101E50000138B0F1807F0BD24FF0E0235861054A82
:101E6000F02182F823100020986107221A61704740
:101E70000120704700ED00E090F82130DBB2022B2A
:101E800006D004238363002380F8203001207047AC
:101E90000268136823F00E0313600268136823F0CE
:101EA00001031360036CC16B012202FA03F34B6060
:101EB00080F82120002380F8203018467047000069
:101EC00008B590F82130DBB2022B03D004238363E2
:101ED000012008BD0268136823F00E031360026836
:101EE000136823F0010313600368194A934214D066
:101EF000143293421FD0143293421ED014329342B4
:101F00001ED0143293421ED01432934202D04FF0AE
:101F1000807203E04FF4801200E001220D4B5A6002
:101F2000012380F82130002380F82030436B6BB10F
:101F300098470020CDE71022F0E74FF48072EDE7DC
:101F40004FF48052EAE74FF48032E7E70020C0E721
:101F5000080002400000024070B582B00024A44690
:101F6000A6E0804DAA4210D007D97F4DAA420CD0DE
:101F700005F58035AA4208D013E0A5F58015AA42E0
:101F800003D005F57025AA4207D18A68002A58D0E7
:101F9000012A51D04361082403E0A5F58015AA4227
:101FA000F3D0BEF1FF0F4ED80646BEF1FF0F4CD85E
:101FB0004FEA8C0233680F25954023EA050304FAA3
:101FC00002F2134333604B6813F0805F6ED0674BAF
:101FD0009A6942F001029A619B6903F0010301933F
:101FE000019B4FEA9C02951C614B53F825600CF055
:101FF00003039D000F23AB4026EA03065D4B984286
:1020000029D003F58063984200F08E8003F5806349
:10201000984200F08B8003F58063984219D0042326
:102020001AE0CC68BDE7CC680434BAE7CC68083461
:10203000B7E7CC680C34B4E703610824B1E70024A7
:10204000AFE70424ADE7061DAFE7ACF1080292004C
:10205000B0E7032300E00023AB4033430232444D9A
:1020600045F822304B6813F4801F61D0424A9368D0
:1020700043EA0E0393604B6813F4001F5ED03E4AA0
:10208000D36843EA0E03D3604B6813F4003F5BD080
:10209000394A536843EA0E0353604B6813F4803F98
:1020A00058D0354A136843EA0E0313600CF1010C53
:1020B0000A6832FA0CF353D0012303FA0CF302EA54
:1020C000030E33EA0202F1D14A68122A3FF649AF01
:1020D000122A3FF666AF01A555F822F08B1F0008C3
:1020E000232000082D2000083F200008A31F00081F
:1020F000A31F0008A31F0008A31F0008A31F0008B8
:10210000A31F0008A31F0008A31F0008A31F0008A7
:10211000A31F0008A31F0008A31F0008A31F000897
:102120002720000833200008012395E7022393E7C6
:10213000114A936823EA0E0393609CE70E4AD36822
:1021400023EA0E03D3609FE70B4A536823EA0E038A
:102150005360A2E7084A136823EA0E031360A5E759
:1021600002B070BD000022100000311000100240CB
:102170000000014000080140000401400AB1016173
:10218000704709040161704782B0084B1B68084A18
:10219000A2FB03235B0A00FB03F3019300BF019B37
:1021A0005A1E0192002BF9D102B0704700000020A6
:1021B000D34D6210002800F0F18170B582B0044662
:1021C000036813F0010F2CD0994B5B6803F00C03EC
:1021D000042B1DD0964B5B6803F00C03082B12D028
:1021E0006368B3F5803F41D0002B55D103F18043A4
:1021F00003F504331A6822F480321A601A6822F454
:1022000080221A6037E08A4B5B6813F4803FE7D086
:10221000874B1B6813F4003F03D06368002B00F06A
:10222000BF81236813F0020F75D0814B5B6813F0F8
:102230000C0F5FD07E4B5B6803F00C03082B54D06F
:102240002369002B00F08A807A4B01221A60FFF785
:10225000A1FD0546764B1B6813F0020F75D1FFF701
:1022600099FD401B0228F5D903209EE1704A1368AE
:1022700043F480331360636843B3FFF78BFD054677
:102280006B4B1B6813F4003FCBD1FFF783FD401B62
:102290006428F5D9032088E1B3F5A02F09D0644B59
:1022A0001A6822F480321A601A6822F480221A60B6
:1022B000E1E703F18043A3F53C331A6842F480223E
:1022C0001A601A6842F480321A60D4E7FFF762FDA0
:1022D0000546574B1B6813F4003FA2D0FFF75AFD89
:1022E000401B6428F5D903205FE1514B5B6813F470
:1022F000803FA5D14E4B1B6813F0020F03D023691A
:10230000012B40F04F814A4A136823F0F8036169BA
:1023100043EAC1031360236813F0080F33D0A369A5
:10232000002B5CD0434B0122C3F88024FFF732FD21
:1023300005463F4B5B6A13F0020F21D1FFF72AFDE0
:10234000401B0228F5D903202FE1394A136823F0F6
:10235000F803616943EAC1031360DCE7354B0022EF
:102360001A60FFF717FD0546314B1B6813F0020F8B
:10237000D1D0FFF70FFD401B0228F5D9032014E14F
:102380000120FFF701FF236813F0040F00F096808F
:10239000274BDB6913F0805F34D1254BDA6942F0BB
:1023A0008052DA61DB6903F080530193019B0125C0
:1023B000214B1B6813F4807F26D0E368012B3DD0AE
:1023C000002B53D103F1804303F504331A6A22F042
:1023D00001021A621A6A22F004021A6233E0154BF3
:1023E0000022C3F88024FFF7D5FC0546104B5B6A3A
:1023F00013F0020FC7D0FFF7CDFC401B0228F5D920
:102400000320D2E00025D3E70B4A136843F480731E
:102410001360FFF7BFFC0646074B1B6813F4807F71
:10242000CBD1FFF7B7FC801B6428F5D90320BCE0B3
:102430000010024000004242007000405F4A136AF0
:1024400043F001031362E36833B3FFF7A3FC0646CE
:102450005A4B1B6A13F0020F2FD1FFF79BFC801B16
:1024600041F288339842F3D903209EE0052B09D02E
:10247000524B1A6A22F001021A621A6A22F004020E
:102480001A62E0E74D4B1A6A42F004021A621A6AB5
:1024900042F001021A62D6E7FFF77CFC0646474B82
:1024A0001B6A13F0020F08D0FFF774FC801B41F287
:1024B00088339842F3D9032077E0E5B9E369002B2C
:1024C00072D03E4A526802F00C02082A56D0022B03
:1024D00017D03B4B00221A66FFF75CFC0446374BD3
:1024E0001B6813F0007F47D0FFF754FC001B022845
:1024F000F5D9032059E0314AD36923F08053D361E1
:10250000DCE72F4B00221A66FFF744FC05462B4BF5
:102510001B6813F0007F06D0FFF73CFC401B02282D
:10252000F5D9032041E0236AB3F5803F1AD023494F
:102530004B6823F47413226A606A024313434B60AE
:102540001F4B01221A66FFF725FC04461B4B1B6834
:1025500013F0007F0ED1FFF71DFC001B0228F5D9F8
:10256000032022E0154A536823F40033A1680B438B
:102570005360DCE7002018E0002016E0012B16D0A5
:102580000E4B5B6803F48031226A914211D103F44F
:102590007013626A93420ED1002006E0012070475A
:1025A000012002E0012000E0002002B070BD012007
:1025B000FBE70120F9E70120F7E700BF0010024028
:1025C000000042420F4B5B6803F00C02082A01D066
:1025D0000D487047C3F383420C49885C13F4803F75
:1025E0000BD0084B5B68C3F34043094AD35C064AEF
:1025F00002FB00F0B0FBF3F07047064B03FB00F06A
:10260000704700BF0010024000127A00E0D30008BB
:10261000F0D3000800093D00002800F0A08070B54C
:102620000D460446524B1B6803F007038B420BD246
:102630004F4A136823F007030B431360136803F03A
:1026400007038B4240F08D80236813F0020F17D0F0
:1026500013F0040F04D0474A536843F4E063536017
:10266000236813F0080F04D0424A536843F46053C0
:102670005360404A536823F0F003A1680B43536052
:10268000236813F0010F31D06368012B20D0022B97
:1026900025D0384A126812F0020F64D035494A68D2
:1026A00022F0030213434B60FFF774FB0646314BE5
:1026B0005B6803F00C036268B3EB820F16D0FFF780
:1026C00069FB801B41F288339842F0D9032045E032
:1026D000284A126812F4003FE0D101203EE0254A6A
:1026E000126812F0007FD9D1012037E0204B1B681F
:1026F00003F00703AB420AD91D4A136823F007030E
:102700002B431360136803F00703AB422DD12368FA
:1027100013F0040F06D0174A536823F4E063E1680E
:102720000B435360236813F0080F07D0114A536816
:1027300023F46053216943EAC1035360FFF742FF6A
:102740000C4B5B68C3F303130B4AD35CD8400B4BB1
:1027500018600B4B1868FFF7D9FA002070BD0120F4
:1027600070470120FAE70120F8E70120F6E700BFF3
:102770000020024000100240C8D3000800000020E2
:1027800008000020014B1868704700BF00000020BF
:1027900008B5FFF7F7FF044B5B68C3F30223034A56
:1027A000D35CD84008BD00BF00100240D8D3000859
:1027B00008B5FFF7E7FF044B5B68C3F3C223034A86
:1027C000D35CD84008BD00BF00100240D8D3000839
:1027D00070B4036A026A22F00102026246688269EA
:1027E00022F073020C6844EA020523F002028B68AF
:1027F00013430D4CA04209D00B4CA0420DD04660B3
:1028000085614A684263036270BC704723F0080325
:10281000CA68134323F00403EEE726F440764A69BE
:1028200032438E691643EAE7002C014030B4036A54
:10283000026A22F4807202624568C26922F0730261
:102840000C68224323F400738C6843EA04230F4C82
:10285000A04209D00D4CA0420ED04560C2614A682A
:10286000C263036230BC704723F40063CC6843EA60
:10287000042323F48063EDE725F440554C6945EAD1
:1028800004158C6945EA0415E7E700BF002C0140F8
:1028900030B4036A026A22F4805202624468C26958
:1028A00022F4E6420D6842EA052223F400538D68C3
:1028B00043EA0533074DA84206D04460C2614A6826
:1028C0000264036230BC704724F480444D6944EADA
:1028D0008514F2E7002C014010B4036A046A24F066
:1028E00001040462846924F0F00C4CEA021223F023
:1028F0000A030B438261036210BC704710B4036A81
:10290000046A24F010040462846924F4704C4CEAD4
:10291000023223F0A00343EA01138261036210BC78
:102920007047836823F070030B4343F00703836011
:10293000704770477047704770477047704710B5D1
:10294000044603681A6912F0020F11D0DA6812F017
:10295000020F0DD06FF002021A61012303770368A2
:102960009B6913F0030F70D0FFF7E6FF0023237776
:1029700023681A6912F0040F12D0DA6812F0040FFB
:102980000ED06FF004021A610223237723689B693B
:1029900013F4407F5FD02046FFF7CEFF002323775C
:1029A00023681A6912F0080F12D0DA6812F0080FC3
:1029B0000ED06FF008021A61042323772368DB69C5
:1029C00013F0030F4ED02046FFF7B6FF0023237706
:1029D00023681A6912F0100F12D0DA6812F0100F83
:1029E0000ED06FF010021A61082323772368DB6989
:1029F00013F4407F3DD02046FFF79EFF002323774E
:102A000023681A6912F0010F03D0DA6812F0010F7F
:102A100036D123681A6912F0800F03D0DA6812F0F9
:102A2000800F34D123681A6912F0400F03D0DA689E
:102A300012F0400F32D123681A6912F0200F03D030
:102A4000DA6812F0200F30D110BDFFF774FF204676
:102A5000FFF773FF8AE72046FFF76DFF2046FFF779
:102A60006CFF9BE72046FFF766FF2046FFF765FFF8
:102A7000ACE72046FFF75FFF2046FFF75EFFBDE7AC
:102A80006FF001021A612046FFF754FFC1E76FF0B3
:102A900080021A61204600F004FAC3E76FF040029A
:102AA0001A612046FFF74AFFC5E76FF020021A615E
:102AB000204600F0F5F9C7E703681B4A90420AD0A8
:102AC000B0F1804F07D0A2F59432904203D002F5C6
:102AD0008062904203D123F070034A681343124A84
:102AE00090420AD0B0F1804F07D0A2F594329042C4
:102AF00003D002F58062904203D123F44073CA6888
:102B0000134323F080034A69134303608B68C36255
:102B10000B688362044B984202D0012343617047E3
:102B20000B690363F9E700BF002C014040B310B507
:102B3000044690F83D30F3B1022384F83D3021463D
:102B400051F8040BFFF7B8FF012384F8463084F8EE
:102B50003E3084F83F3084F8403084F8413084F8C7
:102B6000423084F8433084F8443084F8453084F8A7
:102B70003D30002010BD80F83C30FEF76BFEDBE7F7
:102B80000120704740B310B5044690F83D30F3B1D2
:102B9000022384F83D30214651F8040BFFF78CFFE7
:102BA000012384F8463084F83E3084F83F3084F8BE
:102BB000403084F8413084F8423084F8433084F85F
:102BC000443084F8453084F83D30002010BD80F852
:102BD0003C30FFF7AEFEDBE70120704730B4036AFC
:102BE000026A22F0100202624468826922F4E6421C
:102BF0000D6842EA052223F020038D6843EA05139D
:102C00000E4DA84209D00D4DA8420ED044608261FD
:102C10004A688263036230BC704723F08003CD684A
:102C200043EA051323F04003EDE724F440644D69C3
:102C300044EA85048D6944EA8504E7E7002C0140F5
:102C400038B590F83C30012B66D004460D46012380
:102C500080F83C300C2A5AD8DFE802F0075959595D
:102C60001B5959593059595944000068FFF7B0FDB4
:102C70002268936943F0080393612268936923F003
:102C8000040393612268936929690B4393610020CF
:102C90003EE00068FFF7A2FF2268936943F40063F7
:102CA00093612268936923F4806393612268936936
:102CB000296943EA01239361002029E00068FFF7B6
:102CC000B5FD2268D36943F00803D3612268D36954
:102CD00023F00403D3612268D36929690B43D361CC
:102CE000002015E00068FFF7D3FD2268D36943F4A4
:102CF0000063D3612268D36923F48063D3612268BF
:102D0000D369296943EA0123D361002000E001204F
:102D1000002384F83C3038BD0220FCE710B48468FE
:102D200024F47F4C42EA03220A4342EA0C02826006
:102D300010BC704790F83C30012B78D010B5044699
:102D4000012380F83C30022380F83D30026893680C
:102D500023F47F4323F0770393600B68602B4CD000
:102D600029D8402B54D00CD9502B22D1CA6849689D
:102D70000068FFF7B1FD50212068FFF7D2FD002069
:102D800005E0202B0DD009D9302B0AD001200123DA
:102D900084F83D30002384F83C3010BD0BB1102B7B
:102DA00005D119462068FFF7BCFD0020EFE70120A0
:102DB000EDE70120EBE7B3F5805F34D0B3F5005FBA
:102DC0000CD1CB684A6889680068FFF7A7FF2268C2
:102DD000936843F4804393600020D8E7702B24D19C
:102DE000CB684A6889680068FFF798FF2268936893
:102DF00043F0770393600020C9E7CA684968006818
:102E0000FFF77CFD60212068FFF78BFD0020BEE707
:102E1000CA6849680068FFF75FFD40212068FFF736
:102E200080FD0020B3E70020B1E70120AFE70220DA
:102E30007047000090F83C30012B2CD010B40123D7
:102E400080F83C30022380F83D3003685A689C6863
:102E500022F0700C0A6842EA0C025A6003680F4ABA
:102E600093420AD0B3F1804F07D0A2F59432934237
:102E700003D002F58062934204D124F080044A68B2
:102E800014439C60012380F83D30002380F83C30DF
:102E9000184610BC70470220704700BF002C01404C
:102EA00070477047026802F10C0353E8003F23F4B7
:102EB00090730C3242E800310029F3D1026802F12C
:102EC000140353E8003F23F00103143242E80031B9
:102ED0000029F3D1036B012B05D0202380F8423069
:102EE000002303637047026802F10C0353E8003FBC
:102EF00023F010030C3242E800310029F3D1ECE753
:102F000090F84130DBB2212B01D00220704783685A
:102F1000B3F5805F17D0036A5A1C02621A780368FF
:102F20005A60C38C9BB2013B9BB2C3844BB902680D
:102F3000D36823F08003D3600268D36843F0400372
:102F4000D360002070470369002BE4D1036A1B881B
:102F50000268C3F308035360036A02330362E0E7C5
:102F600010B504460268136923F44053C1680B434B
:102F7000136183680269134342691A430168CB688D
:102F800023F4B05323F00C031343CB60026853695E
:102F900023F4407381690B4353610268134B9A42D7
:102FA00020D0FFF7F5FB024602EB820202EB820221
:102FB00063689B00B2FBF3F20D48A0FB02314909A4
:102FC000642303FB11231B013233A0FB03235B09A2
:102FD00003F0F00202EB011203F00F032168134427
:102FE0008B6010BDFFF7E4FB0246DDE700380140CF
:102FF0001F85EB512DE9F84305460F4616469946C5
:10300000DDF820802C68246837EA04030CBF4FF0F9
:10301000010C4FF0000CB4452DD1B8F1FF3FF1D0B9
:10302000B8F1000F05D0FEF7B5FEA0EB0900404552
:10303000E8D92A6802F10C0353E8003F23F4D07367
:103040000C3242E800310029F3D12A6802F114035E
:1030500053E8003F23F00103143242E80031002915
:10306000F3D1202385F8413085F84230002385F8DC
:103070004030032000E00020BDE8F88360B310B5C5
:10308000044690F8413013B3242384F84130226879
:10309000D36823F40053D3602046FFF761FF226812
:1030A000136923F4904313612268536923F02A03C0
:1030B00053612268D36843F40053D36000206064F6
:1030C000202384F8413084F84230606310BD80F8DA
:1030D0004030FEF783FDD7E7012070472DE9F0412E
:1030E00082B01E4690F84130DBB2202B4BD1044613
:1030F0000D46904600294AD00AB9012044E0002339
:103100004364212380F84130FEF744FE0746A4F8CB
:103110002480A4F82680A368B3F5805F02D04FF026
:1031200000080FE02369FBB14FF000080AE038F80F
:10313000023B2268C3F308035360E28C92B2013A67
:1031400092B2E284E38C9BB28BB100963B460022A4
:1031500080212046FFF74EFFD8B9002DE7D015F8A3
:10316000012B23685A60E8E7A8460025EAE70096A5
:103170003B46002240212046FFF73CFF58B9202360
:1031800084F8413000E0022002B0BDE8F081012067
:10319000FAE70320F8E70320F6E72DE9F04182B0D3
:1031A0001E4690F84230DBB2202B53D104460D4628
:1031B0009046002952D00AB901204CE00023436414
:1031C000222280F842200363FEF7E4FD0746A4F8BC
:1031D0002C80A4F82E80A368B3F5805F02D04FF056
:1031E000000817E0236913B14FF0000812E0A84669
:1031F00000250FE023685B68C3F3080328F8023B4F
:1032000003E023685B682B700135E28D92B2013ACE
:1032100092B2E285E38D9BB2BBB100963B460022A1
:1032200020212046FFF7E6FED0B9002DE2D0A368AA
:10323000B3F5805FE5D013B92369002BE1D0236893
:103240005B6803F07F032B70DEE7202384F84230B5
:10325000002000E0022002B0BDE8F0810120FAE782
:103260000320F8E7704708B50168CA6822F04002F9
:10327000CA60202280F84120FFF7F4FF002008BD3B
:10328000704708B5406A0023C385C384FFF7F8FF81
:1032900008BD704790F84230DBB2222B69D18368B9
:1032A000B3F5805F4FD0826AB3F5805F04D0002B06
:1032B00056D10369002B53D103685B681370836A8E
:1032C00001338362C38D9BB2013B9BB2C385002B4C
:1032D00051D100B583B00268D36823F02003D360D6
:1032E0000268D36823F48073D3600268536923F0C3
:1032F00001035361202380F8423000234363036BB2
:10330000012B33D100230363026802F10C0353E85D
:10331000003F23F010030C3242E800310029F3D1C2
:1033200003681A6812F0100F06D0002201921A6882
:1033300001925B680193019B818DFFF7AAFF00203A
:1033400003B05DF804FB0269002AACD1826A03680D
:103350005B68C3F308031380836A02338362B1E7B7
:1033600003685B6803F07F031370A8E7FEF7C2F8F9
:10337000E5E70220704700207047000030B583B0B9
:10338000044602681368D068516913F00F0505D12F
:1033900013F0200F02D010F0200F19D12DB111F031
:1033A000010119D110F4907F16D1216B01297DD034
:1033B00013F0800F03D010F0800F40F0188113F04D
:1033C000400F03D010F0400F40F0158103B030BD26
:1033D0002046FFF75FFFF9E713F0010F06D010F466
:1033E000807F03D0626C42F00102626413F0040F2C
:1033F00004D019B1626C42F00202626413F0020F51
:1034000004D019B1626C42F00402626413F0080F38
:1034100007D010F0200F00D119B1626C42F0080201
:103420006264626C002AD1D013F0200F02D010F039
:10343000200F29D123685B6903F04003626C12F00E
:10344000080F00D163B32046FFF72CFD23685B69AA
:1034500013F0400F20D0226802F1140353E8003F1C
:1034600023F04003143242E800310029F3D1E36B2A
:1034700073B1634A5A63E06BFEF722FD0028A5D0C2
:10348000E06B436B9847A1E72046FFF703FFD1E7C6
:103490002046FFF7F5FE99E72046FFF7F1FE95E796
:1034A0002046FFF7EDFE002363648FE713F0100F53
:1034B0003FF47EAF10F0100F3FF47AAF002301937A
:1034C0001368019353680193019B536913F0400FF4
:1034D00051D0E26B13685B689BB2002B3FF476AF70
:1034E000A18D99427FF672AFE3859369202B37D087
:1034F000226802F10C0353E8003F23F480730C327E
:1035000042E800310029F3D1226802F1140353E8A4
:10351000003F23F00103143242E800310029F3D1C7
:10352000226802F1140353E8003F23F040031432F1
:1035300042E800310029F3D1202384F842300023EF
:103540002363226802F10C0353E8003F23F01003C9
:103550000C3242E800310029F3D1E06BFEF78CFC1D
:1035600002236363A18DE38D9BB2C91A89B2204601
:10357000FFF78FFE2AE7A18DE38D9BB2C91A89B2AE
:10358000E38D9BB2002B3FF421AF00293FF41EAF27
:10359000226802F10C0353E8003F23F490730C32CD
:1035A00042E800300028F3D1226802F1140353E806
:1035B000003F23F00103143242E800300028F3D129
:1035C000202384F8423000232363226802F10C0395
:1035D00053E8003F23F010030C3242E8003000288B
:1035E000F3D1022363632046FFF753FEEEE6204645
:1035F000FFF786FCEAE62046FFF735FEE6E600BF69
:103600008332000881628285C285002343642223BD
:1036100080F84230036923B10268D36843F48073B1
:10362000D3600268536943F0010353610268D368B1
:1036300043F02003D3600020704708B590F8423073
:10364000DBB2202B08D149B10AB9012008BD002303
:103650000363FFF7D7FFF9E70220F7E70120F5E75B
:10366000014B1868704700BF0C00002070B50D4E6C
:103670000D4D761BB61006D0002455F8043B0134DE
:103680009847A642F9D1094E094D09F083FE761BF1
:10369000B61006D0002455F8043B01349847A642E2
:1036A000F9D170BD1CDA00081CDA000824DA000821
:1036B0001CDA0008830730B548D0541E002A3FD0DA
:1036C0000346CAB201E0013C3AD303F8012B9D073F
:1036D000F9D1032C2DD9CDB245EA05250F2C45EAA9
:1036E000054536D9A4F1100222F00F0C03F1200E8B
:1036F000E6444FEA121C03F1100242E9045542E984
:10370000025510327245F8D10CF1010214F00C0F81
:1037100003EB021204F00F0C13D0ACF1040323F0FE
:1037200003030433134442F8045B9342FBD10CF0CF
:1037300003042CB1CAB21C4403F8012B9C42FBD1F8
:1037400030BD64461346002CF4D1F9E70346144615
:10375000BFE71A46A446E0E72DE9F043694C0E4660
:10376000D4F80080174604461D4683B0B8F1000F18
:1037700003D0D8F83830002B77D0022F05D0012F96
:1037800000F2AC80002DC0F2A980636EDA0752D53A
:103790002146404601F0A4FD216B41B104F14003F4
:1037A000994202D0404601F0C7FE00232363002364
:1037B000B4F90CC0A3611CF0800F636064D12CF4D9
:1037C0004A6C2CF0030C022FA4F80CC06AD001AB99
:1037D000214640466A4602F079F8A3891843A08141
:1037E000002D2FD0002E2ED0D8F83830002B38D016
:1037F000009BC4E90465AB42B4F90C3026601CBFE1
:1038000043F40063A381012F04BF43F00103A381AC
:103810009AB213F008032CD0D1075DD500216D4278
:10382000A561656EA16015F0010527D00025284629
:1038300003B0BDE8F083A3899B05A9D4A06D01F076
:10384000BBFFA5E7009D284602F070F80646002859
:1038500047D0A38943F08003A381D8F83830002BE8
:10386000C6D1404601F070FDC2E7404601F06CFD54
:1038700083E7A360656E15F00105D7D1930524D5C4
:10388000284603B0BDE8F0834046216901F054FEAC
:10389000B4F90CC0022F2CF44A6C2CF0030CA4F8E1
:1038A0000CC094D100250021012204F143032360C0
:1038B0002361636E4CF0020CD807A4F80CC0A16021
:1038C0006261DDD41CF4007FDAD1A06D01F076FFD7
:1038D000284603B0BDE8F083A560CBE74FF0FF3585
:1038E000CEE7DDF80090A94504D0484602F01EF866
:1038F000064620B94FF0FF35B4F90CC0D3E74D466A
:10390000A7E700BF0C0000200EB44FF40172F0B521
:103910009CB021AD55F8047BADF8142002900690C0
:1039200000F066F8002604464FF6FF7C0A4B0B4970
:103930000A933A462B46086802A901950E961396FB
:10394000ADF816C00394079400F080F81CB0BDE8F1
:10395000F04003B0704700BF853900080C0000201C
:1039600010B50C46B1F90E1002F0E0FA002803DBA6
:10397000236D0344236510BDA38923F48053A381E1
:1039800010BD00BF002070472DE9F0410C46B1F991
:103990000C101F46CB05054616460BD421F480516A
:1039A000A1813B4632462846B4F90E10BDE8F041ED
:1039B00001F0CCBBB4F90E100223002201F000FF8D
:1039C000B4F90C10EAE700BF10B50C46B1F90E10BF
:1039D00001F0F6FEA389421C0EBF23F4805343F48A
:1039E00080532065A38110BDB1F90E1001F0D4BB46
:1039F00020F0030110F00300C0F1000051F8043B77
:103A000000F1040C4FEACC0C6FF000021CBF22FA4C
:103A10000CF213434FF0010C4CEA0C2C4CEA0C4C0A
:103A2000A3EB0C0222EA030212EACC1204BF51F803
:103A3000043B0430F4D0C2F1000102EA0102B2FA00
:103A400082F2C2F11F0200EBD20070472DE9F04F65
:103A5000ADF5317D02AF7B62B1F90C30814698043F
:103A60008A4608D4496E43F4005321F40051AAF861
:103A70000C30CAF86410134613F8012BFB637A6408
:103A8000002A01F0C0800023C7F838909946FB61F6
:103A90007B63BB613B623B63814B13F8028018F090
:103AA000080840F08180252A61D145464446F86BDC
:103AB0000278A2F12503411C552B64D8DFE813F0EE
:103AC00056006300630063006300840563006300C5
:103AD000630063006300D100D100D100D100D100A8
:103AE000D100D100D100D100D10063006300630098
:103AF0006300630063006300DC0063000905600588
:103B0000DC00DC00DC006300630063006300A604EB
:103B1000630063006A05630063006300740563006B
:103B2000630063006300AF04630063007A05630011
:103B30006300630063006300DC0063000B050E0795
:103B4000DC00DC00DC001D052905A604630011056E
:103B500041054F050C073105630063003505A204DC
:103B6000390563006300AF046300A204F963DAF867
:103B70000430002B47DDDAF80030FA6B197812F8C0
:103B8000012C914234D07B6B43B17B6BD3F8008026
:103B9000B8F1000F02D0404601F0D0FE386B07F5B7
:103BA0002F77BD46BDE8F08FDAF80420BC6B0EE03D
:103BB000DAF800303A491A7801338A5C11070ED5D9
:103BC000DAF8042009F10109013ACAE90032002AB1
:103BD000EEDC5146204603F0E9FE0028E8D0FB6BFE
:103BE00013F8012BFB637A64002A7FF455AFCAE710
:103BF0000133CAF80030DAF8043009F10109013B59
:103C0000CAF80430EBE75146B86B03F0CFFE00284A
:103C1000B1D03B6B1BB1BAF80C305A06B3D57B6BF5
:103C2000002B01F0C8807B6BDE88002E00F08587BA
:103C30000024A1467B6BD3F80080A8F1040555F859
:103C4000043F0134186801F079FE2B68B442C3F8D0
:103C50000090F4D14FF0FF333B63B8F1000F9AD1DD
:103C60009CE715F08F0F8ED104EB840402EB440423
:103C7000303C427808461CE70426F963DAF8043041
:103C8000002B40F3D9836B0640F1E083731E032BB6
:103C900001F2E380DFE813F00E025B01A7000600EB
:103CA00025D40008B86B01F07FFD631E0268B3F5F0
:103CB000AE7FBA6040F2BE856FF4AE72A31840F2D8
:103CC0005D143B60002607F5AC7351469B46C24627
:103CD000B046C7E9036645F4F0657B617E6008681D
:103CE0000278A2F12B0CBCF14E0F50D8DFE81CF08B
:103CF0001E034F001E034F004F007E03750075002A
:103D000075007500750075007500750075004F0031
:103D10004F004F004F004F004F004F00240373002F
:103D2000730073007B030A034F004F00B0024F0083
:103D30004F004F004F0064034F0049034F004F00F6
:103D40004F0042034F004F004F00310317034F0055
:103D50004F004F004F004F004F004F0024037300EF
:103D6000730073007B030A034F004F00B0024F0043
:103D70004F004F004F0064034F0049034F004F00B6
:103D80004F0042034F004F004F0031031703BB6841
:103D900093F800C0944513D1AB0511D525F42075D7
:103DA0003E61013C0BF8012B4A6809F10109013A17
:103DB000002A4A6040F3208401300860002C8ED134
:103DC000BE62BB6A4646D0468A46002B00F051824E
:103DD00025F480754DE22B05F2D518EB0A0FEFD1D3
:103DE00025F4C075DDE7631EB3F5AE7F07F5AC7350
:103DF0004FF0000888BF6FF4AE721E467B615346D9
:103E000094BF4FF0000B04EB020BCA4688BF40F290
:103E10005D14C1469846C7F828B0D7F820B045F4DD
:103E20005865D8F800201078A0F12B034D2B63D8EB
:103E3000DFE813F034036200340362006200D2034F
:103E400002020202020202020202020202023A0319
:103E50003A03620062006200620062006200620077
:103E60004E004E004E004E004E004E0062006200BA
:103E70006200620062006200620062006200620032
:103E8000620062006200620062006200620042033F
:103E90006200620062006200620062006200620012
:103EA0004E004E004E004E004E004E00620062007A
:103EB00062006200620062006200620062006200F2
:103EC00062006200620062006200620062004203FF
:103ED000BBF10A0F10DD25F4386506F8010BD8F8A0
:103EE0000430013B002BC8F8043040F392830132C8
:103EF000C8F80020013C94D14346E905C846C7F8FC
:103F000020B0D1469A4607D57B699E4200F2BA8519
:103F10007B699E423FF437AE15F0100240F08B8370
:103F20003B6A7969B86BFC693270A047AA0600F158
:103F300078832B0700F14E856C0740F1BA86D7F8DD
:103F400024B05BF8043B1880C7F824B070E3002C61
:103F500008BF4FF0FF3415F0010600F08D8315F017
:103F600010037B6140F09785290640F12586D7F83C
:103F700024B05BF8043BBB62002B3FF404AE80200E
:103F800001F0D4FC804600283FF449AEBB6A7A6B4E
:103F90001860D58893889D4280F0E3841068BB6ADE
:103FA000C7F824B040F825307B6B0135DD80202335
:103FB000C7F80C803B61DAF80030A24A1B78D35C6A
:103FC00013F008035AD19B4607F5AC7601F0E6FBE7
:103FD00058453FF41EAEDAE9003213F8011B013AEE
:103FE000CAF80030BB6906F80B10032BCAF804208E
:103FF0000BF1010B07F1500502D12B68042B04D003
:10400000082200212846FFF755FB32465B46414611
:10401000B86B009501F046FF421CB8613FF4F9AD62
:10402000002840F09D85C8F8000001F0A9FB002899
:1040300040F0B186D944013C7B69002B40F0678693
:10404000BB6A08F10408002B00F06186FB68A8EB4E
:1040500003053B69B3EBA50F40F2C286D7F814B055
:10406000DAF80430002B40F35D86DAF80030754A48
:104070001B78D35C1D0701D4002CA7D17B69002BD2
:104080007FF4ADADC8F80030BB6A002B00F036817C
:10409000FB683A69A8EB03018B1001339A4240F2A6
:1040A0002D81BC6A0431206801F056FF002840F0E1
:1040B000C18023E1002C08BF4FF0FF34E80740F136
:1040C000428315F010033B6140F0EE842906D7F8D7
:1040D00024B040F17B855BF8043BFB60002B3FF490
:1040E00052AD802001F022FC054600283FF497AD38
:1040F000FB687A6B1860B2F806809388984580F068
:104100001C841068FB687A6B40F8283008F10103C2
:10411000D3802023C7F824B0BD607B600026A8466A
:10412000C7F82890A146BC6907F5AC7B01F036FBC7
:10413000B0423FF46EADDAE9003213F8011B013AE8
:10414000032C0BF80610CAF80420CAF8003006F158
:10415000010607F1480502D12B68042B04D0082280
:1041600000212846FFF7A6FA5A4633464146B86B67
:10417000009501F097FE421C04463FF44AAD00282A
:1041800040F0C383C8F80000B86107F1500308226B
:10419000002118467B61FFF78DFAD7E90532DFF879
:1041A000A8C0B86BDCF8E0C007F14001E047012887
:1041B00000F04684002207F158039B5C002B00F0BE
:1041C0009385BB6A032C3344BB6200F03D8409F144
:1041D000FF393B695BB9FB6808F104083BB1BB6878
:1041E000A8EB03057B68B3EBA50F40F23384DAF844
:1041F00004300026002B40F39083B9F1000F95D1D5
:104200004546D7F82890BC613B69002B7FF4E7ACAA
:104210002B60FB68002B71D0BB687A68E91A8B10A1
:1042200001339A426AD9FC680431206801F094FE97
:10423000002863D0206061E0044B25F4386533F931
:104240001BB04AE625D400083C04002000D4000836
:10425000BAF1000F40F0FD81002E40F0E58205F438
:10426000E06CBCF5E06F00F01585BE624646D046B6
:104270008A46731E012B40F27E8508F1FF33062B20
:1042800040F2DC82EA0513D56B0500F199851BF835
:10429000011C0BF1FF33652909F1FF3402D04529D8
:1042A00040F00F835246B86BA1469B4603F03EFB9D
:1042B00015F010027FF493AC05F4C063B3F5806F82
:1042C0008BF8002000F0D783FB68002B40F093832D
:1042D00000227969B86B03F053F802460B46EE07EB
:1042E000C7E90A23D7F824B040F1D4820A46014630
:1042F0005BF8043BC3E90012C7F824B03B6B013301
:104300003B636CE42B0503D518EB0A0F3FF468AD53
:10431000BAF1020F7FF454AD4FF0030A41E5BAF150
:10432000070F7FF44DAD4FF0080A3AE52B067FF5F5
:1043300047AD25F0800534E52B0503D518EB0A0FB2
:104340003FF44EADB8F1010F7FF43AAD4FF00208E3
:1043500027E505F4186CBCF5807F7FF431AD012EA4
:104360007FF42EAD302645F400650BF8016B013C5F
:10437000002616E5BAF1060F7FF422AD4FF0070ACA
:104380000FE52B057FF51CAD05F4A06CBCF5806F27
:1043900005D06B057FF514AD002E3FF466AFAB057D
:1043A00004D43B69C7F804B0F31AFB6025F47865C0
:1043B000002645F4C075F4E4B8F1000F40F04181E7
:1043C0002EB905F4E06CBCF5E06F00F05D84BAF145
:1043D000010F03D0BAF1040F7FF4F2AC0AF1010A25
:1043E0005FFA8AFADDE42B05CED5F6E4EB057FF51E
:1043F000F4AC3B6825F080050136002B40F0458287
:10440000013CD1E42A077FF4BEAB32E42E077FF4EF
:10441000BAAB427845F002050846FFF74ABBF9639C
:1044200045F4007510233B628F4B0326FB61DAF8DD
:104430000430002B3FF727AC5146B86B03F0B6FAB7
:1044400000287FF4E6AB6B063FF520ACDAF80020DD
:1044500086491378CB5C18077FF518ACD7F838B0CD
:1044600007E0CAF8002081491378CB5C19077FF573
:104470000DACDAF8043009F10109013B002BCAF850
:10448000043002F10102ECDC5146584603F08EFA8A
:1044900000287FF4BEABDAF80020E4E72B067FF5B6
:1044A0002BAD25F0800518E5714B33F91BB0BBF13E
:1044B000080F3FF710AD1FE505F4C063B3F5007FAB
:1044C0007FF41AAD25F400754FF0100B45F4A0658C
:1044D00003E545F001050026F96345F04005FFF7C7
:1044E000CDBB2A077FF44FAB42786C2A00F01F83C4
:1044F000084645F00105FFF7DCBA2B077FF443AB14
:104500004278682A00F00D83084645F00405FFF75D
:10451000D0BA00233B62574B0326F963FB61FFF7D8
:10452000ADBBF96345F408757CE70226F963FFF734
:10453000A5BB0A233B624C4B0326F963FB61FFF7E3
:104540009DBB15F08F037FF41EAB7A6B002A00F041
:104550001D83427845F080050846FFF7AABAEB06AE
:1045600000F1AC812E0740F14083D7F824B0F96305
:104570005BF8043B83F80090C7F824B0FFF72FBB2B
:10458000F96345F001050A233B623A4B0326FB61C0
:10459000FFF774BBF96345F0010508233B62324B1A
:1045A0000326FB61FFF76ABB0226F96345F00105AC
:1045B000FFF764BB07F1580001F0D8FE012645F073
:1045C0004005F863FFF75ABB2C437FF4DCAA42781E
:1045D00010250846FFF76DBA2B057FF57EACBBF1C1
:1045E000000F03D14FF0080B45F40075690540F149
:1045F000418125F4B06570E4B86BB96203F0D6F977
:10460000B96A00287FF4DCAB002C7FF468ABFFF7BD
:10461000D7BB4146B86B03F0C9F900283FF46AAC38
:104620006AE4D7F824B05BF8043B1860C7F824B0FC
:104630003B6B01333B637B69F61AB044C144FFF71F
:10464000CEBAB8F1020F7FF4C2AE4FF00308FFF705
:10465000A8BBBAF1030F3FF4C1AEBAF1050F3FF4A6
:10466000BDAEFFF7ADBB00BF8177000825D40008C1
:1046700000D40008AD740008E80600F1CF8215F000
:10468000800500F06682D7F824B05BF8048BB8F19F
:10469000000F3FF478AA202001F048F905460028D1
:1046A0003FF4BDAA7A6BC8F80000D68893889E4272
:1046B00080F016811068C7F824B04FF0200B7B6B98
:1046C00040F826800136DE80DAF80030B5491A78E5
:1046D0008A5C100700F1F0812E46DAF80420013AD6
:1046E000CAF804205A1CCAF800201B7805F8013BC0
:1046F000AB1BB8F1000F02D05B4580F04D82013C4E
:104700000BD0DAF80430002B40F38082DAF8003066
:10471000A4491A788A5C1107DFD5A91B89440131A5
:1047200000232B70B8F1000F3FF4E8AD8B457FF606
:10473000E5ADD8F8000001F00FFC00283FF4DEAD35
:10474000C8F80000DAE5E80600F1B88115F0800548
:10475000D7F824B000F044825BF8045BBD62002D02
:104760003FF411AA202001F0E1F8064600283FF4AA
:1047700056AA7A6B28609388D5889D4280F0148170
:104780001068BB6AC7F824B040F825307B6B013550
:10479000DD802025DAF8002007F1580B13781BF88C
:1047A0000330002B3FF4EFA9B046C7F81490D94668
:1047B000AB463546BE6A4146DAF804000138CAF80D
:1047C0000400501CCAF80000107801F8010BA1EB9E
:1047D000050816B1D84580F0D8808846013C0BD03A
:1047E000DAF80410002940F31A81DAF80020117871
:1047F00019F801100029DED14646A8465D46D7F8D3
:104800001490B6EB08083FF4BEA900233370BB6ACE
:1048100023B108F101018D4200F242823B6BC14499
:1048200001333B63FFF7DBB9BE624646D0468A469A
:10483000FFF7CEBA00233B60FFF744BAB8F1020F8E
:1048400040F2E182B8F1030F3FF41CADA8F104047B
:10485000E4B26FEA0408BE6BD8441BF8011D52464F
:10486000304603F063F8D845F7D109F1FF33A3EBE5
:10487000040907E5BB6A25F4607513B1013BBB620F
:10488000013409F10109FFF72ABB3B68013B3B609A
:10489000FFF78ABAAC0700F1A580D7E90A23FCF735
:1048A00029FA5BF8044B002840F0BE82D7E90A01E0
:1048B000FCF756FAC7F824B020601FE5F963FFF74C
:1048C0008EB95246B86B03F031F8A9F102041BF817
:1048D000021CABF10203E5E4F9635EE6F96352E61C
:1048E0004FF6F67293423FF69EA97A6B08339BB25D
:1048F00010689900BB6201F02FFB00283FF493A9D8
:104900007A6BBB6A10609380D5E6831C40F09C8272
:10491000DAF80430002B3FF709AC5146B86B03F0CE
:1049200045F800283FF469AC4546D7F82890BC61AB
:10493000002E3FF469ACFFF76CB94FF6F672934264
:104940003FF671A908339EB27B6BB100186801F085
:1049500003FB00283FF467A97B6B9E801860FFF77C
:10496000D1BB4FF6F67293423FF65DA908339EB273
:104970007B6BB100186801F0EFFA00283FF453A9EF
:104980007B6B9E801860FFF70ABB4FEA4B0B2846F3
:10499000594601F0E1FA054600283FF440A9804459
:1049A00030601BE725D400084FF6F67293423FF6BD
:1049B0003AA908331FFA83F87B6B4FEA880118681D
:1049C00001F0CAFA00283FF42EA97B6BA3F80480FB
:1049D0001860D6E6D7F824B05BF8043B1870C7F827
:1049E00024B025E65BF8043BD7E90A12C3E90012BC
:1049F000C7F824B082E47C680A23B86B611C02F01B
:104A000055FDA346FB68C21A07F2AB239B4528BF9E
:104A100007F2AA2B5846C04901F0F2FC58E451466F
:104A2000B86B02F0C3FF00283FF4DFAE4646A8464D
:104A300046455D46D7F814907FF4E3AEFFF7E9B83A
:104A400097F84020FFF7B7BB2B68042B7FF4BFAB70
:104A5000FFF7BFBBB868D9001E4601F07DFAB86009
:104A600000283FF4DCA8FA68730000EB050810602A
:104A70007B60FFF7BCBB3B69B96A8B42A3EB0102C9
:104A8000C2D125E416F8011C5246B86B013E02F073
:104A90004DFFFFF73DBA002207F1440398463A6103
:104AA000FA60BA62FFF787BA002307F14405C7E945
:104AB00002337B60FFF732BB012131E6DAF80030C8
:104AC00007F1580B1A781BF80220002A3FF45BA864
:104AD0000133CAF80030DAF80430012C03F1FF3357
:104AE000CAF804301AD0BD6B10E0DAF800301A783A
:104AF00001331BF802208AB1CAF80030DAF804301A
:104B00000136013BB442CAF8043007D0002BECDC7C
:104B10005146284602F04AFF0028E6D0B144FFF78C
:104B20005EB8827845F008050230FEF7C2BF827891
:104B300045F002050230FEF7BCBF4FF0FF333B6388
:104B40007B6BD3F80080B8F1000F7FF424A8FFF747
:104B500025B8AB467E6AD84656F8045B7E62B3E55C
:104B6000BB6902333FF47CAAD8F8000000F008FECD
:104B7000002840F01081BB69D944032B7FF45BAA65
:104B80002B68042B7FF457AAFFF756BA82B0CDE901
:104B9000023302AB7B63DCE44FEA4B0B30465946F1
:104BA000BB6201F0D9F9064600283FF438A8BB6A79
:104BB000C8F80000C518A2E57E6A7B6956F8048B28
:104BC000C7E90333BB627E62FFF7F5B93B695BF867
:104BD000045BC7E90133FB60C7F824B0FFF79EBA56
:104BE0005BF8046BC7E909B5D4E56C0740F1A78011
:104BF000D7F824B0F9635BF8043BA3F80090C7F83A
:104C000024B0FEF7ECBF3A63FEF7C8BF5146B86B5D
:104C100002F0CCFE00283FF479AD7EE5DAF80030F2
:104C20003E491A788A5C11073FF578AF0133CAF81C
:104C30000030DAF80430012C03F1FF33CAF80430F5
:104C400000F0FA800126BD6B13E0DAF8003033493A
:104C50001A7801338A5C12073FF560AFCAF800305A
:104C6000DAF804300136013BB442CAF804303FF4AC
:104C700055AF002BE9DC5146284602F097FE00288C
:104C8000E3D0B144FEF7ABBF4FF0010825F4F06567
:104C9000FFF787B84FF0010A25F4F065FFF781B8F8
:104CA00018681C4601F058F900283FF4B7AD2060A1
:104CB000B4E515F001027FF4B4ACA9077FF5B1ACFF
:104CC000174BF969B86B99423B6A796900F0B88073
:104CD00002F0B6FC0B46D7F824B05BF8041BC1E920
:104CE0000003C7F824B0A3E44546D7F82890BC6178
:104CF000002E3FF489AABC6B013E524620461BF8A9
:104D0000061002F013FE002EF6D1FFF77DBA4FF029
:104D1000000BFFF7A5B900BFF8D3000825D40008A1
:104D2000817700085146B86B02F040FE00283FF43E
:104D30009CA9BBF1000F7EF46CAFFFF79FB9E807A9
:104D40000ED4AA070CD5D7F824B04FEAE9735BF864
:104D5000042BF963C2E90093C7F824B0FEF73FBF04
:104D6000D7F824B0F9635BF8043BC3F80090C7F8A8
:104D700024B0FEF734BF7C69D7F83890A3457EF69F
:104D800002AF1BF8011D5246484602F0CFFDA34575
:104D9000F7D1FEF7F8BEBBF1000F3FF46FA95C46F8
:104DA000BD6B013C52462846315D02F0BFFD002C30
:104DB000F7D1FFF763B94FF0FF333B63FEF7EEBE69
:104DC0007C69D7F83890A3457EF6DDAE1BF8011D4F
:104DD0005246484602F0AAFDA345F7D1FEF7D3BEDE
:104DE000F868D90001F0B8F8F86000283EF417AF71
:104DF0003B69B96A5B00D7F814B000EB050808609E
:104E00003B61FFF72DB97B69D7F838909B457EF65B
:104E1000BAAE1BF8011D5246484602F087FD7B6979
:104E20009B45F6D1FEF7AFBEB248C7F824B001F0FB
:104E3000E3FA2060FFF762BA2646B144FEF7CFBE20
:104E400002F072FD0B4646E7D8F80030BB61013333
:104E50007FF49BA9BA69FFF7AEB9012C38BF0124D2
:104E600015F0010300F0988015F010037B6140F00D
:104E7000DA802A0640F1DE80D7F824B05BF8043BE4
:104E8000BB62002B3EF47FAE802000F04FFD064653
:104E900000283EF4C4AEBB6A7A6B1860B2F8068094
:104EA00093889845C0F0F6804FF6F67293423EF62E
:104EB000BAAE08339DB27B6BA900186801F04CF8BC
:104EC00000283EF4B0AE7B6B9D801860BB6AC7F8CB
:104ED00024B040F828307B6B08F10108A3F8068065
:104EE000B3464FF02008002500F058FCA8423EF4DD
:104EF00090AEDAE9003213F8011B013ACAF8042037
:104F000007F5AC725155BA69CAF80030032A05F1A9
:104F1000010307F1500502D12A68042A06D00822AD
:104F200000212846BB61FEF7C5FBBB693146B86B63
:104F3000009507F5AC723B6100F0B4FF431CB8610B
:104F40003EF467AE3B69002840F0B4807A6902B94C
:104F500032609944013C7B6943B9BB6A2BB1A6EB33
:104F60000B05B8EBA50F40F2D9800436DAF804300F
:104F70000025002B40F3A780002CB5D1BB6A2BB1D4
:104F8000A6EB0B01B8EBA10F00F2D7807B69002BD9
:104F90007EF425AEFFF7B2B9EE0654D42D066AD5DD
:104FA0007E6A56F8045B002D3EF4EDAD204600F01D
:104FB000BDFC804600283EF432AE7A6B2860B2F821
:104FC00006B093889B4573D34FF6F67293423EF634
:104FD0002AAE7A6B08339BB210689900BB6200F06E
:104FE000BBFF00283EF41FAE7A6BBB6A1060938053
:104FF0007B6B40F82B500BF1010BA3F806B0414638
:1050000023460122B86BCDF800A002F0EDFC8046EB
:10501000002864D084426FD83B6BC14401337E6268
:105020003B63FEF7DCBD4FF00008C3464646C7F8B9
:10503000288058E77B6A7A6953F8046B9046934658
:10504000BA627B624FE71D46DAF804309C4223DDEA
:10505000DAF8002051461A44B86BCAF800201D4403
:10506000E41A02F0A3FC0028EED0002D3EF4D1ADEE
:10507000A944FEF7B4BD7E6A234631680122B86BAD
:10508000CDF800A002F0B0FC804600283EF4C1AD8F
:105090000436C1E7106819E71B1BCAF80430DAF8B8
:1050A000003025441C44CAF80040A944FEF797BDCF
:1050B00010689DE7BA69023226D1DAF804201D464D
:1050C000002A3FF711AF5146B86B02F06FFC002881
:1050D0003FF452AF002D3FF451AFFEF79ABD3B6B4A
:1050E000002B3EF4A0ADBAF80C305B067EF54DAD5A
:1050F000FEF799BDC0D900080146286800F02CFFD2
:10510000002889D0286087E79944BB69032B7FF486
:1051100021AF2B68042B7FF41DAF1CE758464FEAE4
:10512000C80100F019FF834600283EF478ADBB6A41
:10513000461918604FEA480817E7BC6A206800F073
:105140000BFF00283FF422AF20601FE738B50C4664
:10515000114600228446074D20462A601A466446BE
:10516000FCF7A8FA431C00D038BD2B68002BFBD0FD
:10517000236038BD940B0020024B13B1024800F0AD
:1051800005B87047000000006D5400080023014678
:105190001A46184604F01EBA002238B5064D0446D9
:1051A00008462A60FCF7A0FA431C00D038BD2B68E3
:1051B000002BFBD0236038BD940B0020B1F90C20EC
:1051C000F8B50C461107074643D4636842F4006201
:1051D000002BA2815BDDA56A002D56D000233E681E
:1051E0003B6093B212F4805255D101233846E169F5
:1051F000A847421C65D0A389A56A5B0705D56368EB
:10520000C01A236B0BB1E36BC01A0246E16900239D
:105210003846A847411C40D13B68002B3DD01D2B90
:1052200001D0162B54D10022A38923F40063A3815B
:105230002369C4E90032216B3E6031B304F14003BD
:10524000994202D0384600F077F9002318462363CC
:10525000F8BD2669CEB193B29A0718BF002325681E
:1052600008BF63692660AD1BA3600CE02B46324685
:10527000D4F824C03846E169E047B0F1000CA5EB52
:105280000C05664416DD002DF0DC0020F8BDE36B54
:10529000002BA0DCF9E7206DAFE70022B4F90C3059
:1052A000626023F400632269A381DB042260C2D51B
:1052B0002065C0E7A3894FF0FF3043F04003A3818E
:1052C000F8BD3B68002B96D01D2B06D0162B04D0C2
:1052D000A38943F04003A381F8BD00203E60F8BDE0
:1052E00038B505460C4608B1836BA3B1B4F90C0080
:1052F000B8B1636EDB0701D4810515D52846214678
:10530000FFF75CFF636E0546DA0702D4A3899B05AD
:105310000ED5284638BD00F017F8B4F90C00002867
:10532000E7D10546284638BDA06D00F045FAE5E70F
:10533000A06D00F043FA284638BD00BF014900F0D7
:10534000FBB900BF5DA600082DE9F0478246394849
:1053500000F032FADAF83840002C66D10423032238
:105360003549DAF80450CAF83C10DFF8D090DFF87D
:10537000D080344F344E0AF53B71CAE9B921CAF8DE
:10538000E0422146EB600822C5E90044C5E9044437
:105390006C66AC60AC6105F15C00FEF78BF9C5E9A9
:1053A0000759C5E90987EE6205F1580000F000FAD7
:1053B000DAF80850254B2146EB600822C5E9004485
:1053C000C5E904446C66AC60AC6105F15C00FEF7B5
:1053D00071F9C5E90759C5E90987EE6205F1580079
:1053E00000F0E6F9DAF80C50194B2146EB60082280
:1053F000C5E90044C5E904446C66AC60AC6105F1E4
:105400005C00FEF757F905F15800C5E90759C5E9F1
:105410000A76C5F8248000F0CBF901230548CAF8C4
:105420003830BDE8F04700F0C9B90248BDE8F047A0
:1054300000F0C4B95C0B00203D530008613900083E
:1054400089390008C9390008E93900080900010054
:1054500012000200014800F0AFB900BF580B002055
:10546000014800F0ABB900BF580B002038B5084B1D
:10547000084D5B1B9C1007D0043B1D44013C55F8B4
:1054800004399847002CF9D1BDE8384007F088BFAF
:1054900028DA000824DA0008F8B50C46234F06463F
:1054A00000F038FDBB685D68C4F57E6325F0030538
:1054B0000F332B4423F47F6323F00F03A3F58054B1
:1054C000B4F5805F07DB0021304600F03DFFBB688C
:1054D0002B44984204D0304600F022FD0020F8BD55
:1054E0003046614200F030FF01300DD0104ABB68F9
:1054F0002D1B45F001055D60136830461B1B1360D2
:1055000000F00EFD0120F8BD0021304600F01CFF28
:10551000BA68831A0F2BDEDD43F001035360054B9D
:1055200003491B68C01A0860D5E700BFA805002022
:10553000600B0020B009002000295ED0F8B50C46B1
:10554000064600F0E7FC54F8042C784FA4F1080557
:1055500022F001016818D7F808C04368844523F099
:10556000030300F08780D207436034D454F8082C3A
:1055700007F10804AD1A1144AA68A24268D000EBF2
:10558000030CDCF804E0D5F80CC01EF0010FC2F8E3
:105590000CC0CCF8082000F0918041F001036B6052
:1055A0000160B1F5007F31D24A09CB080121914059
:1055B0007A6801331143796007EBC30257F833105F
:1055C000083AC5E9021247F83350CD603046BDE8CD
:1055D000F84000F0A5BCC2185268D2070ED4194496
:1055E00007F108048368A34270D0C268DA60936050
:1055F00041F001036B606950D3E7704741F001034C
:10560000B1F5007F44F8043C0160CDD3B1F5206FC3
:105610004FEA512347D28B0903F1390003F13802D5
:10562000C300F818FB580838984258D05A6822F03E
:1056300003028A4202D99B689842F7D1D868C5E92B
:10564000023085603046DD60BDE8F84000F068BC9F
:10565000C2185268D20763D40B44D0E90212CA6060
:10566000916043F001026A603046EB50BDE8F840BB
:1056700000F056BC0B44D10707D454F8082CAD1ADF
:105680001344D5E90212CA60916043F001026A60D6
:10569000274ABD6012689A4298D8264B304619684E
:1056A000FFF7FAFE92E7142B0AD9542B1FD80B0BE5
:1056B00003F16F0003F16E02C300B2E7194491E7F2
:1056C00003F15C0003F15B02C300AAE741F00103B0
:1056D000C7E90455C5E902446B60695076E70121CA
:1056E000921001FA02F279680A437A60A7E7B3F5EB
:1056F000AA7F06D8CB0B03F1780003F17702C30031
:105700008FE740F25452934206D88B0C03F17D0090
:1057100003F17C02C30084E74FF47E737E2280E7AE
:1057200041F001036B60016050E700BFA805002055
:10573000B4090020900B00202DE9F8434FF0000938
:105740000746884600F53876D6E90154013D10D465
:10575000A389013D012B08D9B4F90E30013304D0DF
:1057600021463846C04749EA00096B1C04F1680429
:10577000EED13668002EE7D14846BDE8F88300BF79
:10578000002100F001B800BFFF289DBF024BC05CA4
:1057900000F008000020704725D40008014B93F862
:1057A000280170473C040020004870472C05002069
:1057B000704700BF704700BF704700BF704700BF11
:1057C00038B50C46114600228446074D20462A6013
:1057D0001A466446FBF794FF431C00D038BD2B6883
:1057E000002BFBD0236038BD940B00202DE9F04145
:1057F0008B890C46990796B008D5012204F1430322
:10580000C4E90432236016B0BDE8F081B4F90E108B
:105810000646002927DB6A4604F086FF002821DBC4
:10582000019D4FF4806805F47045A5F50055B5FA63
:1058300085F54FF400676D094146304600F086F863
:10584000B4F90C30F0B1204A43F08003F263C4F89D
:105850001480A3812060206135BB3B43A38116B037
:10586000BDE8F081A38913F0800519D04FF04008FE
:1058700030464146002500F069F82F46B4F90C3057
:105880000028E0D19A05BED4012123F0030304F1DE
:10589000430243F00203C4E90421A3812260B2E77A
:1058A0004FF480682F46C7E73046B4F90E1005F074
:1058B00073FB10B9B4F90C30CFE7A38923F00303CD
:1058C00043F001031BB2C8E73D53000870B50C4616
:1058D000B1F90E10154600291E4696B014DB6A4633
:1058E00004F022FF00280FDB019A4FF4806302F4DA
:1058F0007042A2F50052B2FA82F24FF400605209EF
:1059000032602B6016B070BD0023B4F90C10336008
:1059100011F0800004D0402218462A6016B070BDF5
:105920004FF480632B6016B070BD00BF024B014680
:10593000186800F00BB800BF0C000020024B0146B5
:105940001868FFF7F9BD00BF0C0000202DE9F04FEB
:1059500001F10B05162D064683B025D8102900F25B
:10596000B88000F0D7FA102518224FF0020CB54F7E
:105970003A445368A2F108018B4200F0B7805A689C
:10598000D96822F003021A449C683046E1608C60BA
:10599000516803F1080441F00101516000F0C0FAC0
:1059A000204603B0BDE8F08F35F0070500F1918087
:1059B000A94200F28E8000F0ADFAB5F5FC7FC0F090
:1059C00094816B0A00F08C80042B00F26A81AB0991
:1059D00003F1390C03F138044FEACC00994F3844F5
:1059E00043680838984206D10CE0002980F22681ED
:1059F000DB68984206D05A6822F00302511B0F2937
:105A0000F3DDA4463C69DFF840E274457AD0626871
:105A100022F00302531B0F2B00F37681002BC7E902
:105A200004EE80F26781B2F5007F80F019810121D8
:105A3000D30852090B4491407A6857F833000A435F
:105A400007EBC3010839A060E1607A6047F8334092
:105A5000C46001214FEAAC039940914259D81142E8
:105A600006D12CF0030C490011420CF1040CFAD0C1
:105A700007EBCC0948466446D0F80C80404508D175
:105A80001CE1002B80F22181D8F80C80404500F009
:105A90001581D8F8042022F00302531B0F2BF0DDF0
:105AA00008EB050145F00105C8F804503046D8E977
:105AB0000264F460A66043F00104C7E904114C607D
:105AC000C1E902EE48F8023000F02AFA08F10804B1
:105AD00002E00C2300243360204603B0BDE8F08FC1
